{
  "_format": "hh-sol-artifact-1",
  "contractName": "Market",
  "sourceName": "contracts/Market.sol",
  "abi": [
    {
      "inputs": [
        {
          "internalType": "address",
          "name": "_token",
          "type": "address"
        }
      ],
      "stateMutability": "nonpayable",
      "type": "constructor"
    },
    {
      "anonymous": false,
      "inputs": [
        {
          "indexed": true,
          "internalType": "uint256",
          "name": "collectionId",
          "type": "uint256"
        },
        {
          "indexed": true,
          "internalType": "address",
          "name": "owner",
          "type": "address"
        }
      ],
      "name": "CollectionCreated",
      "type": "event"
    },
    {
      "anonymous": false,
      "inputs": [
        {
          "indexed": true,
          "internalType": "address",
          "name": "seller",
          "type": "address"
        },
        {
          "indexed": true,
          "internalType": "address",
          "name": "buyer",
          "type": "address"
        },
        {
          "indexed": false,
          "internalType": "uint256",
          "name": "tokenId",
          "type": "uint256"
        },
        {
          "indexed": false,
          "internalType": "uint256",
          "name": "price",
          "type": "uint256"
        }
      ],
      "name": "OfferAccepted",
      "type": "event"
    },
    {
      "anonymous": false,
      "inputs": [
        {
          "indexed": true,
          "internalType": "address",
          "name": "offeror",
          "type": "address"
        },
        {
          "indexed": true,
          "internalType": "address",
          "name": "seller",
          "type": "address"
        },
        {
          "indexed": false,
          "internalType": "uint256",
          "name": "tokenId",
          "type": "uint256"
        },
        {
          "indexed": false,
          "internalType": "uint256",
          "name": "price",
          "type": "uint256"
        }
      ],
      "name": "OfferCreated",
      "type": "event"
    },
    {
      "anonymous": false,
      "inputs": [
        {
          "indexed": true,
          "internalType": "address",
          "name": "previousOwner",
          "type": "address"
        },
        {
          "indexed": true,
          "internalType": "address",
          "name": "newOwner",
          "type": "address"
        }
      ],
      "name": "OwnershipTransferred",
      "type": "event"
    },
    {
      "anonymous": false,
      "inputs": [
        {
          "indexed": true,
          "internalType": "address",
          "name": "seller",
          "type": "address"
        },
        {
          "indexed": false,
          "internalType": "uint256",
          "name": "tokenId",
          "type": "uint256"
        }
      ],
      "name": "TokenListedForSale",
      "type": "event"
    },
    {
      "anonymous": false,
      "inputs": [
        {
          "indexed": true,
          "internalType": "uint256",
          "name": "collectionId",
          "type": "uint256"
        },
        {
          "indexed": true,
          "internalType": "uint256",
          "name": "tokenId",
          "type": "uint256"
        },
        {
          "indexed": false,
          "internalType": "uint256",
          "name": "price",
          "type": "uint256"
        },
        {
          "indexed": false,
          "internalType": "address",
          "name": "seller",
          "type": "address"
        }
      ],
      "name": "TokenMinted",
      "type": "event"
    },
    {
      "anonymous": false,
      "inputs": [
        {
          "indexed": true,
          "internalType": "address",
          "name": "buyer",
          "type": "address"
        },
        {
          "indexed": true,
          "internalType": "address",
          "name": "seller",
          "type": "address"
        },
        {
          "indexed": false,
          "internalType": "uint256",
          "name": "collectionId",
          "type": "uint256"
        },
        {
          "indexed": false,
          "internalType": "uint256",
          "name": "tokenId",
          "type": "uint256"
        },
        {
          "indexed": false,
          "internalType": "uint256",
          "name": "price",
          "type": "uint256"
        }
      ],
      "name": "TokenSold",
      "type": "event"
    },
    {
      "inputs": [
        {
          "internalType": "uint256",
          "name": "_tokenId",
          "type": "uint256"
        },
        {
          "internalType": "uint256",
          "name": "_offerId",
          "type": "uint256"
        }
      ],
      "name": "acceptOffer",
      "outputs": [],
      "stateMutability": "nonpayable",
      "type": "function"
    },
    {
      "inputs": [
        {
          "internalType": "uint256",
          "name": "_tokenId",
          "type": "uint256"
        },
        {
          "internalType": "uint256",
          "name": "_collectionId",
          "type": "uint256"
        }
      ],
      "name": "buyToken",
      "outputs": [],
      "stateMutability": "payable",
      "type": "function"
    },
    {
      "inputs": [
        {
          "internalType": "uint256",
          "name": "_collectionId",
          "type": "uint256"
        }
      ],
      "name": "createCollection",
      "outputs": [],
      "stateMutability": "payable",
      "type": "function"
    },
    {
      "inputs": [],
      "name": "fetchMarketCollections",
      "outputs": [
        {
          "components": [
            {
              "internalType": "uint256",
              "name": "index",
              "type": "uint256"
            },
            {
              "internalType": "uint256",
              "name": "id",
              "type": "uint256"
            },
            {
              "internalType": "address",
              "name": "owner",
              "type": "address"
            },
            {
              "components": [
                {
                  "internalType": "uint256",
                  "name": "_value",
                  "type": "uint256"
                }
              ],
              "internalType": "struct Counters.Counter",
              "name": "tokensCount",
              "type": "tuple"
            },
            {
              "components": [
                {
                  "internalType": "uint256",
                  "name": "_value",
                  "type": "uint256"
                }
              ],
              "internalType": "struct Counters.Counter",
              "name": "tokensSold",
              "type": "tuple"
            },
            {
              "internalType": "uint256[]",
              "name": "tokensIds",
              "type": "uint256[]"
            },
            {
              "internalType": "bool",
              "name": "exists",
              "type": "bool"
            }
          ],
          "internalType": "struct Market.Collection[]",
          "name": "",
          "type": "tuple[]"
        },
        {
          "components": [
            {
              "internalType": "uint256",
              "name": "index",
              "type": "uint256"
            },
            {
              "internalType": "uint256",
              "name": "id",
              "type": "uint256"
            },
            {
              "internalType": "uint256",
              "name": "price",
              "type": "uint256"
            },
            {
              "internalType": "address payable",
              "name": "seller",
              "type": "address"
            },
            {
              "internalType": "address",
              "name": "owner",
              "type": "address"
            },
            {
              "components": [
                {
                  "internalType": "uint256",
                  "name": "_value",
                  "type": "uint256"
                }
              ],
              "internalType": "struct Counters.Counter",
              "name": "offersCount",
              "type": "tuple"
            },
            {
              "internalType": "bool",
              "name": "sold",
              "type": "bool"
            },
            {
              "internalType": "bool",
              "name": "exists",
              "type": "bool"
            }
          ],
          "internalType": "struct Market.Token[][]",
          "name": "",
          "type": "tuple[][]"
        },
        {
          "components": [
            {
              "internalType": "uint256",
              "name": "index",
              "type": "uint256"
            },
            {
              "internalType": "uint256",
              "name": "id",
              "type": "uint256"
            },
            {
              "internalType": "uint256",
              "name": "price",
              "type": "uint256"
            },
            {
              "internalType": "address payable",
              "name": "seller",
              "type": "address"
            },
            {
              "internalType": "address",
              "name": "owner",
              "type": "address"
            },
            {
              "components": [
                {
                  "internalType": "uint256",
                  "name": "_value",
                  "type": "uint256"
                }
              ],
              "internalType": "struct Counters.Counter",
              "name": "offersCount",
              "type": "tuple"
            },
            {
              "internalType": "bool",
              "name": "sold",
              "type": "bool"
            },
            {
              "internalType": "bool",
              "name": "exists",
              "type": "bool"
            }
          ],
          "internalType": "struct Market.Token[]",
          "name": "",
          "type": "tuple[]"
        }
      ],
      "stateMutability": "view",
      "type": "function"
    },
    {
      "inputs": [],
      "name": "fetchOwnersCollections",
      "outputs": [
        {
          "components": [
            {
              "internalType": "uint256",
              "name": "index",
              "type": "uint256"
            },
            {
              "internalType": "uint256",
              "name": "id",
              "type": "uint256"
            },
            {
              "internalType": "address",
              "name": "owner",
              "type": "address"
            },
            {
              "components": [
                {
                  "internalType": "uint256",
                  "name": "_value",
                  "type": "uint256"
                }
              ],
              "internalType": "struct Counters.Counter",
              "name": "tokensCount",
              "type": "tuple"
            },
            {
              "components": [
                {
                  "internalType": "uint256",
                  "name": "_value",
                  "type": "uint256"
                }
              ],
              "internalType": "struct Counters.Counter",
              "name": "tokensSold",
              "type": "tuple"
            },
            {
              "internalType": "uint256[]",
              "name": "tokensIds",
              "type": "uint256[]"
            },
            {
              "internalType": "bool",
              "name": "exists",
              "type": "bool"
            }
          ],
          "internalType": "struct Market.Collection[]",
          "name": "",
          "type": "tuple[]"
        },
        {
          "components": [
            {
              "internalType": "uint256",
              "name": "index",
              "type": "uint256"
            },
            {
              "internalType": "uint256",
              "name": "id",
              "type": "uint256"
            },
            {
              "internalType": "uint256",
              "name": "price",
              "type": "uint256"
            },
            {
              "internalType": "address payable",
              "name": "seller",
              "type": "address"
            },
            {
              "internalType": "address",
              "name": "owner",
              "type": "address"
            },
            {
              "components": [
                {
                  "internalType": "uint256",
                  "name": "_value",
                  "type": "uint256"
                }
              ],
              "internalType": "struct Counters.Counter",
              "name": "offersCount",
              "type": "tuple"
            },
            {
              "internalType": "bool",
              "name": "sold",
              "type": "bool"
            },
            {
              "internalType": "bool",
              "name": "exists",
              "type": "bool"
            }
          ],
          "internalType": "struct Market.Token[][]",
          "name": "",
          "type": "tuple[][]"
        },
        {
          "components": [
            {
              "internalType": "uint256",
              "name": "index",
              "type": "uint256"
            },
            {
              "internalType": "uint256",
              "name": "id",
              "type": "uint256"
            },
            {
              "internalType": "uint256",
              "name": "price",
              "type": "uint256"
            },
            {
              "internalType": "address payable",
              "name": "seller",
              "type": "address"
            },
            {
              "internalType": "address",
              "name": "owner",
              "type": "address"
            },
            {
              "components": [
                {
                  "internalType": "uint256",
                  "name": "_value",
                  "type": "uint256"
                }
              ],
              "internalType": "struct Counters.Counter",
              "name": "offersCount",
              "type": "tuple"
            },
            {
              "internalType": "bool",
              "name": "sold",
              "type": "bool"
            },
            {
              "internalType": "bool",
              "name": "exists",
              "type": "bool"
            }
          ],
          "internalType": "struct Market.Token[]",
          "name": "",
          "type": "tuple[]"
        }
      ],
      "stateMutability": "view",
      "type": "function"
    },
    {
      "inputs": [
        {
          "internalType": "uint256",
          "name": "_tokenId",
          "type": "uint256"
        }
      ],
      "name": "fetchTokenOffers",
      "outputs": [
        {
          "components": [
            {
              "internalType": "uint256",
              "name": "id",
              "type": "uint256"
            },
            {
              "internalType": "address payable",
              "name": "offeror",
              "type": "address"
            },
            {
              "internalType": "uint256",
              "name": "price",
              "type": "uint256"
            },
            {
              "internalType": "bool",
              "name": "exists",
              "type": "bool"
            }
          ],
          "internalType": "struct Market.Offer[]",
          "name": "",
          "type": "tuple[]"
        }
      ],
      "stateMutability": "view",
      "type": "function"
    },
    {
      "inputs": [
        {
          "internalType": "uint256",
          "name": "_tokenId",
          "type": "uint256"
        }
      ],
      "name": "listTokenForSale",
      "outputs": [],
      "stateMutability": "nonpayable",
      "type": "function"
    },
    {
      "inputs": [
        {
          "internalType": "uint256",
          "name": "_tokenId",
          "type": "uint256"
        }
      ],
      "name": "makeOffer",
      "outputs": [],
      "stateMutability": "payable",
      "type": "function"
    },
    {
      "inputs": [
        {
          "internalType": "uint256",
          "name": "_tokenId",
          "type": "uint256"
        },
        {
          "internalType": "uint256",
          "name": "_collectionId",
          "type": "uint256"
        }
      ],
      "name": "mintToken",
      "outputs": [],
      "stateMutability": "payable",
      "type": "function"
    },
    {
      "inputs": [
        {
          "internalType": "address",
          "name": "",
          "type": "address"
        },
        {
          "internalType": "address",
          "name": "",
          "type": "address"
        },
        {
          "internalType": "uint256[]",
          "name": "",
          "type": "uint256[]"
        },
        {
          "internalType": "uint256[]",
          "name": "",
          "type": "uint256[]"
        },
        {
          "internalType": "bytes",
          "name": "",
          "type": "bytes"
        }
      ],
      "name": "onERC1155BatchReceived",
      "outputs": [
        {
          "internalType": "bytes4",
          "name": "",
          "type": "bytes4"
        }
      ],
      "stateMutability": "nonpayable",
      "type": "function"
    },
    {
      "inputs": [
        {
          "internalType": "address",
          "name": "",
          "type": "address"
        },
        {
          "internalType": "address",
          "name": "",
          "type": "address"
        },
        {
          "internalType": "uint256",
          "name": "",
          "type": "uint256"
        },
        {
          "internalType": "uint256",
          "name": "",
          "type": "uint256"
        },
        {
          "internalType": "bytes",
          "name": "",
          "type": "bytes"
        }
      ],
      "name": "onERC1155Received",
      "outputs": [
        {
          "internalType": "bytes4",
          "name": "",
          "type": "bytes4"
        }
      ],
      "stateMutability": "nonpayable",
      "type": "function"
    },
    {
      "inputs": [],
      "name": "owner",
      "outputs": [
        {
          "internalType": "address",
          "name": "",
          "type": "address"
        }
      ],
      "stateMutability": "view",
      "type": "function"
    },
    {
      "inputs": [],
      "name": "renounceOwnership",
      "outputs": [],
      "stateMutability": "nonpayable",
      "type": "function"
    },
    {
      "inputs": [
        {
          "internalType": "bytes4",
          "name": "interfaceId",
          "type": "bytes4"
        }
      ],
      "name": "supportsInterface",
      "outputs": [
        {
          "internalType": "bool",
          "name": "",
          "type": "bool"
        }
      ],
      "stateMutability": "view",
      "type": "function"
    },
    {
      "inputs": [
        {
          "internalType": "address",
          "name": "newOwner",
          "type": "address"
        }
      ],
      "name": "transferOwnership",
      "outputs": [],
      "stateMutability": "nonpayable",
      "type": "function"
    },
    {
      "inputs": [
        {
          "internalType": "uint256",
          "name": "i",
          "type": "uint256"
        },
        {
          "internalType": "uint8",
          "name": "ml",
          "type": "uint8"
        }
      ],
      "name": "uint2hex64str",
      "outputs": [
        {
          "internalType": "string",
          "name": "",
          "type": "string"
        }
      ],
      "stateMutability": "pure",
      "type": "function"
    },
    {
      "inputs": [
        {
          "internalType": "uint256",
          "name": "_id",
          "type": "uint256"
        }
      ],
      "name": "uri",
      "outputs": [
        {
          "internalType": "string",
          "name": "",
          "type": "string"
        }
      ],
      "stateMutability": "pure",
      "type": "function"
    },
    {
      "inputs": [],
      "name": "withdraw",
      "outputs": [],
      "stateMutability": "nonpayable",
      "type": "function"
    }
  ],
  "bytecode": "0x608060405260006003556611c37937e080006004553480156200002157600080fd5b5060405162003506380380620035068339810160408190526200004491620000cc565b600160005562000054336200007a565b600280546001600160a01b0319166001600160a01b0392909216919091179055620000fc565b600180546001600160a01b038381166001600160a01b0319831681179093556040519116919082907f8be0079c531659141344cd1fd0a4f28419497f9722a3daafe3b4186f6b6457e090600090a35050565b600060208284031215620000de578081fd5b81516001600160a01b0381168114620000f5578182fd5b9392505050565b6133fa806200010c6000396000f3fe6080604052600436106101095760003560e01c80637fff4f7f11610095578063bc197c8111610064578063bc197c8114610296578063bfe2bb00146102db578063d0011d9d14610308578063f23a6e611461031b578063f2fde38b1461034757600080fd5b80637fff4f7f1461022657806381257bd51461023b5780638da5cb5b1461025b5780639a2f64741461028357600080fd5b806320cbf5f9116100dc57806320cbf5f9146101a95780633ccfd60b146101bc5780633ff947a0146101d15780634d8e2188146101f1578063715018a61461021157600080fd5b806301ffc9a71461010e578063057466ea146101435780630e89341c1461015857806316c393bb14610185575b600080fd5b34801561011a57600080fd5b5061012e610129366004612e66565b610367565b60405190151581526020015b60405180910390f35b610156610151366004612ea6565b610378565b005b34801561016457600080fd5b50610178610173366004612e8e565b61070d565b60405161013a91906131ca565b34801561019157600080fd5b5061019a610746565b60405161013a93929190613059565b6101566101b7366004612ea6565b610ed8565b3480156101c857600080fd5b50610156611134565b3480156101dd57600080fd5b506101786101ec366004612ec7565b61120c565b3480156101fd57600080fd5b5061015661020c366004612e8e565b611373565b34801561021d57600080fd5b50610156611574565b34801561023257600080fd5b5061019a6115aa565b34801561024757600080fd5b50610156610256366004612ea6565b611dbd565b34801561026757600080fd5b506001546040516001600160a01b03909116815260200161013a565b610156610291366004612e8e565b6123dd565b3480156102a257600080fd5b506102c26102b1366004612d5f565b63bc197c8160e01b95945050505050565b6040516001600160e01b0319909116815260200161013a565b3480156102e757600080fd5b506102fb6102f6366004612e8e565b612601565b60405161013a919061315b565b610156610316366004612e8e565b612761565b34801561032757600080fd5b506102c2610336366004612e04565b63f23a6e6160e01b95945050505050565b34801561035357600080fd5b50610156610362366004612d3e565b61292d565b6000610372826129c5565b92915050565b600260005414156103a45760405162461bcd60e51b815260040161039b906132a0565b60405180910390fd5b60026000908155828152600a602052604090206006015460ff6101009091041615156001146103e55760405162461bcd60e51b815260040161039b90613234565b6000828152600a60205260409020600301546001600160a01b03166104415760405162461bcd60e51b815260206004820152601260248201527113585c9ad95d0e881d1bdad95b881cdbdb1960721b604482015260640161039b565b6000828152600a60205260409020600401546001600160a01b0316156104795760405162461bcd60e51b815260040161039b906131fd565b6000828152600a60205260409020600301546001600160a01b03163314156104e35760405162461bcd60e51b815260206004820152601960248201527f4d61726b65743a20796f75206f776e2074686520746f6b656e00000000000000604482015260640161039b565b6000828152600a602052604090206002015434146105435760405162461bcd60e51b815260206004820152601a60248201527f4d61726b65743a20616d6f756e74206e6f7420636f7272656374000000000000604482015260640161039b565b6002546000838152600a6020526040908190206003015490516323b872dd60e01b81526001600160a01b039182166004820152336024820152604481018590529116906323b872dd90606401600060405180830381600087803b1580156105a957600080fd5b505af11580156105bd573d6000803e3d6000fd5b5050506000838152600a60205260408082206003015490516001600160a01b0390911692503480156108fc0292909190818181858888f1935050505015801561060a573d6000803e3d6000fd5b506000828152600a6020818152604080842060048082018054336001600160a01b031991821681179092556002840188905560068401805460ff19166001908117909155600390940180549091168155600d80548086019091557fd7b6990105719101dabeb77144f2a3385c8033acd3af97e9423a695e81ad1eb5018a905588885260058652848820909201805484019055808752600c85528387208054909301909255948790529282529254835185815291820186905234938201939093526001600160a01b03909216917f9387a595ac4be9038bbb9751abad8baa3dcf219dd9e19abb81552bd521fe3546906060015b60405180910390a350506001600055565b6060600061071c83604061120c565b90508060405160200161072f9190613014565b604051602081830303815290604052915050919050565b3360009081526006602052604081205460609182918291816001600160401b0381111561078357634e487b7160e01b600052604160045260246000fd5b6040519080825280602002602001820160405280156107bc57816020015b6107a9612aa3565b8152602001906001900390816107a15790505b5090506000826001600160401b038111156107e757634e487b7160e01b600052604160045260246000fd5b60405190808252806020026020018201604052801561081a57816020015b60608152602001906001900390816108055790505b50905060005b83811015610c375733600090815260066020526040812080548390811061085757634e487b7160e01b600052603260045260246000fd5b60009182526020808320909101548083526005808352604093849020845160e0810186528154815260018201548186015260028201546001600160a01b031681870152855180860187526003830154815260608201528551808601875260048301548152608082015291810180548651818702810187019097528087529396509194909360a08601939192919083018282801561091357602002820191906000526020600020905b8154815260200190600101908083116108ff575b50505091835250506006919091015460ff161515602090910152845185908490811061094f57634e487b7160e01b600052603260045260246000fd5b6020026020010181905250610977600560008381526020019081526020016000206004015490565b600082815260056020526040902060030154610993919061331f565b6001600160401b038111156109b857634e487b7160e01b600052604160045260246000fd5b6040519080825280602002602001820160405280156109f157816020015b6109de612b11565b8152602001906001900390816109d65790505b50838381518110610a1257634e487b7160e01b600052603260045260246000fd5b6020026020010181905250600080858481518110610a4057634e487b7160e01b600052603260045260246000fd5b602002602001015160a0015151905060005b81811015610c20576000878681518110610a7c57634e487b7160e01b600052603260045260246000fd5b602002602001015160a001518281518110610aa757634e487b7160e01b600052603260045260246000fd5b60200260200101519050878681518110610ad157634e487b7160e01b600052603260045260246000fd5b6020908102919091018101516040908101516000848152600a9093529120600301546001600160a01b039081169116148015610b1f57506000818152600a602052604090206006015460ff16155b15610c0d576000818152600a6020908152604091829020825161010080820185528254825260018301548285015260028301548286015260038301546001600160a01b039081166060840152600484015416608083015284519384019094526005820154835260a08101929092526006015460ff808216151560c0840152929004909116151560e08201528751889088908110610bcc57634e487b7160e01b600052603260045260246000fd5b60200260200101518581518110610bf357634e487b7160e01b600052603260045260246000fd5b60200260200101819052508380610c099061337d565b9450505b5080610c188161337d565b915050610a52565b505050508080610c2f9061337d565b915050610820565b50336000908152600c60205260408120546001600160401b03811115610c6d57634e487b7160e01b600052604160045260246000fd5b604051908082528060200260200182016040528015610ca657816020015b610c93612b11565b815260200190600190039081610c8b5790505b5090506000805b600d54811015610eca57336001600160a01b0316600a6000600d8481548110610ce657634e487b7160e01b600052603260045260246000fd5b600091825260208083209091015483528201929092526040019020600401546001600160a01b03161480610d6e5750336001600160a01b0316600a6000600d8481548110610d4457634e487b7160e01b600052603260045260246000fd5b600091825260208083209091015483528201929092526040019020600301546001600160a01b0316145b8015610dc25750600a6000600d8381548110610d9a57634e487b7160e01b600052603260045260246000fd5b6000918252602080832090910154835282019290925260400190206006015460ff1615156001145b15610eb857600a6000600d8381548110610dec57634e487b7160e01b600052603260045260246000fd5b600091825260208083209091015483528281019390935260409182019020815161010080820184528254825260018301548286015260028301548285015260038301546001600160a01b039081166060840152600484015416608083015283519485019093526005820154845260a08101939093526006015460ff808216151560c085015291900416151560e08201528351849084908110610e9e57634e487b7160e01b600052603260045260246000fd5b60200260200101819052508180610eb49061337d565b9250505b80610ec28161337d565b915050610cad565b509297919650945092505050565b60026000541415610efb5760405162461bcd60e51b815260040161039b906132a0565b600260009081558181526005602052604090206006015460ff161515600114610f665760405162461bcd60e51b815260206004820152601f60248201527f4d61726b65743a206e6f74206578697374696e6720636f6c6c656374696f6e00604482015260640161039b565b604051806101000160405280610f7b600e5490565b8152602080820185905260048054604080850191909152336060808601829052600060808088018290528451808801865282815260a0808a019190915260c0808a01849052600160e09a8b018190528d8552600a8a528785208c518155998c0151908a01558a8701516002808b0191909155948b015160038a0180546001600160a01b03199081166001600160a01b0393841617909155938c01518a8a01805490951690821617909355908a015151600589015589015160069097018054999098015161ffff1990991696151561ff001916969096176101009815159890980297909717909555935481516394bf804d60e01b815292830188905260248301949094525192909116926394bf804d9260448084019382900301818387803b1580156110a557600080fd5b505af11580156110b9573d6000803e3d6000fd5b5050506000828152600560208181526040832060038101805460019081019091559201805480840182559084529220909101849055600e805490910190555060045460408051918252336020830152839183917f0a20fc1c77df8b4a972d893c02c04cb24cbb841a0d8083766ae9806bd93ef02d91016106fc565b6001546001600160a01b0316331461115e5760405162461bcd60e51b815260040161039b9061326b565b60006003544761116e919061331f565b116111bb5760405162461bcd60e51b815260206004820152601b60248201527f4d61726b65743a206e6f7468696e6720746f2077697468647261770000000000604482015260640161039b565b6001546001600160a01b03166001600160a01b03166108fc600354476111e1919061331f565b6040518115909202916000818181858888f19350505050158015611209573d6000803e3d6000fd5b50565b60608261123157506040805180820190915260018152600360fc1b6020820152610372565b8260005b811561125457806112458161337d565b915050600482901c9150611235565b849150600f6000826001600160401b0381111561128157634e487b7160e01b600052604160045260246000fd5b6040519080825280601f01601f1916602001820160405280156112ab576020820181803683370190505b509050825b841561133257848316600981116112d4576112cc816030613307565b60f81b6112e3565b6112df816037613307565b60f81b5b836112ed84613366565b9350838151811061130e57634e487b7160e01b600052603260045260246000fd5b60200101906001600160f81b031916908160001a905350600486901c9550506112b0565b815b8760ff168151101561136757806040516020016113519190612feb565b6040516020818303038152906040529050611334565b98975050505050505050565b600260005414156113965760405162461bcd60e51b815260040161039b906132a0565b60026000908155818152600a60205260409020600301546001600160a01b0316156114035760405162461bcd60e51b815260206004820152601e60248201527f4d61726b65743a20746f6b656e20616c726561647920666f722073616c650000604482015260640161039b565b6000818152600a602052604090206006015460ff61010090910416151560011461143f5760405162461bcd60e51b815260040161039b90613234565b6000818152600a60205260409020600401546001600160a01b031633146114a85760405162461bcd60e51b815260206004820152601d60248201527f4d61726b65743a20796f7520617265206e6f7420746865206f776e6572000000604482015260640161039b565b6000818152600a602052604090819020600381018054336001600160a01b03199182161790915560049182018054909116905560025491516337519c1960e21b81529081018390526001600160a01b039091169063dd46706490602401600060405180830381600087803b15801561151f57600080fd5b505af1158015611533573d6000803e3d6000fd5b50506040518381523392507fe7a2b047c5d5fd3ff0721e4154639da2164288ce6a790793f559d59dc879af67915060200160405180910390a2506001600055565b6001546001600160a01b0316331461159e5760405162461bcd60e51b815260040161039b9061326b565b6115a860006129fa565b565b606080606060006115ba60095490565b3360009081526006602090815260408083205460089092528220549293509160ff1615156001146115ec5760006115ee565b815b6009546115fb919061331f565b90506000816001600160401b0381111561162557634e487b7160e01b600052604160045260246000fd5b60405190808252806020026020018201604052801561165e57816020015b61164b612aa3565b8152602001906001900390816116435790505b5090506000826001600160401b0381111561168957634e487b7160e01b600052604160045260246000fd5b6040519080825280602002602001820160405280156116bc57816020015b60608152602001906001900390816116a75790505b5090506000805b86811015611b01576000818152600760209081526040808320548084526005909252909120600201546001600160a01b03163314611aee57600081815260056020818152604092839020835160e0810185528154815260018201548184015260028201546001600160a01b031681860152845180840186526003830154815260608201528451808401865260048301548152608082015292810180548551818502810185019096528086529394919360a08601938301828280156117a657602002820191906000526020600020905b815481526020019060010190808311611792575b50505091835250506006919091015460ff16151560209091015285518690859081106117e257634e487b7160e01b600052603260045260246000fd5b6020026020010181905250600061180c600560008481526020019081526020016000206004015490565b600083815260056020526040902060030154611828919061331f565b9050806001600160401b0381111561185057634e487b7160e01b600052604160045260246000fd5b60405190808252806020026020018201604052801561188957816020015b611876612b11565b81526020019060019003908161186e5790505b508585815181106118aa57634e487b7160e01b600052603260045260246000fd5b60200260200101819052506000808786815181106118d857634e487b7160e01b600052603260045260246000fd5b602002602001015160a0015151905060005b81811015611adc57600089888151811061191457634e487b7160e01b600052603260045260246000fd5b602002602001015160a00151828151811061193f57634e487b7160e01b600052603260045260246000fd5b6020026020010151905089888151811061196957634e487b7160e01b600052603260045260246000fd5b6020908102919091018101516040908101516000848152600a9093529120600301546001600160a01b0390811691161480156119bd57506000818152600a60205260409020600401546001600160a01b0316155b80156119db57506000818152600a602052604090206006015460ff16155b15611ac9576000818152600a6020908152604091829020825161010080820185528254825260018301548285015260028301548286015260038301546001600160a01b039081166060840152600484015416608083015284519384019094526005820154835260a08101929092526006015460ff808216151560c0840152929004909116151560e082015289518a908a908110611a8857634e487b7160e01b600052603260045260246000fd5b60200260200101518581518110611aaf57634e487b7160e01b600052603260045260246000fd5b60200260200101819052508380611ac59061337d565b9450505b5080611ad48161337d565b9150506118ea565b5085611ae78161337d565b9650505050505b5080611af98161337d565b9150506116c3565b50336000908152600c6020526040812054600d548291611b209161331f565b90506000816001600160401b03811115611b4a57634e487b7160e01b600052604160045260246000fd5b604051908082528060200260200182016040528015611b8357816020015b611b70612b11565b815260200190600190039081611b685790505b50905060005b600d54811015611da957336001600160a01b0316600a6000600d8481548110611bc257634e487b7160e01b600052603260045260246000fd5b600091825260208083209091015483528201929092526040019020600401546001600160a01b031614801590611c4d5750336001600160a01b0316600a6000600d8481548110611c2257634e487b7160e01b600052603260045260246000fd5b600091825260208083209091015483528201929092526040019020600301546001600160a01b031614155b8015611ca15750600a6000600d8381548110611c7957634e487b7160e01b600052603260045260246000fd5b6000918252602080832090910154835282019290925260400190206006015460ff1615156001145b15611d9757600a6000600d8381548110611ccb57634e487b7160e01b600052603260045260246000fd5b600091825260208083209091015483528281019390935260409182019020815161010080820184528254825260018301548286015260028301548285015260038301546001600160a01b039081166060840152600484015416608083015283519485019093526005820154845260a08101939093526006015460ff808216151560c085015291900416151560e08201528251839086908110611d7d57634e487b7160e01b600052603260045260246000fd5b60200260200101819052508380611d939061337d565b9450505b80611da18161337d565b915050611b89565b50949b939a50939850919650505050505050565b60026000541415611de05760405162461bcd60e51b815260040161039b906132a0565b60026000908155828152600a602052604090206006015460ff610100909104161515600114611e215760405162461bcd60e51b815260040161039b90613234565b6000828152600a60205260409020600401546001600160a01b031615611e7e5760405162461bcd60e51b815260206004820152601260248201527113585c9ad95d0e881d1bdad95b881cdbdb1960721b604482015260640161039b565b6000828152600a60205260409020600301546001600160a01b03163314611ee35760405162461bcd60e51b815260206004820152601960248201527826b0b935b2ba1d103737ba1030903a37b5b2b71037bbb732b960391b604482015260640161039b565b6000828152600b60205260409020805482908110611f1157634e487b7160e01b600052603260045260246000fd5b600091825260209091206003600490920201015460ff161515600114611f795760405162461bcd60e51b815260206004820152601a60248201527f4d61726b65743a206e6f74206578697374696e67206f66666572000000000000604482015260640161039b565b6000828152600b60205260408120805483908110611fa757634e487b7160e01b600052603260045260246000fd5b6000918252602080832060016004909302019190910154858352600b9091526040822080546001600160a01b0390921693509084908110611ff857634e487b7160e01b600052603260045260246000fd5b600091825260209091206004918202016002908101549054604051636198e33960e01b81529283018790529092506001600160a01b031690636198e33990602401600060405180830381600087803b15801561205357600080fd5b505af1158015612067573d6000803e3d6000fd5b50506002546040516323b872dd60e01b81523360048201526001600160a01b0386811660248301526044820189905290911692506323b872dd9150606401600060405180830381600087803b1580156120bf57600080fd5b505af11580156120d3573d6000803e3d6000fd5b5050506000858152600b6020526040902080549091508490811061210757634e487b7160e01b600052603260045260246000fd5b9060005260206000209060040201600201546003600082825461212a919061331f565b90915550506000848152600b60205260409020805433916108fc918690811061216357634e487b7160e01b600052603260045260246000fd5b9060005260206000209060040201600201549081150290604051600060405180830381858888f193505050501580156121a0573d6000803e3d6000fd5b506001600160a01b0382166000908152600c60205260408082208054600101905533825290206121cf90612a4c565b6000848152600a602052604081206004810180546001600160a01b0386166001600160a01b0319918216179091556003909101805490911690555b6000858152600a602052604090206005015481101561236257838114612350576000858152600b6020526040902080548290811061225857634e487b7160e01b600052603260045260246000fd5b9060005260206000209060040201600201546003600082825461227b919061331f565b90915550506000858152600b602052604090208054829081106122ae57634e487b7160e01b600052603260045260246000fd5b906000526020600020906004020160010160009054906101000a90046001600160a01b03166001600160a01b03166108fc600b6000888152602001908152602001600020838154811061231157634e487b7160e01b600052603260045260246000fd5b9060005260206000209060040201600201549081150290604051600060405180830381858888f1935050505015801561234e573d6000803e3d6000fd5b505b8061235a8161337d565b91505061220a565b506000848152600b6020526040812061237a91612b7c565b6000848152600a602052604081206005015560408051858152602081018390526001600160a01b0384169133917fa6da490df6e8f0e592e795b4d96c5810d8ddfda51c21577adbdd8e1a0fa47a67910160405180910390a3505060016000555050565b6000818152600a602052604090206006015460ff6101009091041615156001146124195760405162461bcd60e51b815260040161039b90613234565b6000818152600a60205260409020600301546001600160a01b03166124505760405162461bcd60e51b815260040161039b906131fd565b6000818152600a60205260409020600401546001600160a01b0316156124885760405162461bcd60e51b815260040161039b906131fd565b600034116124ed5760405162461bcd60e51b815260206004820152602c60248201527f4d61726b65743a206f66666572207072696365206d757374206265206174206c60448201526b65617374206f6e652077656960a01b606482015260840161039b565b6000818152600b602090815260408083208151608081018352600a80855283862060050180548352338387019081523495840186815260016060860181815287548083018955978b52898b2096516004909802909601968755915186830180546001600160a01b0319166001600160a01b0390921691909117905551600286015592516003948501805460ff19169115159190911790558787529452835401909255815490929061259f908490613307565b90915550506000818152600a602090815260409182902060030154825184815234928101929092526001600160a01b03169133917f1e1a944902b7d587d9352b556127d1316831a4c829cfc46cc2fcb10c8ab53822910160405180910390a350565b6000818152600a602052604090206006015460609060ff6101009091041615156001146126665760405162461bcd60e51b815260206004820152601360248201527226b0b935b2ba1d103bb937b733903a37b5b2b760691b604482015260640161039b565b6000828152600a60205260409020600301546001600160a01b031633146126cb5760405162461bcd60e51b815260206004820152601960248201527826b0b935b2ba1d103737ba1030903a37b5b2b71037bbb732b960391b604482015260640161039b565b6000828152600b6020908152604080832080548251818502810185019093528083529193909284015b828210156127565760008481526020908190206040805160808101825260048602909201805483526001808201546001600160a01b0316848601526002820154928401929092526003015460ff161515606083015290835290920191016126f4565b505050509050919050565b60008181526005602052604090206006015460ff16156127c35760405162461bcd60e51b815260206004820152601b60248201527f4d61726b65743a206578697374696e6720636f6c6c656374696f6e0000000000604482015260640161039b565b60606040518060e001604052806127d960095490565b81526020808201859052336040808401919091528051808301825260008082526060808601929092528251808501845281815260808087019190915260a0808701899052600160c0909701879052898352600580875292859020885181558887015197810197909755938701516002870180546001600160a01b0319166001600160a01b03909216919091179055918601515160038601559085015151600485015590840151805161289393928501929190910190612b9d565b5060c091909101516006918201805491151560ff19928316179055336000818152602093845260408082208054600181810183559184528684200188905560098054845260078752828420899055938352600890955290208054909216831790915580549091019055604051339083907f18c1b1c8856053698af995ce4384c0f661562c52a65d6dd29b910849d5e1bfca90600090a35050565b6001546001600160a01b031633146129575760405162461bcd60e51b815260040161039b9061326b565b6001600160a01b0381166129bc5760405162461bcd60e51b815260206004820152602660248201527f4f776e61626c653a206e6577206f776e657220697320746865207a65726f206160448201526564647265737360d01b606482015260840161039b565b611209816129fa565b60006001600160e01b03198216630271189760e51b148061037257506301ffc9a760e01b6001600160e01b0319831614610372565b600180546001600160a01b038381166001600160a01b0319831681179093556040519116919082907f8be0079c531659141344cd1fd0a4f28419497f9722a3daafe3b4186f6b6457e090600090a35050565b805480612a9b5760405162461bcd60e51b815260206004820152601b60248201527f436f756e7465723a2064656372656d656e74206f766572666c6f770000000000604482015260640161039b565b600019019055565b6040518060e00160405280600081526020016000815260200160006001600160a01b03168152602001612ae26040518060200160405280600081525090565b8152602001612afd6040518060200160405280600081525090565b815260606020820152600060409091015290565b60405180610100016040528060008152602001600081526020016000815260200160006001600160a01b0316815260200160006001600160a01b03168152602001612b686040518060200160405280600081525090565b815260006020820181905260409091015290565b50805460008255600402906000526020600020908101906112099190612be8565b828054828255906000526020600020908101928215612bd8579160200282015b82811115612bd8578251825591602001919060010190612bbd565b50612be4929150612c21565b5090565b5b80821115612be45760008082556001820180546001600160a01b0319169055600282015560038101805460ff19169055600401612be9565b5b80821115612be45760008155600101612c22565b80356001600160a01b0381168114612c4d57600080fd5b919050565b600082601f830112612c62578081fd5b813560206001600160401b03821115612c7d57612c7d6133ae565b8160051b612c8c8282016132d7565b838152828101908684018388018501891015612ca6578687fd5b8693505b85841015612cc8578035835260019390930192918401918401612caa565b50979650505050505050565b600082601f830112612ce4578081fd5b81356001600160401b03811115612cfd57612cfd6133ae565b612d10601f8201601f19166020016132d7565b818152846020838601011115612d24578283fd5b816020850160208301379081016020019190915292915050565b600060208284031215612d4f578081fd5b612d5882612c36565b9392505050565b600080600080600060a08688031215612d76578081fd5b612d7f86612c36565b9450612d8d60208701612c36565b935060408601356001600160401b0380821115612da8578283fd5b612db489838a01612c52565b94506060880135915080821115612dc9578283fd5b612dd589838a01612c52565b93506080880135915080821115612dea578283fd5b50612df788828901612cd4565b9150509295509295909350565b600080600080600060a08688031215612e1b578081fd5b612e2486612c36565b9450612e3260208701612c36565b9350604086013592506060860135915060808601356001600160401b03811115612e5a578182fd5b612df788828901612cd4565b600060208284031215612e77578081fd5b81356001600160e01b031981168114612d58578182fd5b600060208284031215612e9f578081fd5b5035919050565b60008060408385031215612eb8578182fd5b50508035926020909101359150565b60008060408385031215612ed9578182fd5b82359150602083013560ff81168114612ef0578182fd5b809150509250929050565b600082825180855260208086019550808260051b840101818601855b84811015612f4557601f19868403018952612f33838351612f52565b98840198925090830190600101612f17565b5090979650505050505050565b6000815180845260208085019450808401835b83811015612fe0578151805188528381015184890152604080820151908901526060808201516001600160a01b03908116918a01919091526080808301519091169089015260a080820151519089015260c08082015115159089015260e0908101511515908801526101009096019590820190600101612f65565b509495945050505050565b600360fc1b815260008251613007816001850160208701613336565b9190910160010192915050565b7f68747470733a2f2f697066732e696f2f697066732f663031353531323230000081526000825161304c81601e850160208701613336565b91909101601e0192915050565b60006060808301818452808751808352608092508286019150828160051b8701016020808b01875b8481101561312657898403607f1901865281518051855283810151848601526040808201516001600160a01b03169086015288810151518986015287810151518886015260a08082015160e09187018290528051918701829052610100870191908601908c5b81811015613103578251845292870192918701916001016130e7565b50505060c091820151151595909101949094529482019490820190600101613081565b505087820390880152613139818a612efb565b94505050505082810360408401526131518185612f52565b9695505050505050565b602080825282518282018190526000919060409081850190868401855b828110156131bd57815180518552868101516001600160a01b031687860152858101518686015260609081015115159085015260809093019290850190600101613178565b5091979650505050505050565b60208152600082518060208401526131e9816040850160208701613336565b601f01601f19169190910160400192915050565b6020808252601a908201527f4d61726b65743a20746f6b656e206e6f7420666f722073616c65000000000000604082015260600190565b6020808252601a908201527f4d61726b65743a206e6f74206578697374696e6720746f6b656e000000000000604082015260600190565b6020808252818101527f4f776e61626c653a2063616c6c6572206973206e6f7420746865206f776e6572604082015260600190565b6020808252601f908201527f5265656e7472616e637947756172643a207265656e7472616e742063616c6c00604082015260600190565b604051601f8201601f191681016001600160401b03811182821017156132ff576132ff6133ae565b604052919050565b6000821982111561331a5761331a613398565b500190565b60008282101561333157613331613398565b500390565b60005b83811015613351578181015183820152602001613339565b83811115613360576000848401525b50505050565b60008161337557613375613398565b506000190190565b600060001982141561339157613391613398565b5060010190565b634e487b7160e01b600052601160045260246000fd5b634e487b7160e01b600052604160045260246000fdfea264697066735822122095be82e37a83a0bdc217209727ebfa47a7685788244a38b5e8b772d5c21020bc64736f6c63430008040033",
  "linkReferences": {},
  "deployedLinkReferences": {}
}