{
  "_format": "hh-sol-artifact-1",
  "contractName": "Market",
  "sourceName": "contracts/Market.sol",
  "abi": [
    {
      "inputs": [
        {
          "internalType": "address",
          "name": "_token",
          "type": "address"
        }
      ],
      "stateMutability": "nonpayable",
      "type": "constructor"
    },
    {
      "anonymous": false,
      "inputs": [
        {
          "indexed": true,
          "internalType": "uint256",
          "name": "collectionId",
          "type": "uint256"
        },
        {
          "indexed": true,
          "internalType": "address",
          "name": "owner",
          "type": "address"
        }
      ],
      "name": "CollectionCreated",
      "type": "event"
    },
    {
      "anonymous": false,
      "inputs": [
        {
          "indexed": true,
          "internalType": "address",
          "name": "seller",
          "type": "address"
        },
        {
          "indexed": true,
          "internalType": "address",
          "name": "buyer",
          "type": "address"
        },
        {
          "indexed": false,
          "internalType": "uint256",
          "name": "tokenId",
          "type": "uint256"
        },
        {
          "indexed": false,
          "internalType": "uint256",
          "name": "price",
          "type": "uint256"
        }
      ],
      "name": "OfferAccepted",
      "type": "event"
    },
    {
      "anonymous": false,
      "inputs": [
        {
          "indexed": true,
          "internalType": "address",
          "name": "offeror",
          "type": "address"
        },
        {
          "indexed": true,
          "internalType": "address",
          "name": "seller",
          "type": "address"
        },
        {
          "indexed": false,
          "internalType": "uint256",
          "name": "tokenId",
          "type": "uint256"
        },
        {
          "indexed": false,
          "internalType": "uint256",
          "name": "price",
          "type": "uint256"
        }
      ],
      "name": "OfferCreated",
      "type": "event"
    },
    {
      "anonymous": false,
      "inputs": [
        {
          "indexed": true,
          "internalType": "address",
          "name": "previousOwner",
          "type": "address"
        },
        {
          "indexed": true,
          "internalType": "address",
          "name": "newOwner",
          "type": "address"
        }
      ],
      "name": "OwnershipTransferred",
      "type": "event"
    },
    {
      "anonymous": false,
      "inputs": [
        {
          "indexed": true,
          "internalType": "address",
          "name": "seller",
          "type": "address"
        },
        {
          "indexed": false,
          "internalType": "uint256",
          "name": "tokenId",
          "type": "uint256"
        }
      ],
      "name": "TokenListedForSale",
      "type": "event"
    },
    {
      "anonymous": false,
      "inputs": [
        {
          "indexed": true,
          "internalType": "uint256",
          "name": "collectionId",
          "type": "uint256"
        },
        {
          "indexed": true,
          "internalType": "uint256",
          "name": "tokenId",
          "type": "uint256"
        },
        {
          "indexed": false,
          "internalType": "uint256",
          "name": "price",
          "type": "uint256"
        },
        {
          "indexed": false,
          "internalType": "address",
          "name": "seller",
          "type": "address"
        }
      ],
      "name": "TokenMinted",
      "type": "event"
    },
    {
      "anonymous": false,
      "inputs": [
        {
          "indexed": true,
          "internalType": "address",
          "name": "buyer",
          "type": "address"
        },
        {
          "indexed": true,
          "internalType": "address",
          "name": "seller",
          "type": "address"
        },
        {
          "indexed": false,
          "internalType": "uint256",
          "name": "collectionId",
          "type": "uint256"
        },
        {
          "indexed": false,
          "internalType": "uint256",
          "name": "tokenId",
          "type": "uint256"
        },
        {
          "indexed": false,
          "internalType": "uint256",
          "name": "price",
          "type": "uint256"
        }
      ],
      "name": "TokenSold",
      "type": "event"
    },
    {
      "inputs": [
        {
          "internalType": "uint256",
          "name": "_tokenId",
          "type": "uint256"
        },
        {
          "internalType": "uint256",
          "name": "_offerId",
          "type": "uint256"
        }
      ],
      "name": "acceptOffer",
      "outputs": [],
      "stateMutability": "nonpayable",
      "type": "function"
    },
    {
      "inputs": [
        {
          "internalType": "uint256",
          "name": "_tokenId",
          "type": "uint256"
        },
        {
          "internalType": "uint256",
          "name": "_collectionId",
          "type": "uint256"
        }
      ],
      "name": "buyToken",
      "outputs": [],
      "stateMutability": "payable",
      "type": "function"
    },
    {
      "inputs": [
        {
          "internalType": "uint256",
          "name": "_collectionId",
          "type": "uint256"
        }
      ],
      "name": "createCollection",
      "outputs": [],
      "stateMutability": "payable",
      "type": "function"
    },
    {
      "inputs": [],
      "name": "fetchMarketCollections",
      "outputs": [
        {
          "components": [
            {
              "internalType": "uint256",
              "name": "index",
              "type": "uint256"
            },
            {
              "internalType": "uint256",
              "name": "id",
              "type": "uint256"
            },
            {
              "internalType": "address",
              "name": "owner",
              "type": "address"
            },
            {
              "components": [
                {
                  "internalType": "uint256",
                  "name": "_value",
                  "type": "uint256"
                }
              ],
              "internalType": "struct Counters.Counter",
              "name": "tokensCount",
              "type": "tuple"
            },
            {
              "components": [
                {
                  "internalType": "uint256",
                  "name": "_value",
                  "type": "uint256"
                }
              ],
              "internalType": "struct Counters.Counter",
              "name": "tokensSold",
              "type": "tuple"
            },
            {
              "internalType": "uint256[]",
              "name": "tokensIds",
              "type": "uint256[]"
            },
            {
              "internalType": "bool",
              "name": "exists",
              "type": "bool"
            }
          ],
          "internalType": "struct Market.Collection[]",
          "name": "",
          "type": "tuple[]"
        },
        {
          "components": [
            {
              "internalType": "uint256",
              "name": "index",
              "type": "uint256"
            },
            {
              "internalType": "uint256",
              "name": "id",
              "type": "uint256"
            },
            {
              "internalType": "uint256",
              "name": "price",
              "type": "uint256"
            },
            {
              "internalType": "address payable",
              "name": "seller",
              "type": "address"
            },
            {
              "internalType": "address",
              "name": "owner",
              "type": "address"
            },
            {
              "components": [
                {
                  "internalType": "uint256",
                  "name": "_value",
                  "type": "uint256"
                }
              ],
              "internalType": "struct Counters.Counter",
              "name": "offersCount",
              "type": "tuple"
            },
            {
              "internalType": "bool",
              "name": "exists",
              "type": "bool"
            }
          ],
          "internalType": "struct Market.Token[][]",
          "name": "",
          "type": "tuple[][]"
        },
        {
          "components": [
            {
              "internalType": "uint256",
              "name": "index",
              "type": "uint256"
            },
            {
              "internalType": "uint256",
              "name": "id",
              "type": "uint256"
            },
            {
              "internalType": "uint256",
              "name": "price",
              "type": "uint256"
            },
            {
              "internalType": "address payable",
              "name": "seller",
              "type": "address"
            },
            {
              "internalType": "address",
              "name": "owner",
              "type": "address"
            },
            {
              "components": [
                {
                  "internalType": "uint256",
                  "name": "_value",
                  "type": "uint256"
                }
              ],
              "internalType": "struct Counters.Counter",
              "name": "offersCount",
              "type": "tuple"
            },
            {
              "internalType": "bool",
              "name": "exists",
              "type": "bool"
            }
          ],
          "internalType": "struct Market.Token[]",
          "name": "",
          "type": "tuple[]"
        }
      ],
      "stateMutability": "view",
      "type": "function"
    },
    {
      "inputs": [],
      "name": "fetchOwnersCollections",
      "outputs": [
        {
          "components": [
            {
              "internalType": "uint256",
              "name": "index",
              "type": "uint256"
            },
            {
              "internalType": "uint256",
              "name": "id",
              "type": "uint256"
            },
            {
              "internalType": "address",
              "name": "owner",
              "type": "address"
            },
            {
              "components": [
                {
                  "internalType": "uint256",
                  "name": "_value",
                  "type": "uint256"
                }
              ],
              "internalType": "struct Counters.Counter",
              "name": "tokensCount",
              "type": "tuple"
            },
            {
              "components": [
                {
                  "internalType": "uint256",
                  "name": "_value",
                  "type": "uint256"
                }
              ],
              "internalType": "struct Counters.Counter",
              "name": "tokensSold",
              "type": "tuple"
            },
            {
              "internalType": "uint256[]",
              "name": "tokensIds",
              "type": "uint256[]"
            },
            {
              "internalType": "bool",
              "name": "exists",
              "type": "bool"
            }
          ],
          "internalType": "struct Market.Collection[]",
          "name": "",
          "type": "tuple[]"
        },
        {
          "components": [
            {
              "internalType": "uint256",
              "name": "index",
              "type": "uint256"
            },
            {
              "internalType": "uint256",
              "name": "id",
              "type": "uint256"
            },
            {
              "internalType": "uint256",
              "name": "price",
              "type": "uint256"
            },
            {
              "internalType": "address payable",
              "name": "seller",
              "type": "address"
            },
            {
              "internalType": "address",
              "name": "owner",
              "type": "address"
            },
            {
              "components": [
                {
                  "internalType": "uint256",
                  "name": "_value",
                  "type": "uint256"
                }
              ],
              "internalType": "struct Counters.Counter",
              "name": "offersCount",
              "type": "tuple"
            },
            {
              "internalType": "bool",
              "name": "exists",
              "type": "bool"
            }
          ],
          "internalType": "struct Market.Token[][]",
          "name": "",
          "type": "tuple[][]"
        },
        {
          "components": [
            {
              "internalType": "uint256",
              "name": "index",
              "type": "uint256"
            },
            {
              "internalType": "uint256",
              "name": "id",
              "type": "uint256"
            },
            {
              "internalType": "uint256",
              "name": "price",
              "type": "uint256"
            },
            {
              "internalType": "address payable",
              "name": "seller",
              "type": "address"
            },
            {
              "internalType": "address",
              "name": "owner",
              "type": "address"
            },
            {
              "components": [
                {
                  "internalType": "uint256",
                  "name": "_value",
                  "type": "uint256"
                }
              ],
              "internalType": "struct Counters.Counter",
              "name": "offersCount",
              "type": "tuple"
            },
            {
              "internalType": "bool",
              "name": "exists",
              "type": "bool"
            }
          ],
          "internalType": "struct Market.Token[]",
          "name": "",
          "type": "tuple[]"
        }
      ],
      "stateMutability": "view",
      "type": "function"
    },
    {
      "inputs": [
        {
          "internalType": "uint256",
          "name": "_tokenId",
          "type": "uint256"
        }
      ],
      "name": "fetchTokenOffers",
      "outputs": [
        {
          "components": [
            {
              "internalType": "address payable",
              "name": "offeror",
              "type": "address"
            },
            {
              "internalType": "uint256",
              "name": "price",
              "type": "uint256"
            },
            {
              "internalType": "bool",
              "name": "exists",
              "type": "bool"
            }
          ],
          "internalType": "struct Market.Offer[]",
          "name": "",
          "type": "tuple[]"
        }
      ],
      "stateMutability": "view",
      "type": "function"
    },
    {
      "inputs": [
        {
          "internalType": "uint256",
          "name": "_tokenId",
          "type": "uint256"
        }
      ],
      "name": "listTokenForSale",
      "outputs": [],
      "stateMutability": "nonpayable",
      "type": "function"
    },
    {
      "inputs": [
        {
          "internalType": "uint256",
          "name": "_tokenId",
          "type": "uint256"
        }
      ],
      "name": "makeOffer",
      "outputs": [],
      "stateMutability": "payable",
      "type": "function"
    },
    {
      "inputs": [
        {
          "internalType": "uint256",
          "name": "_tokenId",
          "type": "uint256"
        },
        {
          "internalType": "uint256",
          "name": "_collectionId",
          "type": "uint256"
        }
      ],
      "name": "mintToken",
      "outputs": [],
      "stateMutability": "payable",
      "type": "function"
    },
    {
      "inputs": [
        {
          "internalType": "address",
          "name": "",
          "type": "address"
        },
        {
          "internalType": "address",
          "name": "",
          "type": "address"
        },
        {
          "internalType": "uint256[]",
          "name": "",
          "type": "uint256[]"
        },
        {
          "internalType": "uint256[]",
          "name": "",
          "type": "uint256[]"
        },
        {
          "internalType": "bytes",
          "name": "",
          "type": "bytes"
        }
      ],
      "name": "onERC1155BatchReceived",
      "outputs": [
        {
          "internalType": "bytes4",
          "name": "",
          "type": "bytes4"
        }
      ],
      "stateMutability": "nonpayable",
      "type": "function"
    },
    {
      "inputs": [
        {
          "internalType": "address",
          "name": "",
          "type": "address"
        },
        {
          "internalType": "address",
          "name": "",
          "type": "address"
        },
        {
          "internalType": "uint256",
          "name": "",
          "type": "uint256"
        },
        {
          "internalType": "uint256",
          "name": "",
          "type": "uint256"
        },
        {
          "internalType": "bytes",
          "name": "",
          "type": "bytes"
        }
      ],
      "name": "onERC1155Received",
      "outputs": [
        {
          "internalType": "bytes4",
          "name": "",
          "type": "bytes4"
        }
      ],
      "stateMutability": "nonpayable",
      "type": "function"
    },
    {
      "inputs": [],
      "name": "owner",
      "outputs": [
        {
          "internalType": "address",
          "name": "",
          "type": "address"
        }
      ],
      "stateMutability": "view",
      "type": "function"
    },
    {
      "inputs": [],
      "name": "renounceOwnership",
      "outputs": [],
      "stateMutability": "nonpayable",
      "type": "function"
    },
    {
      "inputs": [
        {
          "internalType": "bytes4",
          "name": "interfaceId",
          "type": "bytes4"
        }
      ],
      "name": "supportsInterface",
      "outputs": [
        {
          "internalType": "bool",
          "name": "",
          "type": "bool"
        }
      ],
      "stateMutability": "view",
      "type": "function"
    },
    {
      "inputs": [
        {
          "internalType": "address",
          "name": "newOwner",
          "type": "address"
        }
      ],
      "name": "transferOwnership",
      "outputs": [],
      "stateMutability": "nonpayable",
      "type": "function"
    },
    {
      "inputs": [
        {
          "internalType": "uint256",
          "name": "i",
          "type": "uint256"
        }
      ],
      "name": "uint2hexstr",
      "outputs": [
        {
          "internalType": "string",
          "name": "",
          "type": "string"
        }
      ],
      "stateMutability": "pure",
      "type": "function"
    },
    {
      "inputs": [
        {
          "internalType": "uint256",
          "name": "_Id",
          "type": "uint256"
        }
      ],
      "name": "uri",
      "outputs": [
        {
          "internalType": "string",
          "name": "",
          "type": "string"
        }
      ],
      "stateMutability": "pure",
      "type": "function"
    },
    {
      "inputs": [],
      "name": "withdraw",
      "outputs": [],
      "stateMutability": "nonpayable",
      "type": "function"
    }
  ],
  "bytecode": "0x608060405260006003556611c37937e080006004553480156200002157600080fd5b506040516200319e3803806200319e8339810160408190526200004491620000cc565b600160005562000054336200007a565b600280546001600160a01b0319166001600160a01b0392909216919091179055620000fc565b600180546001600160a01b038381166001600160a01b0319831681179093556040519116919082907f8be0079c531659141344cd1fd0a4f28419497f9722a3daafe3b4186f6b6457e090600090a35050565b600060208284031215620000de578081fd5b81516001600160a01b0381168114620000f5578182fd5b9392505050565b613092806200010c6000396000f3fe6080604052600436106101095760003560e01c80637fff4f7f11610095578063bc197c8111610064578063bc197c8114610296578063bfe2bb00146102db578063d0011d9d14610308578063f23a6e611461031b578063f2fde38b1461034757600080fd5b80637fff4f7f1461022657806381257bd51461023b5780638da5cb5b1461025b5780639a2f64741461028357600080fd5b806320cbf5f9116100dc57806320cbf5f9146101a95780633c93d8be146101bc5780633ccfd60b146101dc5780634d8e2188146101f1578063715018a61461021157600080fd5b806301ffc9a71461010e578063057466ea146101435780630e89341c1461015857806316c393bb14610185575b600080fd5b34801561011a57600080fd5b5061012e610129366004612b73565b610367565b60405190151581526020015b60405180910390f35b610156610151366004612bb3565b610378565b005b34801561016457600080fd5b50610178610173366004612b9b565b61070f565b60405161013a9190612e62565b34801561019157600080fd5b5061019a610746565b60405161013a93929190612cfc565b6101566101b7366004612bb3565b610e4a565b3480156101c857600080fd5b506101786101d7366004612b9b565b611087565b3480156101e857600080fd5b506101566111b3565b3480156101fd57600080fd5b5061015661020c366004612b9b565b61128b565b34801561021d57600080fd5b50610156611486565b34801561023257600080fd5b5061019a6114bc565b34801561024757600080fd5b50610156610256366004612bb3565b611c4e565b34801561026757600080fd5b506001546040516001600160a01b03909116815260200161013a565b610156610291366004612b9b565b612233565b3480156102a257600080fd5b506102c26102b1366004612a6c565b63bc197c8160e01b95945050505050565b6040516001600160e01b0319909116815260200161013a565b3480156102e757600080fd5b506102fb6102f6366004612b9b565b612442565b60405161013a9190612dfe565b610156610316366004612b9b565b6124dc565b34801561032757600080fd5b506102c2610336366004612b11565b63f23a6e6160e01b95945050505050565b34801561035357600080fd5b50610156610362366004612a4b565b6126a0565b600061037282612738565b92915050565b600260005414156103a45760405162461bcd60e51b815260040161039b90612f38565b60405180910390fd5b60026000908155828152600a602052604090206006015460ff1615156001146103df5760405162461bcd60e51b815260040161039b90612ecc565b6000828152600a60205260409020600301546001600160a01b031661043b5760405162461bcd60e51b815260206004820152601260248201527113585c9ad95d0e881d1bdad95b881cdbdb1960721b604482015260640161039b565b6000828152600a60205260409020600401546001600160a01b0316156104735760405162461bcd60e51b815260040161039b90612e95565b6000828152600a60205260409020600301546001600160a01b03163314156104dd5760405162461bcd60e51b815260206004820152601960248201527f4d61726b65743a20796f75206f776e2074686520746f6b656e00000000000000604482015260640161039b565b6000828152600a6020526040902060020154341461053d5760405162461bcd60e51b815260206004820152601a60248201527f4d61726b65743a20616d6f756e74206e6f7420636f7272656374000000000000604482015260640161039b565b6002546000838152600a6020526040908190206003015490516323b872dd60e01b81526001600160a01b039182166004820152336024820152604481018590529116906323b872dd90606401600060405180830381600087803b1580156105a357600080fd5b505af11580156105b7573d6000803e3d6000fd5b5050506000838152600a60205260408082206003015490516001600160a01b0390911692503480156108fc0292909190818181858888f19350505050158015610604573d6000803e3d6000fd5b50600081815260056020526040902060040180546001019055600e8054600181019091557fbb7b4a454dc3493923482f07822329ed19e8244eff582cc204f8554c3620c3fd018290556000828152600a602090815260408083206004810180546001600160a01b03199081163390811790925560028301869055600390920180549092169091558352600990915290206106a19080546001019055565b6000828152600a602090815260409182902060030154825184815291820185905234928201929092526001600160a01b039091169033907f9387a595ac4be9038bbb9751abad8baa3dcf219dd9e19abb81552bd521fe3546906060015b60405180910390a350506001600055565b6060600061071c83611087565b90508060405160200161072f9190612cb7565b604051602081830303815290604052915050919050565b3360009081526006602052604081205460609182918291816001600160401b0381111561078357634e487b7160e01b600052604160045260246000fd5b6040519080825280602002602001820160405280156107bc57816020015b6107a96127bf565b8152602001906001900390816107a15790505b5090506000826001600160401b038111156107e757634e487b7160e01b600052604160045260246000fd5b60405190808252806020026020018201604052801561081a57816020015b60608152602001906001900390816108055790505b50905060005b83811015610c085733600090815260066020526040812080548390811061085757634e487b7160e01b600052603260045260246000fd5b60009182526020808320909101548083526005808352604093849020845160e0810186528154815260018201548186015260028201546001600160a01b031681870152855180860187526003830154815260608201528551808601875260048301548152608082015291810180548651818702810187019097528087529396509194909360a08601939192919083018282801561091357602002820191906000526020600020905b8154815260200190600101908083116108ff575b50505091835250506006919091015460ff161515602090910152845185908490811061094f57634e487b7160e01b600052603260045260246000fd5b6020026020010181905250610977600560008381526020019081526020016000206004015490565b6000828152600560205260409020600301546109939190612fb7565b6001600160401b038111156109b857634e487b7160e01b600052604160045260246000fd5b6040519080825280602002602001820160405280156109f157816020015b6109de61282d565b8152602001906001900390816109d65790505b50838381518110610a1257634e487b7160e01b600052603260045260246000fd5b6020026020010181905250600080858481518110610a4057634e487b7160e01b600052603260045260246000fd5b602002602001015160a0015151905060005b81811015610bf1576000878681518110610a7c57634e487b7160e01b600052603260045260246000fd5b602002602001015160a001518281518110610aa757634e487b7160e01b600052603260045260246000fd5b60200260200101519050878681518110610ad157634e487b7160e01b600052603260045260246000fd5b6020908102919091018101516040908101516000848152600a9093529120600301546001600160a01b0390811691161415610bde576000818152600a6020908152604091829020825160e0810184528154815260018201548184015260028201548185015260038201546001600160a01b039081166060830152600483015416608082015283519283019093526005810154825260a08301919091526006015460ff16151560c08201528751889088908110610b9d57634e487b7160e01b600052603260045260246000fd5b60200260200101518581518110610bc457634e487b7160e01b600052603260045260246000fd5b60200260200101819052508380610bda90613015565b9450505b5080610be981613015565b915050610a52565b505050508080610c0090613015565b915050610820565b503360009081526009602052604081205481906001600160401b03811115610c4057634e487b7160e01b600052604160045260246000fd5b604051908082528060200260200182016040528015610c7957816020015b610c6661282d565b815260200190600190039081610c5e5790505b50905060005b600e54811015610e3b57336001600160a01b0316600a6000600e8481548110610cb857634e487b7160e01b600052603260045260246000fd5b600091825260208083209091015483528201929092526040019020600401546001600160a01b03161480610d405750336001600160a01b0316600a6000600e8481548110610d1657634e487b7160e01b600052603260045260246000fd5b600091825260208083209091015483528201929092526040019020600301546001600160a01b0316145b15610e2957600a6000600e8381548110610d6a57634e487b7160e01b600052603260045260246000fd5b600091825260208083209091015483528281019390935260409182019020815160e0810183528154815260018201548185015260028201548184015260038201546001600160a01b039081166060830152600483015416608082015282519384019092526005810154835260a082019290925260069091015460ff16151560c08201528251839085908110610e0f57634e487b7160e01b600052603260045260246000fd5b60200260200101819052508280610e2590613015565b9350505b80610e3381613015565b915050610c7f565b50929791965091945092505050565b60026000541415610e6d5760405162461bcd60e51b815260040161039b90612f38565b600260009081558181526005602052604090206006015460ff161515600114610ed85760405162461bcd60e51b815260206004820152601760248201527f4e6f74206578697374696e6720636f6c6c656374696f6e000000000000000000604482015260640161039b565b6002546040516394bf804d60e01b8152600481018490523360248201526001600160a01b03909116906394bf804d90604401600060405180830381600087803b158015610f2457600080fd5b505af1158015610f38573d6000803e3d6000fd5b50505050610f4a600c80546001019055565b6040518060e00160405280610f5e600c5490565b8152602080820185905260048054604080850191909152336060808601829052600060808088018290528451808801865282815260a0808a0191909152600160c0998a018190528c8452600a89528684208b5181558b8a0151818301558b8801516002820155948b0151600380870180546001600160a01b03199081166001600160a01b0394851617909155948d0151878b018054909616921691909117909355908a01515160058086019190915599909801516006909301805460ff19169315159390931790925588815287865283812091820180548801905596018054958601815586529483902090930186905554825190815290810192909252839183917f0a20fc1c77df8b4a972d893c02c04cb24cbb841a0d8083766ae9806bd93ef02d91016106fe565b6060816110ab5750506040805180820190915260018152600360fc1b602082015290565b8160005b81156110ce57806110bf81613015565b915050600482901c91506110af565b600f6000826001600160401b038111156110f857634e487b7160e01b600052604160045260246000fd5b6040519080825280601f01601f191660200182016040528015611122576020820181803683370190505b509050825b86156111a9578683166009811161114b57611143816030612f9f565b60f81b61115a565b611156816037612f9f565b60f81b5b8361116484612ffe565b9350838151811061118557634e487b7160e01b600052603260045260246000fd5b60200101906001600160f81b031916908160001a905350600488901c975050611127565b5095945050505050565b6001546001600160a01b031633146111dd5760405162461bcd60e51b815260040161039b90612f03565b6000600354476111ed9190612fb7565b1161123a5760405162461bcd60e51b815260206004820152601b60248201527f4d61726b65743a206e6f7468696e6720746f2077697468647261770000000000604482015260640161039b565b6001546001600160a01b03166001600160a01b03166108fc600354476112609190612fb7565b6040518115909202916000818181858888f19350505050158015611288573d6000803e3d6000fd5b50565b600260005414156112ae5760405162461bcd60e51b815260040161039b90612f38565b60026000908155818152600a60205260409020600301546001600160a01b03161561131b5760405162461bcd60e51b815260206004820152601e60248201527f4d61726b65743a20746f6b656e20616c726561647920666f722073616c650000604482015260640161039b565b6000818152600a602052604090206006015460ff1615156001146113515760405162461bcd60e51b815260040161039b90612ecc565b6000818152600a60205260409020600401546001600160a01b031633146113ba5760405162461bcd60e51b815260206004820152601d60248201527f4d61726b65743a20796f7520617265206e6f7420746865206f776e6572000000604482015260640161039b565b6000818152600a602052604090819020600381018054336001600160a01b03199182161790915560049182018054909116905560025491516337519c1960e21b81529081018390526001600160a01b039091169063dd46706490602401600060405180830381600087803b15801561143157600080fd5b505af1158015611445573d6000803e3d6000fd5b50506040518381523392507fe7a2b047c5d5fd3ff0721e4154639da2164288ce6a790793f559d59dc879af67915060200160405180910390a2506001600055565b6001546001600160a01b031633146114b05760405162461bcd60e51b815260040161039b90612f03565b6114ba600061276d565b565b606080606060006114cc600d5490565b905060006114d9600d5490565b3360009081526008602052604090205490915060ff1615156001141561151657336000908152600660205260409020546115139082612fb7565b90505b6000816001600160401b0381111561153e57634e487b7160e01b600052604160045260246000fd5b60405190808252806020026020018201604052801561157757816020015b6115646127bf565b81526020019060019003908161155c5790505b5090506000826001600160401b038111156115a257634e487b7160e01b600052604160045260246000fd5b6040519080825280602002602001820160405280156115d557816020015b60608152602001906001900390816115c05790505b5090506000805b858110156119fa5760006007816115f4846001612f9f565b81526020808201929092526040908101600090812054808252600590935220600201549091506001600160a01b031633146119e757600081815260056020818152604092839020835160e0810185528154815260018201548184015260028201546001600160a01b031681860152845180840186526003830154815260608201528451808401865260048301548152608082015292810180548551818502810185019096528086529394919360a08601938301828280156116d457602002820191906000526020600020905b8154815260200190600101908083116116c0575b50505091835250506006919091015460ff161515602090910152855186908590811061171057634e487b7160e01b600052603260045260246000fd5b6020026020010181905250611738600560008381526020019081526020016000206004015490565b6000828152600560205260409020600301546117549190612fb7565b6001600160401b0381111561177957634e487b7160e01b600052604160045260246000fd5b6040519080825280602002602001820160405280156117b257816020015b61179f61282d565b8152602001906001900390816117975790505b508484815181106117d357634e487b7160e01b600052603260045260246000fd5b602002602001018190525060008086848151811061180157634e487b7160e01b600052603260045260246000fd5b602002602001015160a0015151905060005b818110156119d657600088868151811061183d57634e487b7160e01b600052603260045260246000fd5b602002602001015160a00151828151811061186857634e487b7160e01b600052603260045260246000fd5b6020026020010151905088868151811061189257634e487b7160e01b600052603260045260246000fd5b6020908102919091018101516040908101516000848152600a9093529120600301546001600160a01b0390811691161480156118e657506000818152600a60205260409020600401546001600160a01b0316155b156119c3576000818152600a6020908152604091829020825160e0810184528154815260018201548184015260028201548185015260038201546001600160a01b039081166060830152600483015416608082015283519283019093526005810154825260a08301919091526006015460ff16151560c0820152885189908990811061198257634e487b7160e01b600052603260045260246000fd5b602002602001015185815181106119a957634e487b7160e01b600052603260045260246000fd5b602002602001018190525083806119bf90613015565b9450505b50806119ce81613015565b915050611813565b50846119e181613015565b95505050505b50806119f281613015565b9150506115dc565b5033600090815260096020526040812054600e548291611a1991612fb7565b6001600160401b03811115611a3e57634e487b7160e01b600052604160045260246000fd5b604051908082528060200260200182016040528015611a7757816020015b611a6461282d565b815260200190600190039081611a5c5790505b50905060005b600e54811015611c3c57336001600160a01b0316600a6000600e8481548110611ab657634e487b7160e01b600052603260045260246000fd5b600091825260208083209091015483528201929092526040019020600401546001600160a01b031614801590611b415750336001600160a01b0316600a6000600e8481548110611b1657634e487b7160e01b600052603260045260246000fd5b600091825260208083209091015483528201929092526040019020600301546001600160a01b031614155b15611c2a57600a6000600e8381548110611b6b57634e487b7160e01b600052603260045260246000fd5b600091825260208083209091015483528281019390935260409182019020815160e0810183528154815260018201548185015260028201548184015260038201546001600160a01b039081166060830152600483015416608082015282519384019092526005810154835260a082019290925260069091015460ff16151560c08201528251839085908110611c1057634e487b7160e01b600052603260045260246000fd5b60200260200101819052508280611c2690613015565b9350505b80611c3481613015565b915050611a7d565b50939992985092965090945050505050565b60026000541415611c715760405162461bcd60e51b815260040161039b90612f38565b60026000908155828152600a602052604090206006015460ff161515600114611cac5760405162461bcd60e51b815260040161039b90612ecc565b6000828152600a60205260409020600401546001600160a01b031615611d095760405162461bcd60e51b815260206004820152601260248201527113585c9ad95d0e881d1bdad95b881cdbdb1960721b604482015260640161039b565b6000828152600a60205260409020600301546001600160a01b03163314611d725760405162461bcd60e51b815260206004820152601960248201527f4d61726b65743a206e6f74206120746f6b656e206f776e657200000000000000604482015260640161039b565b6000828152600b60205260409020805482908110611da057634e487b7160e01b600052603260045260246000fd5b600091825260209091206002600390920201015460ff161515600114611e085760405162461bcd60e51b815260206004820152601a60248201527f4d61726b65743a206e6f74206578697374696e67206f66666572000000000000604482015260640161039b565b6000828152600b60205260408120805483908110611e3657634e487b7160e01b600052603260045260246000fd5b60009182526020808320600390920290910154858352600b9091526040822080546001600160a01b0390921693509084908110611e8357634e487b7160e01b600052603260045260246000fd5b6000918252602090912060039091020160010154600254604051636198e33960e01b8152600481018790529192506001600160a01b031690636198e33990602401600060405180830381600087803b158015611ede57600080fd5b505af1158015611ef2573d6000803e3d6000fd5b50506002546000878152600a6020526040908190206003015490516323b872dd60e01b81526001600160a01b039182166004820152868216602482015260448101899052911692506323b872dd9150606401600060405180830381600087803b158015611f5e57600080fd5b505af1158015611f72573d6000803e3d6000fd5b5050506000858152600b60205260409020805490915084908110611fa657634e487b7160e01b600052603260045260246000fd5b90600052602060002090600302016001015460036000828254611fc99190612fb7565b90915550506000848152600b60205260409020805433916108fc918690811061200257634e487b7160e01b600052603260045260246000fd5b9060005260206000209060030201600101549081150290604051600060405180830381858888f1935050505015801561203f573d6000803e3d6000fd5b506000848152600a602052604081206004810180546001600160a01b031990811633179091556003909101805490911690555b6000858152600a60205260409020600501548110156121b8578381146121a6576000858152600b602052604090208054829081106120c057634e487b7160e01b600052603260045260246000fd5b906000526020600020906003020160010154600360008282546120e39190612fb7565b90915550506000858152600b6020526040902080548290811061211657634e487b7160e01b600052603260045260246000fd5b60009182526020808320600390920290910154878352600b909152604090912080546001600160a01b03909216916108fc91908490811061216757634e487b7160e01b600052603260045260246000fd5b9060005260206000209060030201600101549081150290604051600060405180830381858888f193505050501580156121a4573d6000803e3d6000fd5b505b806121b081613015565b915050612072565b506000848152600b602052604081206121d091612890565b6000848152600a602052604081206005015560408051858152602081018390526001600160a01b0384169133917fa6da490df6e8f0e592e795b4d96c5810d8ddfda51c21577adbdd8e1a0fa47a67910160405180910390a3505060016000555050565b6000818152600a602052604090206006015460ff1615156001146122695760405162461bcd60e51b815260040161039b90612ecc565b6000818152600a60205260409020600301546001600160a01b03166122a05760405162461bcd60e51b815260040161039b90612e95565b6000818152600a60205260409020600401546001600160a01b0316156122d85760405162461bcd60e51b815260040161039b90612e95565b6000341161233d5760405162461bcd60e51b815260206004820152602c60248201527f4d61726b65743a206f66666572207072696365206d757374206265206174206c60448201526b65617374206f6e652077656960a01b606482015260840161039b565b6000818152600b602090815260408083208151606081018352338152348185019081526001828501818152845480830186559488528688209351600390950290930180546001600160a01b0319166001600160a01b0390951694909417845590518382015590516002909201805460ff191692151592909217909155848452600a9092529091206005018054909101905534600360008282546123e09190612f9f565b90915550506000818152600a602090815260409182902060030154825184815234928101929092526001600160a01b03169133917f1e1a944902b7d587d9352b556127d1316831a4c829cfc46cc2fcb10c8ab53822910160405180910390a350565b6060600b6000838152602001908152602001600020805480602002602001604051908101604052809291908181526020016000905b828210156124d1576000848152602090819020604080516060810182526003860290920180546001600160a01b031683526001808201548486015260029091015460ff161515918301919091529083529092019101612477565b505050509050919050565b60008181526005602052604090206006015460ff16156125345760405162461bcd60e51b815260206004820152601360248201527222bc34b9ba34b7339031b7b63632b1ba34b7b760691b604482015260640161039b565b6060612544600d80546001019055565b6040518060e00160405280612558600d5490565b81526020808201859052336040808401919091528051808301825260008082526060808601929092528251808501845281815260808087019190915260a0808701899052600160c0909701879052898352600580875292859020885181558887015197810197909755938701516002870180546001600160a01b0319166001600160a01b039092169190911790559186015151600386015590850151516004850155908401518051612612939285019291909101906128b1565b5060c091909101516006918201805491151560ff199283161790553360008181526020938452604080822080546001818101835591845286842001889055600d5483526007865281832088905583835260089095528082208054909416909417909255915184917f18c1b1c8856053698af995ce4384c0f661562c52a65d6dd29b910849d5e1bfca91a35050565b6001546001600160a01b031633146126ca5760405162461bcd60e51b815260040161039b90612f03565b6001600160a01b03811661272f5760405162461bcd60e51b815260206004820152602660248201527f4f776e61626c653a206e6577206f776e657220697320746865207a65726f206160448201526564647265737360d01b606482015260840161039b565b6112888161276d565b60006001600160e01b03198216630271189760e51b148061037257506301ffc9a760e01b6001600160e01b0319831614610372565b600180546001600160a01b038381166001600160a01b0319831681179093556040519116919082907f8be0079c531659141344cd1fd0a4f28419497f9722a3daafe3b4186f6b6457e090600090a35050565b6040518060e00160405280600081526020016000815260200160006001600160a01b031681526020016127fe6040518060200160405280600081525090565b81526020016128196040518060200160405280600081525090565b815260606020820152600060409091015290565b6040518060e0016040528060008152602001600081526020016000815260200160006001600160a01b0316815260200160006001600160a01b031681526020016128836040518060200160405280600081525090565b8152600060209091015290565b508054600082556003029060005260206000209081019061128891906128fc565b8280548282559060005260206000209081019282156128ec579160200282015b828111156128ec5782518255916020019190600101906128d1565b506128f892915061292e565b5090565b5b808211156128f85780546001600160a01b03191681556000600182015560028101805460ff191690556003016128fd565b5b808211156128f8576000815560010161292f565b80356001600160a01b038116811461295a57600080fd5b919050565b600082601f83011261296f578081fd5b813560206001600160401b0382111561298a5761298a613046565b8160051b612999828201612f6f565b8381528281019086840183880185018910156129b3578687fd5b8693505b858410156129d55780358352600193909301929184019184016129b7565b50979650505050505050565b600082601f8301126129f1578081fd5b81356001600160401b03811115612a0a57612a0a613046565b612a1d601f8201601f1916602001612f6f565b818152846020838601011115612a31578283fd5b816020850160208301379081016020019190915292915050565b600060208284031215612a5c578081fd5b612a6582612943565b9392505050565b600080600080600060a08688031215612a83578081fd5b612a8c86612943565b9450612a9a60208701612943565b935060408601356001600160401b0380821115612ab5578283fd5b612ac189838a0161295f565b94506060880135915080821115612ad6578283fd5b612ae289838a0161295f565b93506080880135915080821115612af7578283fd5b50612b04888289016129e1565b9150509295509295909350565b600080600080600060a08688031215612b28578081fd5b612b3186612943565b9450612b3f60208701612943565b9350604086013592506060860135915060808601356001600160401b03811115612b67578182fd5b612b04888289016129e1565b600060208284031215612b84578081fd5b81356001600160e01b031981168114612a65578182fd5b600060208284031215612bac578081fd5b5035919050565b60008060408385031215612bc5578182fd5b50508035926020909101359150565b600082825180855260208086019550808260051b840101818601855b84811015612c1e57601f19868403018952612c0c838351612c2b565b98840198925090830190600101612bf0565b5090979650505050505050565b6000815180845260208085019450808401835b83811015612cac578151805188528381015184890152604080820151908901526060808201516001600160a01b03908116918a01919091526080808301519091169089015260a080820151519089015260c09081015115159088015260e09096019590820190600101612c3e565b509495945050505050565b7f68747470733a2f2f697066732e696f2f697066732f6630313535313232300000815260008251612cef81601e850160208701612fce565b91909101601e0192915050565b60006060808301818452808751808352608092508286019150828160051b8701016020808b01875b84811015612dc957898403607f1901865281518051855283810151848601526040808201516001600160a01b03169086015288810151518986015287810151518886015260a08082015160e09187018290528051918701829052610100870191908601908c5b81811015612da657825184529287019291870191600101612d8a565b50505060c091820151151595909101949094529482019490820190600101612d24565b505087820390880152612ddc818a612bd4565b9450505050508281036040840152612df48185612c2b565b9695505050505050565b602080825282518282018190526000919060409081850190868401855b82811015612e5557815180516001600160a01b03168552868101518786015285015115158585015260609093019290850190600101612e1b565b5091979650505050505050565b6020815260008251806020840152612e81816040850160208701612fce565b601f01601f19169190910160400192915050565b6020808252601a908201527f4d61726b65743a20746f6b656e206e6f7420666f722073616c65000000000000604082015260600190565b6020808252601a908201527f4d61726b65743a206e6f74206578697374696e6720746f6b656e000000000000604082015260600190565b6020808252818101527f4f776e61626c653a2063616c6c6572206973206e6f7420746865206f776e6572604082015260600190565b6020808252601f908201527f5265656e7472616e637947756172643a207265656e7472616e742063616c6c00604082015260600190565b604051601f8201601f191681016001600160401b0381118282101715612f9757612f97613046565b604052919050565b60008219821115612fb257612fb2613030565b500190565b600082821015612fc957612fc9613030565b500390565b60005b83811015612fe9578181015183820152602001612fd1565b83811115612ff8576000848401525b50505050565b60008161300d5761300d613030565b506000190190565b600060001982141561302957613029613030565b5060010190565b634e487b7160e01b600052601160045260246000fd5b634e487b7160e01b600052604160045260246000fdfea2646970667358221220915cb3143724e80f021a0b672329efa09d46c3c9f46b0be1c8941c3c76ac46da64736f6c63430008040033",
  "linkReferences": {},
  "deployedLinkReferences": {}
}