{
  "_format": "hh-sol-artifact-1",
  "contractName": "Market",
  "sourceName": "contracts/Market.sol",
  "abi": [
    {
      "inputs": [
        {
          "internalType": "address",
          "name": "_collection",
          "type": "address"
        },
        {
          "internalType": "address",
          "name": "_token",
          "type": "address"
        }
      ],
      "stateMutability": "nonpayable",
      "type": "constructor"
    },
    {
      "anonymous": false,
      "inputs": [
        {
          "indexed": true,
          "internalType": "address",
          "name": "owner",
          "type": "address"
        },
        {
          "indexed": false,
          "internalType": "uint256",
          "name": "collectionId",
          "type": "uint256"
        }
      ],
      "name": "CollectionCreated",
      "type": "event"
    },
    {
      "anonymous": false,
      "inputs": [
        {
          "indexed": true,
          "internalType": "address",
          "name": "seller",
          "type": "address"
        },
        {
          "indexed": true,
          "internalType": "address",
          "name": "buyer",
          "type": "address"
        },
        {
          "indexed": true,
          "internalType": "uint256",
          "name": "tokenId",
          "type": "uint256"
        },
        {
          "indexed": false,
          "internalType": "uint256",
          "name": "offerId",
          "type": "uint256"
        },
        {
          "indexed": false,
          "internalType": "uint256",
          "name": "price",
          "type": "uint256"
        }
      ],
      "name": "OfferAccepted",
      "type": "event"
    },
    {
      "anonymous": false,
      "inputs": [
        {
          "indexed": true,
          "internalType": "address",
          "name": "seller",
          "type": "address"
        },
        {
          "indexed": true,
          "internalType": "address",
          "name": "offeror",
          "type": "address"
        },
        {
          "indexed": true,
          "internalType": "uint256",
          "name": "tokenId",
          "type": "uint256"
        },
        {
          "indexed": false,
          "internalType": "uint256",
          "name": "offerId",
          "type": "uint256"
        },
        {
          "indexed": false,
          "internalType": "uint256",
          "name": "price",
          "type": "uint256"
        }
      ],
      "name": "OfferCreated",
      "type": "event"
    },
    {
      "anonymous": false,
      "inputs": [
        {
          "indexed": true,
          "internalType": "address",
          "name": "previousOwner",
          "type": "address"
        },
        {
          "indexed": true,
          "internalType": "address",
          "name": "newOwner",
          "type": "address"
        }
      ],
      "name": "OwnershipTransferred",
      "type": "event"
    },
    {
      "anonymous": false,
      "inputs": [
        {
          "indexed": true,
          "internalType": "address",
          "name": "seller",
          "type": "address"
        },
        {
          "indexed": true,
          "internalType": "uint256",
          "name": "tokenId",
          "type": "uint256"
        }
      ],
      "name": "TokenListedForSale",
      "type": "event"
    },
    {
      "anonymous": false,
      "inputs": [
        {
          "indexed": true,
          "internalType": "address",
          "name": "owner",
          "type": "address"
        },
        {
          "indexed": true,
          "internalType": "uint256",
          "name": "collectionId",
          "type": "uint256"
        },
        {
          "indexed": false,
          "internalType": "uint256",
          "name": "tokenId",
          "type": "uint256"
        },
        {
          "indexed": false,
          "internalType": "uint256",
          "name": "price",
          "type": "uint256"
        }
      ],
      "name": "TokenMinted",
      "type": "event"
    },
    {
      "anonymous": false,
      "inputs": [
        {
          "indexed": true,
          "internalType": "address",
          "name": "seller",
          "type": "address"
        },
        {
          "indexed": true,
          "internalType": "address",
          "name": "buyer",
          "type": "address"
        },
        {
          "indexed": true,
          "internalType": "uint256",
          "name": "tokenId",
          "type": "uint256"
        },
        {
          "indexed": false,
          "internalType": "uint256",
          "name": "collectionId",
          "type": "uint256"
        },
        {
          "indexed": false,
          "internalType": "uint256",
          "name": "price",
          "type": "uint256"
        }
      ],
      "name": "TokenSold",
      "type": "event"
    },
    {
      "inputs": [
        {
          "internalType": "uint256",
          "name": "_tokenId",
          "type": "uint256"
        },
        {
          "internalType": "uint256",
          "name": "_offerId",
          "type": "uint256"
        }
      ],
      "name": "acceptOffer",
      "outputs": [],
      "stateMutability": "nonpayable",
      "type": "function"
    },
    {
      "inputs": [
        {
          "internalType": "uint256",
          "name": "_tokenId",
          "type": "uint256"
        },
        {
          "internalType": "uint256",
          "name": "_collectionId",
          "type": "uint256"
        }
      ],
      "name": "buyToken",
      "outputs": [],
      "stateMutability": "payable",
      "type": "function"
    },
    {
      "inputs": [
        {
          "internalType": "uint256",
          "name": "_collectionId",
          "type": "uint256"
        }
      ],
      "name": "createCollection",
      "outputs": [],
      "stateMutability": "payable",
      "type": "function"
    },
    {
      "inputs": [
        {
          "internalType": "uint256",
          "name": "_tokenId",
          "type": "uint256"
        }
      ],
      "name": "fetchTokenOffers",
      "outputs": [
        {
          "components": [
            {
              "internalType": "uint256",
              "name": "id",
              "type": "uint256"
            },
            {
              "internalType": "address payable",
              "name": "offeror",
              "type": "address"
            },
            {
              "internalType": "uint256",
              "name": "price",
              "type": "uint256"
            }
          ],
          "internalType": "struct IMarket.Offer[]",
          "name": "",
          "type": "tuple[]"
        }
      ],
      "stateMutability": "view",
      "type": "function"
    },
    {
      "inputs": [
        {
          "internalType": "uint256[]",
          "name": "_tokenIds",
          "type": "uint256[]"
        }
      ],
      "name": "fetchTokensBatch",
      "outputs": [
        {
          "components": [
            {
              "internalType": "uint256",
              "name": "tokenId",
              "type": "uint256"
            },
            {
              "internalType": "uint256",
              "name": "collectionId",
              "type": "uint256"
            },
            {
              "internalType": "address",
              "name": "owner",
              "type": "address"
            },
            {
              "internalType": "bool",
              "name": "forSale",
              "type": "bool"
            },
            {
              "internalType": "uint256",
              "name": "price",
              "type": "uint256"
            },
            {
              "components": [
                {
                  "internalType": "uint256",
                  "name": "_value",
                  "type": "uint256"
                }
              ],
              "internalType": "struct Counters.Counter",
              "name": "offersCount",
              "type": "tuple"
            }
          ],
          "internalType": "struct IMarket.Token[]",
          "name": "",
          "type": "tuple[]"
        }
      ],
      "stateMutability": "view",
      "type": "function"
    },
    {
      "inputs": [
        {
          "internalType": "uint256",
          "name": "_tokenId",
          "type": "uint256"
        }
      ],
      "name": "listTokenForSale",
      "outputs": [],
      "stateMutability": "nonpayable",
      "type": "function"
    },
    {
      "inputs": [
        {
          "internalType": "uint256",
          "name": "_tokenId",
          "type": "uint256"
        }
      ],
      "name": "makeOffer",
      "outputs": [],
      "stateMutability": "payable",
      "type": "function"
    },
    {
      "inputs": [
        {
          "internalType": "uint256",
          "name": "_tokenId",
          "type": "uint256"
        },
        {
          "internalType": "uint256",
          "name": "_collectionId",
          "type": "uint256"
        }
      ],
      "name": "mintToken",
      "outputs": [],
      "stateMutability": "payable",
      "type": "function"
    },
    {
      "inputs": [
        {
          "internalType": "address",
          "name": "",
          "type": "address"
        },
        {
          "internalType": "address",
          "name": "",
          "type": "address"
        },
        {
          "internalType": "uint256[]",
          "name": "",
          "type": "uint256[]"
        },
        {
          "internalType": "uint256[]",
          "name": "",
          "type": "uint256[]"
        },
        {
          "internalType": "bytes",
          "name": "",
          "type": "bytes"
        }
      ],
      "name": "onERC1155BatchReceived",
      "outputs": [
        {
          "internalType": "bytes4",
          "name": "",
          "type": "bytes4"
        }
      ],
      "stateMutability": "nonpayable",
      "type": "function"
    },
    {
      "inputs": [
        {
          "internalType": "address",
          "name": "",
          "type": "address"
        },
        {
          "internalType": "address",
          "name": "",
          "type": "address"
        },
        {
          "internalType": "uint256",
          "name": "",
          "type": "uint256"
        },
        {
          "internalType": "uint256",
          "name": "",
          "type": "uint256"
        },
        {
          "internalType": "bytes",
          "name": "",
          "type": "bytes"
        }
      ],
      "name": "onERC1155Received",
      "outputs": [
        {
          "internalType": "bytes4",
          "name": "",
          "type": "bytes4"
        }
      ],
      "stateMutability": "nonpayable",
      "type": "function"
    },
    {
      "inputs": [],
      "name": "owner",
      "outputs": [
        {
          "internalType": "address",
          "name": "",
          "type": "address"
        }
      ],
      "stateMutability": "view",
      "type": "function"
    },
    {
      "inputs": [],
      "name": "renounceOwnership",
      "outputs": [],
      "stateMutability": "nonpayable",
      "type": "function"
    },
    {
      "inputs": [
        {
          "internalType": "bytes4",
          "name": "interfaceId",
          "type": "bytes4"
        }
      ],
      "name": "supportsInterface",
      "outputs": [
        {
          "internalType": "bool",
          "name": "",
          "type": "bool"
        }
      ],
      "stateMutability": "view",
      "type": "function"
    },
    {
      "inputs": [
        {
          "internalType": "address",
          "name": "newOwner",
          "type": "address"
        }
      ],
      "name": "transferOwnership",
      "outputs": [],
      "stateMutability": "nonpayable",
      "type": "function"
    },
    {
      "inputs": [
        {
          "internalType": "uint256",
          "name": "i",
          "type": "uint256"
        },
        {
          "internalType": "uint8",
          "name": "ml",
          "type": "uint8"
        }
      ],
      "name": "uint2hex64str",
      "outputs": [
        {
          "internalType": "string",
          "name": "",
          "type": "string"
        }
      ],
      "stateMutability": "pure",
      "type": "function"
    },
    {
      "inputs": [],
      "name": "withdraw",
      "outputs": [],
      "stateMutability": "nonpayable",
      "type": "function"
    }
  ],
  "bytecode": "0x608060405260006004556611c37937e080006005553480156200002157600080fd5b506040516200206f3803806200206f8339810160408190526200004491620000f5565b6001600055620000543362000086565b600280546001600160a01b039384166001600160a01b031991821617909155600380549290931691161790556200012c565b600180546001600160a01b038381166001600160a01b0319831681179093556040519116919082907f8be0079c531659141344cd1fd0a4f28419497f9722a3daafe3b4186f6b6457e090600090a35050565b80516001600160a01b0381168114620000f057600080fd5b919050565b6000806040838503121562000108578182fd5b6200011383620000d8565b91506200012360208401620000d8565b90509250929050565b611f33806200013c6000396000f3fe6080604052600436106100f35760003560e01c806381257bd51161008a578063bfe2bb0011610059578063bfe2bb0014610299578063d0011d9d146102c6578063f23a6e61146102d9578063f2fde38b1461030557600080fd5b806381257bd5146101f95780638da5cb5b146102195780639a2f647414610241578063bc197c811461025457600080fd5b80633ed2f37c116100c65780633ed2f37c1461016a5780633ff947a0146101975780634d8e2188146101c4578063715018a6146101e457600080fd5b806301ffc9a7146100f8578063057466ea1461012d57806320cbf5f9146101425780633ccfd60b14610155575b600080fd5b34801561010457600080fd5b50610118610113366004611bc4565b610325565b60405190151581526020015b60405180910390f35b61014061013b366004611c04565b61035c565b005b610140610150366004611c04565b6105f6565b34801561016157600080fd5b5061014061083f565b34801561017657600080fd5b5061018a610185366004611b69565b610917565b6040516101249190611ce4565b3480156101a357600080fd5b506101b76101b2366004611c25565b610aa4565b6040516101249190611d5b565b3480156101d057600080fd5b506101406101df366004611bec565b610c0c565b3480156101f057600080fd5b50610140610d3a565b34801561020557600080fd5b50610140610214366004611c04565b610d70565b34801561022557600080fd5b506001546040516001600160a01b039091168152602001610124565b61014061024f366004611bec565b611307565b34801561026057600080fd5b5061028061026f366004611a58565b63bc197c8160e01b95945050505050565b6040516001600160e01b03199091168152602001610124565b3480156102a557600080fd5b506102b96102b4366004611bec565b6115af565b6040516101249190611c82565b6101406102d4366004611bec565b611644565b3480156102e557600080fd5b506102806102f4366004611b02565b63f23a6e6160e01b95945050505050565b34801561031157600080fd5b50610140610320366004611a19565b61170d565b60006001600160e01b03198216630271189760e51b148061035657506301ffc9a760e01b6001600160e01b03198316145b92915050565b600260005414156103885760405162461bcd60e51b815260040161037f90611dc3565b60405180910390fd5b6002600090815582815260066020526040902060010154811480156103ca5750600082815260066020526040902060020154600160a01b900460ff1615156001145b6104345760405162461bcd60e51b815260206004820152603560248201527f4d61726b6574706c6163653a206e6f74206578697374696e6720746f6b656e206044820152746f7220746f6b656e206e6f7420666f722073616c6560581b606482015260840161037f565b60055434146104855760405162461bcd60e51b815260206004820152601f60248201527f4d61726b6574706c6163653a20616d6f756e74206e6f7420636f727265637400604482015260640161037f565b600082815260066020526040808220600181018390556002810180546001600160a81b0319163360ff60a01b191617905560039081018390555490516331a9108f60e11b8152600481018590526001600160a01b0390911690636352211e9060240160206040518083038186803b1580156104ff57600080fd5b505afa158015610513573d6000803e3d6000fd5b505050506040513d601f19601f820116820180604052508101906105379190611a3c565b6003546040516323b872dd60e01b81526001600160a01b038084166004830152336024830152604482018790529293509116906323b872dd90606401600060405180830381600087803b15801561058d57600080fd5b505af11580156105a1573d6000803e3d6000fd5b5050604080518581523460208201528693503392506001600160a01b038516917f9387a595ac4be9038bbb9751abad8baa3dcf219dd9e19abb81552bd521fe3546910160405180910390a45050600160005550565b600260005414156106195760405162461bcd60e51b815260040161037f90611dc3565b6002600081905554604051636f81f73d60e11b8152600481018390523360248201526001600160a01b039091169063df03ee7a90604401602060405180830381600087803b15801561066a57600080fd5b505af115801561067e573d6000803e3d6000fd5b505050506040513d601f19601f820116820180604052508101906106a29190611ba4565b6106fa5760405162461bcd60e51b815260206004820152602360248201527f4d61726b6574706c6163653a206e6f74206120636f6c6c656374696f6e206f776044820152623732b960e91b606482015260840161037f565b6003546040516340c10f1960e01b8152336004820152602481018490526001600160a01b03909116906340c10f1990604401600060405180830381600087803b15801561074657600080fd5b505af115801561075a573d6000803e3d6000fd5b50506040805160c081018252858152602080820186815233838501818152600160608601818152600580546080890190815289518089018b52600080825260a08b019182528f815260068a528b902099518a55965193890193909355925160028801805492511515600160a01b026001600160a81b03199093166001600160a01b0390921691909117919091179055516003860155915151600490940193909355548351888152918201528594509092507f10546b1a6f5245ff0ffa18c256b9e46859c585cbb473b453fcd4c2dc39ae08db910160405180910390a350506001600055565b6001546001600160a01b031633146108695760405162461bcd60e51b815260040161037f90611d8e565b6000600454476108799190611e43565b116108c65760405162461bcd60e51b815260206004820181905260248201527f4d61726b6574706c6163653a206e6f7468696e6720746f207769746864726177604482015260640161037f565b6001546001600160a01b03166001600160a01b03166108fc600454476108ec9190611e43565b6040518115909202916000818181858888f19350505050158015610914573d6000803e3d6000fd5b50565b80516060908061095a576040805160008082526020820190925290610952565b61093f61188a565b8152602001906001900390816109375790505b509392505050565b60008167ffffffffffffffff81111561098357634e487b7160e01b600052604160045260246000fd5b6040519080825280602002602001820160405280156109bc57816020015b6109a961188a565b8152602001906001900390816109a15790505b50905060005b8281101561095257600660008683815181106109ee57634e487b7160e01b600052603260045260246000fd5b6020908102919091018101518252818101929092526040908101600020815160c0810183528154815260018201548185015260028201546001600160a01b03811682850152600160a01b900460ff161515606082015260038201546080820152825193840190925260040154825260a08101919091528251839083908110610a8657634e487b7160e01b600052603260045260246000fd5b60200260200101819052508080610a9c90611ea1565b9150506109c2565b606082610ac957506040805180820190915260018152600360fc1b6020820152610356565b8260005b8115610aec5780610add81611ea1565b915050600482901c9150610acd565b849150600f60008267ffffffffffffffff811115610b1a57634e487b7160e01b600052604160045260246000fd5b6040519080825280601f01601f191660200182016040528015610b44576020820181803683370190505b509050825b8415610bcb5784831660098111610b6d57610b65816030611e2b565b60f81b610b7c565b610b78816037611e2b565b60f81b5b83610b8684611e8a565b93508381518110610ba757634e487b7160e01b600052603260045260246000fd5b60200101906001600160f81b031916908160001a905350600486901c955050610b49565b815b8760ff1681511015610c005780604051602001610bea9190611c59565b6040516020818303038152906040529050610bcd565b98975050505050505050565b60026000541415610c2f5760405162461bcd60e51b815260040161037f90611dc3565b6002600090815581815260066020526040902060010154158015610c6c57506000818152600660205260409020600201546001600160a01b031633145b8015610c915750600081815260066020526040902060020154600160a01b900460ff16155b610cdd5760405162461bcd60e51b815260206004820152601860248201527f4d61726b6574706c6163653a2063616e6e6f742073616c650000000000000000604482015260640161037f565b610ce6816117a5565b600081815260066020526040808220600201805460ff60a01b1916600160a01b17905551829133917fe7a2b047c5d5fd3ff0721e4154639da2164288ce6a790793f559d59dc879af679190a3506001600055565b6001546001600160a01b03163314610d645760405162461bcd60e51b815260040161037f90611d8e565b610d6e6000611807565b565b60026000541415610d935760405162461bcd60e51b815260040161037f90611dc3565b60026000556003546040516331a9108f60e11b81526004810184905233916001600160a01b031690636352211e9060240160206040518083038186803b158015610ddc57600080fd5b505afa158015610df0573d6000803e3d6000fd5b505050506040513d601f19601f82011682018060405250810190610e149190611a3c565b6001600160a01b031614610e755760405162461bcd60e51b815260206004820152602260248201527f4d61726b6574706c6163653a20796f7520617265206e6f7420746865206f776e60448201526132b960f11b606482015260840161037f565b600082815260066020526040902060010154158015610eac5750600082815260066020526040902060020154600160a01b900460ff165b610ef45760405162461bcd60e51b81526020600482015260196024820152784d61726b6574706c6163653a206e6f7420666f722073616c6560381b604482015260640161037f565b6000828152600760205260409020805482919082908110610f2557634e487b7160e01b600052603260045260246000fd5b90600052602060002090600302016000015414610f845760405162461bcd60e51b815260206004820152601f60248201527f4d61726b6574706c6163653a206e6f74206578697374696e67206f6666657200604482015260640161037f565b6000828152600760205260408120805483908110610fb257634e487b7160e01b600052603260045260246000fd5b600091825260208083206001600390930201919091015485835260079091526040822080546001600160a01b039092169350908490811061100357634e487b7160e01b600052603260045260246000fd5b906000526020600020906003020160020154905061102084611859565b6003546040516323b872dd60e01b81523360048201526001600160a01b03848116602483015260448201879052909116906323b872dd90606401600060405180830381600087803b15801561107457600080fd5b505af1158015611088573d6000803e3d6000fd5b50505050806004600082825461109e9190611e43565b90915550506000848152600760205260409020805433916108fc91869081106110d757634e487b7160e01b600052603260045260246000fd5b9060005260206000209060030201600201549081150290604051600060405180830381858888f19350505050158015611114573d6000803e3d6000fd5b5060005b60008581526007602052604090205481101561126d5783811461125b57600085815260076020526040902080548290811061116357634e487b7160e01b600052603260045260246000fd5b906000526020600020906003020160020154600460008282546111869190611e43565b909155505060008581526007602052604090208054829081106111b957634e487b7160e01b600052603260045260246000fd5b906000526020600020906003020160010160009054906101000a90046001600160a01b03166001600160a01b03166108fc60076000888152602001908152602001600020838154811061121c57634e487b7160e01b600052603260045260246000fd5b9060005260206000209060030201600201549081150290604051600060405180830381858888f19350505050158015611259573d6000803e3d6000fd5b505b8061126581611ea1565b915050611118565b5060008481526006602052604081206002810180546001600160a81b0319166001600160a01b0386161790556004015560008481526007602052604081206112b4916118de565b604080518481526020810183905285916001600160a01b0385169133917f3be3f6e01e862310f5452e4c3cf9af30e99d9eff46f25c6a6b926ca756c1ef00910160405180910390a4505060016000555050565b6003546040516331a9108f60e11b8152600481018390526000916001600160a01b031690636352211e9060240160206040518083038186803b15801561134c57600080fd5b505afa158015611360573d6000803e3d6000fd5b505050506040513d601f19601f820116820180604052508101906113849190611a3c565b6000838152600660205260409020600101549091501580156113be5750600082815260066020526040902060020154600160a01b900460ff165b6114065760405162461bcd60e51b81526020600482015260196024820152784d61726b6574706c6163653a206e6f7420666f722073616c6560381b604482015260640161037f565b6001600160a01b03811633141561145f5760405162461bcd60e51b815260206004820152601e60248201527f4d61726b6574706c6163653a20796f752061726520746865206f776e65720000604482015260640161037f565b600034116114c95760405162461bcd60e51b815260206004820152603160248201527f4d61726b6574706c6163653a206f66666572207072696365206d757374206265604482015270206174206c65617374206f6e652077656960781b606482015260840161037f565b600082815260076020908152604080832080548251606081018452818152338186019081523482860190815260018085018655948852868820925160038502909301928355905182850180546001600160a01b0319166001600160a01b0390921691909117905551600290910155868552600690935292206004018054909201909155346004600082825461155e9190611e2b565b909155505060408051828152346020820152849133916001600160a01b038616917f0c2598f084a085d4d27e8638b4306b07c633b1e724b3d27fc0af68714fe54028910160405180910390a4505050565b606060076000838152602001908152602001600020805480602002602001604051908101604052809291908181526020016000905b828210156116395760008481526020908190206040805160608101825260038602909201805483526001808201546001600160a01b0316848601526002909101549183019190915290835290920191016115e4565b505050509050919050565b600260005414156116675760405162461bcd60e51b815260040161037f90611dc3565b60026000819055546040516340c10f1960e01b8152336004820152602481018390526001600160a01b03909116906340c10f1990604401600060405180830381600087803b1580156116b857600080fd5b505af11580156116cc573d6000803e3d6000fd5b50506040518381523392507fae66da0f1658d46bfee58255b370697fedca10e984d310c30f2579d377a04255915060200160405180910390a2506001600055565b6001546001600160a01b031633146117375760405162461bcd60e51b815260040161037f90611d8e565b6001600160a01b03811661179c5760405162461bcd60e51b815260206004820152602660248201527f4f776e61626c653a206e6577206f776e657220697320746865207a65726f206160448201526564647265737360d01b606482015260840161037f565b61091481611807565b6003546040516337519c1960e21b8152600481018390526001600160a01b039091169063dd467064906024015b600060405180830381600087803b1580156117ec57600080fd5b505af1158015611800573d6000803e3d6000fd5b5050505050565b600180546001600160a01b038381166001600160a01b0319831681179093556040519116919082907f8be0079c531659141344cd1fd0a4f28419497f9722a3daafe3b4186f6b6457e090600090a35050565b600354604051636198e33960e01b8152600481018390526001600160a01b0390911690636198e339906024016117d2565b6040518060c00160405280600081526020016000815260200160006001600160a01b03168152602001600015158152602001600081526020016118d96040518060200160405280600081525090565b905290565b508054600082556003029060005260206000209081019061091491905b808211156119275760008082556001820180546001600160a01b031916905560028201556003016118fb565b5090565b600082601f83011261193b578081fd5b8135602067ffffffffffffffff82111561195757611957611ed2565b8160051b611966828201611dfa565b838152828101908684018388018501891015611980578687fd5b8693505b858410156119a2578035835260019390930192918401918401611984565b50979650505050505050565b600082601f8301126119be578081fd5b813567ffffffffffffffff8111156119d8576119d8611ed2565b6119eb601f8201601f1916602001611dfa565b8181528460208386010111156119ff578283fd5b816020850160208301379081016020019190915292915050565b600060208284031215611a2a578081fd5b8135611a3581611ee8565b9392505050565b600060208284031215611a4d578081fd5b8151611a3581611ee8565b600080600080600060a08688031215611a6f578081fd5b8535611a7a81611ee8565b94506020860135611a8a81611ee8565b9350604086013567ffffffffffffffff80821115611aa6578283fd5b611ab289838a0161192b565b94506060880135915080821115611ac7578283fd5b611ad389838a0161192b565b93506080880135915080821115611ae8578283fd5b50611af5888289016119ae565b9150509295509295909350565b600080600080600060a08688031215611b19578081fd5b8535611b2481611ee8565b94506020860135611b3481611ee8565b93506040860135925060608601359150608086013567ffffffffffffffff811115611b5d578182fd5b611af5888289016119ae565b600060208284031215611b7a578081fd5b813567ffffffffffffffff811115611b90578182fd5b611b9c8482850161192b565b949350505050565b600060208284031215611bb5578081fd5b81518015158114611a35578182fd5b600060208284031215611bd5578081fd5b81356001600160e01b031981168114611a35578182fd5b600060208284031215611bfd578081fd5b5035919050565b60008060408385031215611c16578182fd5b50508035926020909101359150565b60008060408385031215611c37578182fd5b82359150602083013560ff81168114611c4e578182fd5b809150509250929050565b600360fc1b815260008251611c75816001850160208701611e5a565b9190910160010192915050565b602080825282518282018190526000919060409081850190868401855b82811015611cd757815180518552868101516001600160a01b0316878601528501518585015260609093019290850190600101611c9f565b5091979650505050505050565b602080825282518282018190526000919060409081850190868401855b82811015611cd7578151805185528681015187860152858101516001600160a01b0316868601526060808201511515908601526080808201519086015260a090810151519085015260c09093019290850190600101611d01565b6020815260008251806020840152611d7a816040850160208701611e5a565b601f01601f19169190910160400192915050565b6020808252818101527f4f776e61626c653a2063616c6c6572206973206e6f7420746865206f776e6572604082015260600190565b6020808252601f908201527f5265656e7472616e637947756172643a207265656e7472616e742063616c6c00604082015260600190565b604051601f8201601f1916810167ffffffffffffffff81118282101715611e2357611e23611ed2565b604052919050565b60008219821115611e3e57611e3e611ebc565b500190565b600082821015611e5557611e55611ebc565b500390565b60005b83811015611e75578181015183820152602001611e5d565b83811115611e84576000848401525b50505050565b600081611e9957611e99611ebc565b506000190190565b6000600019821415611eb557611eb5611ebc565b5060010190565b634e487b7160e01b600052601160045260246000fd5b634e487b7160e01b600052604160045260246000fd5b6001600160a01b038116811461091457600080fdfea264697066735822122072834dbe660a5c567bb6861b47a1928d77908e69c643cefd085194f47f26bad064736f6c63430008040033",
  "linkReferences": {},
  "deployedLinkReferences": {}
}