{
  "_format": "hh-sol-artifact-1",
  "contractName": "NFT",
  "sourceName": "contracts/NFT.sol",
  "abi": [
    {
      "inputs": [],
      "stateMutability": "nonpayable",
      "type": "constructor"
    },
    {
      "anonymous": false,
      "inputs": [
        {
          "indexed": true,
          "internalType": "address",
          "name": "account",
          "type": "address"
        },
        {
          "indexed": true,
          "internalType": "address",
          "name": "operator",
          "type": "address"
        },
        {
          "indexed": false,
          "internalType": "bool",
          "name": "approved",
          "type": "bool"
        }
      ],
      "name": "ApprovalForAll",
      "type": "event"
    },
    {
      "anonymous": false,
      "inputs": [
        {
          "indexed": true,
          "internalType": "address",
          "name": "previousOwner",
          "type": "address"
        },
        {
          "indexed": true,
          "internalType": "address",
          "name": "newOwner",
          "type": "address"
        }
      ],
      "name": "OwnershipTransferred",
      "type": "event"
    },
    {
      "anonymous": false,
      "inputs": [
        {
          "indexed": true,
          "internalType": "address",
          "name": "operator",
          "type": "address"
        },
        {
          "indexed": true,
          "internalType": "address",
          "name": "from",
          "type": "address"
        },
        {
          "indexed": true,
          "internalType": "address",
          "name": "to",
          "type": "address"
        },
        {
          "indexed": false,
          "internalType": "uint256[]",
          "name": "ids",
          "type": "uint256[]"
        },
        {
          "indexed": false,
          "internalType": "uint256[]",
          "name": "values",
          "type": "uint256[]"
        }
      ],
      "name": "TransferBatch",
      "type": "event"
    },
    {
      "anonymous": false,
      "inputs": [
        {
          "indexed": true,
          "internalType": "address",
          "name": "operator",
          "type": "address"
        },
        {
          "indexed": true,
          "internalType": "address",
          "name": "from",
          "type": "address"
        },
        {
          "indexed": true,
          "internalType": "address",
          "name": "to",
          "type": "address"
        },
        {
          "indexed": false,
          "internalType": "uint256",
          "name": "id",
          "type": "uint256"
        },
        {
          "indexed": false,
          "internalType": "uint256",
          "name": "value",
          "type": "uint256"
        }
      ],
      "name": "TransferSingle",
      "type": "event"
    },
    {
      "anonymous": false,
      "inputs": [
        {
          "indexed": false,
          "internalType": "string",
          "name": "value",
          "type": "string"
        },
        {
          "indexed": true,
          "internalType": "uint256",
          "name": "id",
          "type": "uint256"
        }
      ],
      "name": "URI",
      "type": "event"
    },
    {
      "inputs": [
        {
          "internalType": "address",
          "name": "account",
          "type": "address"
        },
        {
          "internalType": "uint256",
          "name": "id",
          "type": "uint256"
        }
      ],
      "name": "balanceOf",
      "outputs": [
        {
          "internalType": "uint256",
          "name": "",
          "type": "uint256"
        }
      ],
      "stateMutability": "view",
      "type": "function"
    },
    {
      "inputs": [
        {
          "internalType": "address[]",
          "name": "accounts",
          "type": "address[]"
        },
        {
          "internalType": "uint256[]",
          "name": "ids",
          "type": "uint256[]"
        }
      ],
      "name": "balanceOfBatch",
      "outputs": [
        {
          "internalType": "uint256[]",
          "name": "",
          "type": "uint256[]"
        }
      ],
      "stateMutability": "view",
      "type": "function"
    },
    {
      "inputs": [
        {
          "internalType": "uint256",
          "name": "id",
          "type": "uint256"
        }
      ],
      "name": "exists",
      "outputs": [
        {
          "internalType": "bool",
          "name": "",
          "type": "bool"
        }
      ],
      "stateMutability": "view",
      "type": "function"
    },
    {
      "inputs": [
        {
          "internalType": "address",
          "name": "account",
          "type": "address"
        },
        {
          "internalType": "address",
          "name": "operator",
          "type": "address"
        }
      ],
      "name": "isApprovedForAll",
      "outputs": [
        {
          "internalType": "bool",
          "name": "",
          "type": "bool"
        }
      ],
      "stateMutability": "view",
      "type": "function"
    },
    {
      "inputs": [
        {
          "internalType": "uint256",
          "name": "_id",
          "type": "uint256"
        }
      ],
      "name": "lock",
      "outputs": [],
      "stateMutability": "nonpayable",
      "type": "function"
    },
    {
      "inputs": [
        {
          "internalType": "uint256",
          "name": "_id",
          "type": "uint256"
        },
        {
          "internalType": "address",
          "name": "_owner",
          "type": "address"
        }
      ],
      "name": "mint",
      "outputs": [],
      "stateMutability": "nonpayable",
      "type": "function"
    },
    {
      "inputs": [],
      "name": "owner",
      "outputs": [
        {
          "internalType": "address",
          "name": "",
          "type": "address"
        }
      ],
      "stateMutability": "view",
      "type": "function"
    },
    {
      "inputs": [],
      "name": "renounceOwnership",
      "outputs": [],
      "stateMutability": "nonpayable",
      "type": "function"
    },
    {
      "inputs": [
        {
          "internalType": "address",
          "name": "from",
          "type": "address"
        },
        {
          "internalType": "address",
          "name": "to",
          "type": "address"
        },
        {
          "internalType": "uint256[]",
          "name": "ids",
          "type": "uint256[]"
        },
        {
          "internalType": "uint256[]",
          "name": "amounts",
          "type": "uint256[]"
        },
        {
          "internalType": "bytes",
          "name": "data",
          "type": "bytes"
        }
      ],
      "name": "safeBatchTransferFrom",
      "outputs": [],
      "stateMutability": "nonpayable",
      "type": "function"
    },
    {
      "inputs": [
        {
          "internalType": "address",
          "name": "from",
          "type": "address"
        },
        {
          "internalType": "address",
          "name": "to",
          "type": "address"
        },
        {
          "internalType": "uint256",
          "name": "id",
          "type": "uint256"
        },
        {
          "internalType": "uint256",
          "name": "amount",
          "type": "uint256"
        },
        {
          "internalType": "bytes",
          "name": "data",
          "type": "bytes"
        }
      ],
      "name": "safeTransferFrom",
      "outputs": [],
      "stateMutability": "nonpayable",
      "type": "function"
    },
    {
      "inputs": [
        {
          "internalType": "address",
          "name": "operator",
          "type": "address"
        },
        {
          "internalType": "bool",
          "name": "approved",
          "type": "bool"
        }
      ],
      "name": "setApprovalForAll",
      "outputs": [],
      "stateMutability": "nonpayable",
      "type": "function"
    },
    {
      "inputs": [
        {
          "internalType": "address",
          "name": "_market",
          "type": "address"
        }
      ],
      "name": "setMarket",
      "outputs": [],
      "stateMutability": "nonpayable",
      "type": "function"
    },
    {
      "inputs": [
        {
          "internalType": "bytes4",
          "name": "interfaceId",
          "type": "bytes4"
        }
      ],
      "name": "supportsInterface",
      "outputs": [
        {
          "internalType": "bool",
          "name": "",
          "type": "bool"
        }
      ],
      "stateMutability": "view",
      "type": "function"
    },
    {
      "inputs": [
        {
          "internalType": "uint256",
          "name": "id",
          "type": "uint256"
        }
      ],
      "name": "totalSupply",
      "outputs": [
        {
          "internalType": "uint256",
          "name": "",
          "type": "uint256"
        }
      ],
      "stateMutability": "view",
      "type": "function"
    },
    {
      "inputs": [
        {
          "internalType": "address",
          "name": "_from",
          "type": "address"
        },
        {
          "internalType": "address",
          "name": "_to",
          "type": "address"
        },
        {
          "internalType": "uint256",
          "name": "_id",
          "type": "uint256"
        }
      ],
      "name": "transferFrom",
      "outputs": [],
      "stateMutability": "nonpayable",
      "type": "function"
    },
    {
      "inputs": [
        {
          "internalType": "address",
          "name": "newOwner",
          "type": "address"
        }
      ],
      "name": "transferOwnership",
      "outputs": [],
      "stateMutability": "nonpayable",
      "type": "function"
    },
    {
      "inputs": [
        {
          "internalType": "uint256",
          "name": "i",
          "type": "uint256"
        }
      ],
      "name": "uint2hexstr",
      "outputs": [
        {
          "internalType": "string",
          "name": "",
          "type": "string"
        }
      ],
      "stateMutability": "pure",
      "type": "function"
    },
    {
      "inputs": [
        {
          "internalType": "uint256",
          "name": "_id",
          "type": "uint256"
        }
      ],
      "name": "unlock",
      "outputs": [],
      "stateMutability": "nonpayable",
      "type": "function"
    },
    {
      "inputs": [
        {
          "internalType": "uint256",
          "name": "_Id",
          "type": "uint256"
        }
      ],
      "name": "uri",
      "outputs": [
        {
          "internalType": "string",
          "name": "",
          "type": "string"
        }
      ],
      "stateMutability": "pure",
      "type": "function"
    }
  ],
  "bytecode": "0x60806040523480156200001157600080fd5b506040518060600160405280602281526020016200236460229139620000378162000049565b50620000433362000062565b62000197565b80516200005e906002906020840190620000b4565b5050565b600480546001600160a01b038381166001600160a01b0319831681179093556040519116919082907f8be0079c531659141344cd1fd0a4f28419497f9722a3daafe3b4186f6b6457e090600090a35050565b828054620000c2906200015a565b90600052602060002090601f016020900481019282620000e6576000855562000131565b82601f106200010157805160ff191683800117855562000131565b8280016001018555821562000131579182015b828111156200013157825182559160200191906001019062000114565b506200013f92915062000143565b5090565b5b808211156200013f576000815560010162000144565b600181811c908216806200016f57607f821691505b602082108114156200019157634e487b7160e01b600052602260045260246000fd5b50919050565b6121bd80620001a76000396000f3fe608060405234801561001057600080fd5b50600436106101205760003560e01c80636dcea85f116100ad578063bd85b03911610071578063bd85b0391461027a578063dd4670641461029a578063e985e9c5146102ad578063f242432a146102e9578063f2fde38b146102fc57600080fd5b80636dcea85f1461021e578063715018a6146102315780638da5cb5b1461023957806394bf804d14610254578063a22cb4651461026757600080fd5b80632eb2c2d6116100f45780632eb2c2d6146101a35780633c93d8be146101b65780634e1273f4146101c95780634f558e79146101e95780636198e3391461020b57600080fd5b8062fdd58e1461012557806301ffc9a71461014b5780630e89341c1461016e57806323b872dd1461018e575b600080fd5b610138610133366004611bad565b61030f565b6040519081526020015b60405180910390f35b61015e610159366004611ca1565b6103d1565b6040519015158152602001610142565b61018161017c366004611cd9565b610421565b6040516101429190611ea2565b6101a161019c366004611ad5565b610458565b005b6101a16101b1366004611a2f565b610752565b6101816101c4366004611cd9565b6107e9565b6101dc6101d7366004611bd6565b610916565b6040516101429190611e61565b61015e6101f7366004611cd9565b600090815260036020526040902054151590565b6101a1610219366004611cd9565b610a74565b6101a161022c3660046119dc565b610ae7565b6101a1610b7e565b6004546040516001600160a01b039091168152602001610142565b6101a1610262366004611cf1565b610bb4565b6101a1610275366004611b73565b610cf3565b610138610288366004611cd9565b60009081526003602052604090205490565b6101a16102a8366004611cd9565b610d02565b61015e6102bb3660046119fd565b6001600160a01b03918216600090815260016020908152604080832093909416825291909152205460ff1690565b6101a16102f7366004611b10565b610d78565b6101a161030a3660046119dc565b610dff565b60006001600160a01b03831661037c5760405162461bcd60e51b815260206004820152602760248201527f4e46543a2062616c616e636520717565727920666f7220746865207a65726f206044820152666164647265737360c81b60648201526084015b60405180910390fd5b600554610392906001600160a01b031683610e9a565b60011480156103ba57506000828152600660205260409020546001600160a01b038481169116145b156103c7575060016103cb565b5060005b92915050565b60006001600160e01b03198216636cdb3d1360e11b148061040257506001600160e01b031982166303a24d0760e21b145b806103cb57506301ffc9a760e01b6001600160e01b03198316146103cb565b6060600061042e836107e9565b9050806040516020016104419190611d79565b604051602081830303815290604052915050919050565b6005546001600160a01b03166104a65760405162461bcd60e51b81526020600482015260136024820152721391950e881b585c9ad95d081b9bdd081cd95d606a1b6044820152606401610373565b6005546001600160a01b031633146105005760405162461bcd60e51b815260206004820152601d60248201527f4e46543a2063616c6c6572206973206e6f7420746865206d61726b65740000006044820152606401610373565b6001600160a01b0383166105565760405162461bcd60e51b815260206004820152601760248201527f4e46543a20746f6b656e206e6f7420666f722073616c650000000000000000006044820152606401610373565b6000818152600660205260409020546001600160a01b03166105b15760405162461bcd60e51b81526020600482015260146024820152731391950e881d1bdad95b881b9bdd08195e1a5cdd60621b6044820152606401610373565b60008181526007602052604090205460ff161515600114156106095760405162461bcd60e51b81526020600482015260116024820152701391950e881d1bdad95b881b1bd8dad959607a1b6044820152606401610373565b6001600160a01b0382166106695760405162461bcd60e51b815260206004820152602160248201527f4e46543a207472616e7366657220746f20746865207a65726f206164647265736044820152607360f81b6064820152608401610373565b336001600160a01b03831614156106bb5760405162461bcd60e51b815260206004820152601660248201527527232a1d103cb7ba9037bbb7103a3432903a37b5b2b760511b6044820152606401610373565b6000818152600660205260409020546001600160a01b03848116911614806106e857506106e833806102bb565b6107425760405162461bcd60e51b815260206004820152602560248201527f4e46543a2063616c6c6572206973206e6f74206f776e6572206e6f72206170706044820152641c9bdd995960da1b6064820152608401610373565b61074d838383610f2c565b505050565b6001600160a01b03851633148061076e575061076e85336102bb565b6107d55760405162461bcd60e51b815260206004820152603260248201527f455243313135353a207472616e736665722063616c6c6572206973206e6f74206044820152711bdddb995c881b9bdc88185c1c1c9bdd995960721b6064820152608401610373565b6107e28585858585610fa4565b5050505050565b60608161080d5750506040805180820190915260018152600360fc1b602082015290565b8160005b8115610830578061082181612088565b915050600482901c9150610811565b600f60008267ffffffffffffffff81111561085b57634e487b7160e01b600052604160045260246000fd5b6040519080825280601f01601f191660200182016040528015610885576020820181803683370190505b509050825b861561090c57868316600981116108ae576108a6816030611fe5565b60f81b6108bd565b6108b9816037611fe5565b60f81b5b836108c784612044565b935083815181106108e857634e487b7160e01b600052603260045260246000fd5b60200101906001600160f81b031916908160001a905350600488901c97505061088a565b5095945050505050565b606081518351146109775760405162461bcd60e51b815260206004820152602560248201527f4e46543a206163636f756e747320616e6420696473206c656e677468206d69736044820152640dac2e8c6d60db1b6064820152608401610373565b6000835167ffffffffffffffff8111156109a157634e487b7160e01b600052604160045260246000fd5b6040519080825280602002602001820160405280156109ca578160200160208202803683370190505b50905060005b8451811015610a6c57610a318582815181106109fc57634e487b7160e01b600052603260045260246000fd5b6020026020010151858381518110610a2457634e487b7160e01b600052603260045260246000fd5b602002602001015161030f565b828281518110610a5157634e487b7160e01b600052603260045260246000fd5b6020908102919091010152610a6581612088565b90506109d0565b509392505050565b6000818152600660205260409020546001600160a01b0316331415610acf5760405162461bcd60e51b815260206004820152601160248201527027232a1d103737ba1030b71037bbb732b960791b6044820152606401610373565b6000908152600760205260409020805460ff19169055565b6004546001600160a01b03163314610b115760405162461bcd60e51b815260040161037390611f8c565b6001600160a01b038116610b5c5760405162461bcd60e51b81526020600482015260126024820152714e46543a2057726f6e67206164647265737360701b6044820152606401610373565b600580546001600160a01b0319166001600160a01b0392909216919091179055565b6004546001600160a01b03163314610ba85760405162461bcd60e51b815260040161037390611f8c565b610bb260006111ab565b565b6005546001600160a01b0316610c025760405162461bcd60e51b81526020600482015260136024820152721391950e881b585c9ad95d081b9bdd081cd95d606a1b6044820152606401610373565b6005546001600160a01b03163314610c5c5760405162461bcd60e51b815260206004820152601d60248201527f4e46543a2063616c6c6572206973206e6f7420746865206d61726b65740000006044820152606401610373565b60008281526003602052604090205415610cb85760405162461bcd60e51b815260206004820152601960248201527f4e46543a20746f6b656e20616c7265616479206d696e746564000000000000006044820152606401610373565b6060610cc733846001846111fd565b600083815260066020526040902080546001600160a01b0319163390811790915561074d908385610458565b610cfe33838361130d565b5050565b6000818152600660205260409020546001600160a01b0316331415610d5d5760405162461bcd60e51b815260206004820152601160248201527027232a1d103737ba1030b71037bbb732b960791b6044820152606401610373565b6000908152600760205260409020805460ff19166001179055565b6001600160a01b038516331480610d945750610d9485336102bb565b610df25760405162461bcd60e51b815260206004820152602960248201527f455243313135353a2063616c6c6572206973206e6f74206f776e6572206e6f7260448201526808185c1c1c9bdd995960ba1b6064820152608401610373565b6107e285858585856113ee565b6004546001600160a01b03163314610e295760405162461bcd60e51b815260040161037390611f8c565b6001600160a01b038116610e8e5760405162461bcd60e51b815260206004820152602660248201527f4f776e61626c653a206e6577206f776e657220697320746865207a65726f206160448201526564647265737360d01b6064820152608401610373565b610e97816111ab565b50565b60006001600160a01b038316610f065760405162461bcd60e51b815260206004820152602b60248201527f455243313135353a2062616c616e636520717565727920666f7220746865207a60448201526a65726f206164647265737360a81b6064820152608401610373565b506000908152602081815260408083206001600160a01b03949094168352929052205490565b60008181526006602090815260409182902080546001600160a01b0319166001600160a01b0386811691821790925583518581526001938101939093528351339491939288169285927fc3d58168c5ae7397731d063d5bbf3d657854427343f4c083240f7aacaa2d0f6292918290030190a450505050565b81518351146110065760405162461bcd60e51b815260206004820152602860248201527f455243313135353a2069647320616e6420616d6f756e7473206c656e677468206044820152670dad2e6dac2e8c6d60c31b6064820152608401610373565b6001600160a01b03841661102c5760405162461bcd60e51b815260040161037390611efd565b3361103b81878787878761150b565b60005b845181101561113d57600085828151811061106957634e487b7160e01b600052603260045260246000fd5b60200260200101519050600085838151811061109557634e487b7160e01b600052603260045260246000fd5b602090810291909101810151600084815280835260408082206001600160a01b038e1683529093529190912054909150818110156110e55760405162461bcd60e51b815260040161037390611f42565b6000838152602081815260408083206001600160a01b038e8116855292528083208585039055908b16825281208054849290611122908490611fe5565b925050819055505050508061113690612088565b905061103e565b50846001600160a01b0316866001600160a01b0316826001600160a01b03167f4a39dc06d4c0dbc64b70af90fd698a233a518aa5d07e595d983b8c0526c8f7fb878760405161118d929190611e74565b60405180910390a46111a381878787878761164f565b505050505050565b600480546001600160a01b038381166001600160a01b0319831681179093556040519116919082907f8be0079c531659141344cd1fd0a4f28419497f9722a3daafe3b4186f6b6457e090600090a35050565b6001600160a01b03841661125d5760405162461bcd60e51b815260206004820152602160248201527f455243313135353a206d696e7420746f20746865207a65726f206164647265736044820152607360f81b6064820152608401610373565b3361127d8160008761126e886117ba565b611277886117ba565b8761150b565b6000848152602081815260408083206001600160a01b0389168452909152812080548592906112ad908490611fe5565b909155505060408051858152602081018590526001600160a01b0380881692600092918516917fc3d58168c5ae7397731d063d5bbf3d657854427343f4c083240f7aacaa2d0f62910160405180910390a46107e281600087878787611813565b816001600160a01b0316836001600160a01b031614156113815760405162461bcd60e51b815260206004820152602960248201527f455243313135353a2073657474696e6720617070726f76616c20737461747573604482015268103337b91039b2b63360b91b6064820152608401610373565b6001600160a01b03838116600081815260016020908152604080832094871680845294825291829020805460ff191686151590811790915591519182527f17307eab39ab6107e8899845ad3d59bd9653f200f220920489ca2b5937696c31910160405180910390a3505050565b6001600160a01b0384166114145760405162461bcd60e51b815260040161037390611efd565b3361142481878761126e886117ba565b6000848152602081815260408083206001600160a01b038a168452909152902054838110156114655760405162461bcd60e51b815260040161037390611f42565b6000858152602081815260408083206001600160a01b038b81168552925280832087850390559088168252812080548692906114a2908490611fe5565b909155505060408051868152602081018690526001600160a01b03808916928a821692918616917fc3d58168c5ae7397731d063d5bbf3d657854427343f4c083240f7aacaa2d0f62910160405180910390a4611502828888888888611813565b50505050505050565b6001600160a01b0385166115ae5760005b83518110156115ac5782818151811061154557634e487b7160e01b600052603260045260246000fd5b60200260200101516003600086848151811061157157634e487b7160e01b600052603260045260246000fd5b6020026020010151815260200190815260200160002060008282546115969190611fe5565b909155506115a5905081612088565b905061151c565b505b6001600160a01b0384166111a35760005b8351811015611502578281815181106115e857634e487b7160e01b600052603260045260246000fd5b60200260200101516003600086848151811061161457634e487b7160e01b600052603260045260246000fd5b6020026020010151815260200190815260200160002060008282546116399190611ffd565b90915550611648905081612088565b90506115bf565b6001600160a01b0384163b156111a35760405163bc197c8160e01b81526001600160a01b0385169063bc197c81906116939089908990889088908890600401611dbe565b602060405180830381600087803b1580156116ad57600080fd5b505af19250505080156116dd575060408051601f3d908101601f191682019092526116da91810190611cbd565b60015b61178a576116e96120cf565b806308c379a0141561172357506116fe6120e7565b806117095750611725565b8060405162461bcd60e51b81526004016103739190611ea2565b505b60405162461bcd60e51b815260206004820152603460248201527f455243313135353a207472616e7366657220746f206e6f6e20455243313135356044820152732932b1b2b4bb32b91034b6b83632b6b2b73a32b960611b6064820152608401610373565b6001600160e01b0319811663bc197c8160e01b146115025760405162461bcd60e51b815260040161037390611eb5565b6040805160018082528183019092526060916000919060208083019080368337019050509050828160008151811061180257634e487b7160e01b600052603260045260246000fd5b602090810291909101015292915050565b6001600160a01b0384163b156111a35760405163f23a6e6160e01b81526001600160a01b0385169063f23a6e61906118579089908990889088908890600401611e1c565b602060405180830381600087803b15801561187157600080fd5b505af19250505080156118a1575060408051601f3d908101601f1916820190925261189e91810190611cbd565b60015b6118ad576116e96120cf565b6001600160e01b0319811663f23a6e6160e01b146115025760405162461bcd60e51b815260040161037390611eb5565b80356001600160a01b03811681146118f457600080fd5b919050565b600082601f830112611909578081fd5b8135602061191682611fc1565b604051611923828261205b565b8381528281019150858301600585901b87018401881015611942578586fd5b855b8581101561196057813584529284019290840190600101611944565b5090979650505050505050565b600082601f83011261197d578081fd5b813567ffffffffffffffff811115611997576119976120b9565b6040516119ae601f8301601f19166020018261205b565b8181528460208386010111156119c2578283fd5b816020850160208301379081016020019190915292915050565b6000602082840312156119ed578081fd5b6119f6826118dd565b9392505050565b60008060408385031215611a0f578081fd5b611a18836118dd565b9150611a26602084016118dd565b90509250929050565b600080600080600060a08688031215611a46578081fd5b611a4f866118dd565b9450611a5d602087016118dd565b9350604086013567ffffffffffffffff80821115611a79578283fd5b611a8589838a016118f9565b94506060880135915080821115611a9a578283fd5b611aa689838a016118f9565b93506080880135915080821115611abb578283fd5b50611ac88882890161196d565b9150509295509295909350565b600080600060608486031215611ae9578283fd5b611af2846118dd565b9250611b00602085016118dd565b9150604084013590509250925092565b600080600080600060a08688031215611b27578081fd5b611b30866118dd565b9450611b3e602087016118dd565b93506040860135925060608601359150608086013567ffffffffffffffff811115611b67578182fd5b611ac88882890161196d565b60008060408385031215611b85578182fd5b611b8e836118dd565b915060208301358015158114611ba2578182fd5b809150509250929050565b60008060408385031215611bbf578182fd5b611bc8836118dd565b946020939093013593505050565b60008060408385031215611be8578182fd5b823567ffffffffffffffff80821115611bff578384fd5b818501915085601f830112611c12578384fd5b81356020611c1f82611fc1565b604051611c2c828261205b565b8381528281019150858301600585901b870184018b1015611c4b578889fd5b8896505b84871015611c7457611c60816118dd565b835260019690960195918301918301611c4f565b5096505086013592505080821115611c8a578283fd5b50611c97858286016118f9565b9150509250929050565b600060208284031215611cb2578081fd5b81356119f681612171565b600060208284031215611cce578081fd5b81516119f681612171565b600060208284031215611cea578081fd5b5035919050565b60008060408385031215611d03578182fd5b82359150611a26602084016118dd565b6000815180845260208085019450808401835b83811015611d4257815187529582019590820190600101611d26565b509495945050505050565b60008151808452611d65816020860160208601612014565b601f01601f19169290920160200192915050565b7f68747470733a2f2f697066732e696f2f697066732f6630313535313232300000815260008251611db181601e850160208701612014565b91909101601e0192915050565b6001600160a01b0386811682528516602082015260a060408201819052600090611dea90830186611d13565b8281036060840152611dfc8186611d13565b90508281036080840152611e108185611d4d565b98975050505050505050565b6001600160a01b03868116825285166020820152604081018490526060810183905260a060808201819052600090611e5690830184611d4d565b979650505050505050565b6020815260006119f66020830184611d13565b604081526000611e876040830185611d13565b8281036020840152611e998185611d13565b95945050505050565b6020815260006119f66020830184611d4d565b60208082526028908201527f455243313135353a204552433131353552656365697665722072656a656374656040820152676420746f6b656e7360c01b606082015260800190565b60208082526025908201527f455243313135353a207472616e7366657220746f20746865207a65726f206164604082015264647265737360d81b606082015260800190565b6020808252602a908201527f455243313135353a20696e73756666696369656e742062616c616e636520666f60408201526939103a3930b739b332b960b11b606082015260800190565b6020808252818101527f4f776e61626c653a2063616c6c6572206973206e6f7420746865206f776e6572604082015260600190565b600067ffffffffffffffff821115611fdb57611fdb6120b9565b5060051b60200190565b60008219821115611ff857611ff86120a3565b500190565b60008282101561200f5761200f6120a3565b500390565b60005b8381101561202f578181015183820152602001612017565b8381111561203e576000848401525b50505050565b600081612053576120536120a3565b506000190190565b601f8201601f1916810167ffffffffffffffff81118282101715612081576120816120b9565b6040525050565b600060001982141561209c5761209c6120a3565b5060010190565b634e487b7160e01b600052601160045260246000fd5b634e487b7160e01b600052604160045260246000fd5b600060033d11156120e457600481823e5160e01c5b90565b600060443d10156120f55790565b6040516003193d81016004833e81513d67ffffffffffffffff816024840111818411171561212557505050505090565b828501915081518181111561213d5750505050505090565b843d87010160208285010111156121575750505050505090565b6121666020828601018761205b565b509095945050505050565b6001600160e01b031981168114610e9757600080fdfea2646970667358221220e111ffe9f06c242905f4974e78a1d96d9c6dc98d2fcd8bb2e1b8716c891d4e4464736f6c6343000804003368747470733a2f2f697066732e696f2f697066732f6630313535313232307b69647d",
  "linkReferences": {},
  "deployedLinkReferences": {}
}