{
  "_format": "hh-sol-artifact-1",
  "contractName": "NFTEnumerable",
  "sourceName": "contracts/NFTEnumerable.sol",
  "abi": [
    {
      "inputs": [
        {
          "internalType": "string",
          "name": "_baseTokenURI",
          "type": "string"
        }
      ],
      "stateMutability": "nonpayable",
      "type": "constructor"
    },
    {
      "anonymous": false,
      "inputs": [
        {
          "indexed": true,
          "internalType": "address",
          "name": "owner",
          "type": "address"
        },
        {
          "indexed": true,
          "internalType": "address",
          "name": "approved",
          "type": "address"
        },
        {
          "indexed": true,
          "internalType": "uint256",
          "name": "tokenId",
          "type": "uint256"
        }
      ],
      "name": "Approval",
      "type": "event"
    },
    {
      "anonymous": false,
      "inputs": [
        {
          "indexed": true,
          "internalType": "address",
          "name": "owner",
          "type": "address"
        },
        {
          "indexed": true,
          "internalType": "address",
          "name": "operator",
          "type": "address"
        },
        {
          "indexed": false,
          "internalType": "bool",
          "name": "approved",
          "type": "bool"
        }
      ],
      "name": "ApprovalForAll",
      "type": "event"
    },
    {
      "anonymous": false,
      "inputs": [
        {
          "indexed": true,
          "internalType": "address",
          "name": "previousOwner",
          "type": "address"
        },
        {
          "indexed": true,
          "internalType": "address",
          "name": "newOwner",
          "type": "address"
        }
      ],
      "name": "OwnershipTransferred",
      "type": "event"
    },
    {
      "anonymous": false,
      "inputs": [
        {
          "indexed": true,
          "internalType": "address",
          "name": "from",
          "type": "address"
        },
        {
          "indexed": true,
          "internalType": "address",
          "name": "to",
          "type": "address"
        },
        {
          "indexed": true,
          "internalType": "uint256",
          "name": "tokenId",
          "type": "uint256"
        }
      ],
      "name": "Transfer",
      "type": "event"
    },
    {
      "inputs": [
        {
          "internalType": "address",
          "name": "to",
          "type": "address"
        },
        {
          "internalType": "uint256",
          "name": "tokenId",
          "type": "uint256"
        }
      ],
      "name": "approve",
      "outputs": [],
      "stateMutability": "nonpayable",
      "type": "function"
    },
    {
      "inputs": [
        {
          "internalType": "address",
          "name": "owner",
          "type": "address"
        }
      ],
      "name": "balanceOf",
      "outputs": [
        {
          "internalType": "uint256",
          "name": "",
          "type": "uint256"
        }
      ],
      "stateMutability": "view",
      "type": "function"
    },
    {
      "inputs": [
        {
          "internalType": "address",
          "name": "_except",
          "type": "address"
        },
        {
          "internalType": "address",
          "name": "_only",
          "type": "address"
        }
      ],
      "name": "fetchTokensIdsBatch",
      "outputs": [
        {
          "internalType": "uint256[]",
          "name": "",
          "type": "uint256[]"
        }
      ],
      "stateMutability": "view",
      "type": "function"
    },
    {
      "inputs": [
        {
          "internalType": "uint256",
          "name": "tokenId",
          "type": "uint256"
        }
      ],
      "name": "getApproved",
      "outputs": [
        {
          "internalType": "address",
          "name": "",
          "type": "address"
        }
      ],
      "stateMutability": "view",
      "type": "function"
    },
    {
      "inputs": [
        {
          "internalType": "address",
          "name": "owner",
          "type": "address"
        },
        {
          "internalType": "address",
          "name": "operator",
          "type": "address"
        }
      ],
      "name": "isApprovedForAll",
      "outputs": [
        {
          "internalType": "bool",
          "name": "",
          "type": "bool"
        }
      ],
      "stateMutability": "view",
      "type": "function"
    },
    {
      "inputs": [
        {
          "internalType": "uint256",
          "name": "tokenId",
          "type": "uint256"
        }
      ],
      "name": "isLocked",
      "outputs": [
        {
          "internalType": "bool",
          "name": "",
          "type": "bool"
        }
      ],
      "stateMutability": "view",
      "type": "function"
    },
    {
      "inputs": [
        {
          "internalType": "uint256",
          "name": "tokenId",
          "type": "uint256"
        }
      ],
      "name": "lock",
      "outputs": [],
      "stateMutability": "nonpayable",
      "type": "function"
    },
    {
      "inputs": [
        {
          "internalType": "address",
          "name": "to",
          "type": "address"
        },
        {
          "internalType": "uint256",
          "name": "_tokenId",
          "type": "uint256"
        }
      ],
      "name": "mint",
      "outputs": [],
      "stateMutability": "nonpayable",
      "type": "function"
    },
    {
      "inputs": [],
      "name": "name",
      "outputs": [
        {
          "internalType": "string",
          "name": "",
          "type": "string"
        }
      ],
      "stateMutability": "view",
      "type": "function"
    },
    {
      "inputs": [],
      "name": "owner",
      "outputs": [
        {
          "internalType": "address",
          "name": "",
          "type": "address"
        }
      ],
      "stateMutability": "view",
      "type": "function"
    },
    {
      "inputs": [
        {
          "internalType": "uint256",
          "name": "tokenId",
          "type": "uint256"
        }
      ],
      "name": "ownerOf",
      "outputs": [
        {
          "internalType": "address",
          "name": "",
          "type": "address"
        }
      ],
      "stateMutability": "view",
      "type": "function"
    },
    {
      "inputs": [],
      "name": "renounceOwnership",
      "outputs": [],
      "stateMutability": "nonpayable",
      "type": "function"
    },
    {
      "inputs": [
        {
          "internalType": "address",
          "name": "from",
          "type": "address"
        },
        {
          "internalType": "address",
          "name": "to",
          "type": "address"
        },
        {
          "internalType": "uint256",
          "name": "tokenId",
          "type": "uint256"
        }
      ],
      "name": "safeTransferFrom",
      "outputs": [],
      "stateMutability": "nonpayable",
      "type": "function"
    },
    {
      "inputs": [
        {
          "internalType": "address",
          "name": "from",
          "type": "address"
        },
        {
          "internalType": "address",
          "name": "to",
          "type": "address"
        },
        {
          "internalType": "uint256",
          "name": "tokenId",
          "type": "uint256"
        },
        {
          "internalType": "bytes",
          "name": "_data",
          "type": "bytes"
        }
      ],
      "name": "safeTransferFrom",
      "outputs": [],
      "stateMutability": "nonpayable",
      "type": "function"
    },
    {
      "inputs": [
        {
          "internalType": "address",
          "name": "operator",
          "type": "address"
        },
        {
          "internalType": "bool",
          "name": "approved",
          "type": "bool"
        }
      ],
      "name": "setApprovalForAll",
      "outputs": [],
      "stateMutability": "nonpayable",
      "type": "function"
    },
    {
      "inputs": [
        {
          "internalType": "address",
          "name": "_market",
          "type": "address"
        }
      ],
      "name": "setMarket",
      "outputs": [],
      "stateMutability": "nonpayable",
      "type": "function"
    },
    {
      "inputs": [
        {
          "internalType": "bytes4",
          "name": "interfaceId",
          "type": "bytes4"
        }
      ],
      "name": "supportsInterface",
      "outputs": [
        {
          "internalType": "bool",
          "name": "",
          "type": "bool"
        }
      ],
      "stateMutability": "view",
      "type": "function"
    },
    {
      "inputs": [],
      "name": "symbol",
      "outputs": [
        {
          "internalType": "string",
          "name": "",
          "type": "string"
        }
      ],
      "stateMutability": "view",
      "type": "function"
    },
    {
      "inputs": [
        {
          "internalType": "uint256",
          "name": "index",
          "type": "uint256"
        }
      ],
      "name": "tokenByIndex",
      "outputs": [
        {
          "internalType": "uint256",
          "name": "",
          "type": "uint256"
        }
      ],
      "stateMutability": "view",
      "type": "function"
    },
    {
      "inputs": [
        {
          "internalType": "address",
          "name": "owner",
          "type": "address"
        },
        {
          "internalType": "uint256",
          "name": "index",
          "type": "uint256"
        }
      ],
      "name": "tokenOfOwnerByIndex",
      "outputs": [
        {
          "internalType": "uint256",
          "name": "",
          "type": "uint256"
        }
      ],
      "stateMutability": "view",
      "type": "function"
    },
    {
      "inputs": [
        {
          "internalType": "uint256",
          "name": "tokenId",
          "type": "uint256"
        }
      ],
      "name": "tokenURI",
      "outputs": [
        {
          "internalType": "string",
          "name": "",
          "type": "string"
        }
      ],
      "stateMutability": "view",
      "type": "function"
    },
    {
      "inputs": [],
      "name": "totalSupply",
      "outputs": [
        {
          "internalType": "uint256",
          "name": "",
          "type": "uint256"
        }
      ],
      "stateMutability": "view",
      "type": "function"
    },
    {
      "inputs": [
        {
          "internalType": "address",
          "name": "from",
          "type": "address"
        },
        {
          "internalType": "address",
          "name": "to",
          "type": "address"
        },
        {
          "internalType": "uint256",
          "name": "tokenId",
          "type": "uint256"
        }
      ],
      "name": "transferFrom",
      "outputs": [],
      "stateMutability": "nonpayable",
      "type": "function"
    },
    {
      "inputs": [
        {
          "internalType": "address",
          "name": "newOwner",
          "type": "address"
        }
      ],
      "name": "transferOwnership",
      "outputs": [],
      "stateMutability": "nonpayable",
      "type": "function"
    },
    {
      "inputs": [
        {
          "internalType": "uint256",
          "name": "i",
          "type": "uint256"
        },
        {
          "internalType": "uint8",
          "name": "ml",
          "type": "uint8"
        }
      ],
      "name": "uint2hex64str",
      "outputs": [
        {
          "internalType": "string",
          "name": "",
          "type": "string"
        }
      ],
      "stateMutability": "pure",
      "type": "function"
    },
    {
      "inputs": [
        {
          "internalType": "uint256",
          "name": "tokenId",
          "type": "uint256"
        }
      ],
      "name": "unlock",
      "outputs": [],
      "stateMutability": "nonpayable",
      "type": "function"
    },
    {
      "inputs": [
        {
          "internalType": "uint256",
          "name": "_id",
          "type": "uint256"
        }
      ],
      "name": "uri",
      "outputs": [
        {
          "internalType": "string",
          "name": "",
          "type": "string"
        }
      ],
      "stateMutability": "view",
      "type": "function"
    }
  ],
  "bytecode": "0x60806040523480156200001157600080fd5b5060405162002779380380620027798339810160408190526200003491620001c0565b60408051808201825260038082526213919560ea1b6020808401828152855180870190965292855284015281518493916200007391600091906200011a565b508051620000899060019060208401906200011a565b505050620000a6620000a0620000c460201b60201c565b620000c8565b8051620000bb90600d9060208401906200011a565b505050620002e9565b3390565b600a80546001600160a01b038381166001600160a01b0319831681179093556040519116919082907f8be0079c531659141344cd1fd0a4f28419497f9722a3daafe3b4186f6b6457e090600090a35050565b828054620001289062000296565b90600052602060002090601f0160209004810192826200014c576000855562000197565b82601f106200016757805160ff191683800117855562000197565b8280016001018555821562000197579182015b82811115620001975782518255916020019190600101906200017a565b50620001a5929150620001a9565b5090565b5b80821115620001a55760008155600101620001aa565b60006020808385031215620001d3578182fd5b82516001600160401b0380821115620001ea578384fd5b818501915085601f830112620001fe578384fd5b815181811115620002135762000213620002d3565b604051601f8201601f19908116603f011681019083821181831017156200023e576200023e620002d3565b81604052828152888684870101111562000256578687fd5b8693505b828410156200027957848401860151818501870152928501926200025a565b828411156200028a57868684830101525b98975050505050505050565b600181811c90821680620002ab57607f821691505b60208210811415620002cd57634e487b7160e01b600052602260045260246000fd5b50919050565b634e487b7160e01b600052604160045260246000fd5b61248080620002f96000396000f3fe608060405234801561001057600080fd5b50600436106101a95760003560e01c80636198e339116100f9578063a22cb46511610097578063dd46706411610071578063dd46706414610388578063e985e9c51461039b578063f2fde38b146103d7578063f6aacfb1146103ea57600080fd5b8063a22cb4651461034f578063b88d4fde14610362578063c87b56dd1461037557600080fd5b806370a08231116100d357806370a082311461031b578063715018a61461032e5780638da5cb5b1461033657806395d89b411461034757600080fd5b80636198e339146102e25780636352211e146102f55780636dcea85f1461030857600080fd5b806323b872dd1161016657806340c10f191161014057806340c10f191461028957806342842e0e1461029c5780634d6a0c4d146102af5780634f6ccce7146102cf57600080fd5b806323b872dd146102505780632f745c59146102635780633ff947a01461027657600080fd5b806301ffc9a7146101ae57806306fdde03146101d6578063081812fc146101eb578063095ea7b3146102165780630e89341c1461022b57806318160ddd1461023e575b600080fd5b6101c16101bc366004611f97565b61040d565b60405190151581526020015b60405180910390f35b6101de610438565b6040516101cd91906121cb565b6101fe6101f9366004611fcf565b6104ca565b6040516001600160a01b0390911681526020016101cd565b610229610224366004611f6e565b610564565b005b6101de610239366004611fcf565b61067a565b6008545b6040519081526020016101cd565b61022961025e366004611e24565b6106b6565b610242610271366004611f6e565b61074a565b6101de610284366004611fe7565b6107e0565b610229610297366004611f6e565b610948565b6102296102aa366004611e24565b6109a8565b6102c26102bd366004611df2565b610a46565b6040516101cd9190612193565b6102426102dd366004611fcf565b610c88565b6102296102f0366004611fcf565b610d29565b6101fe610303366004611fcf565b610d96565b610229610316366004611dd8565b610e0d565b610242610329366004611dd8565b610ea6565b610229610f2d565b600a546001600160a01b03166101fe565b6101de610f63565b61022961035d366004611f34565b610f72565b610229610370366004611e5f565b610f7d565b6101de610383366004611fcf565b611013565b610229610396366004611fcf565b6110eb565b6101c16103a9366004611df2565b6001600160a01b03918216600090815260056020908152604080832093909416825291909152205460ff1690565b6102296103e5366004611dd8565b61115c565b6101c16103f8366004611fcf565b6000908152600b602052604090205460ff1690565b60006001600160e01b0319821663780e9d6360e01b14806104325750610432826111f4565b92915050565b60606000805461044790612388565b80601f016020809104026020016040519081016040528092919081815260200182805461047390612388565b80156104c05780601f10610495576101008083540402835291602001916104c0565b820191906000526020600020905b8154815290600101906020018083116104a357829003601f168201915b5050505050905090565b6000818152600260205260408120546001600160a01b03166105485760405162461bcd60e51b815260206004820152602c60248201527f4552433732313a20617070726f76656420717565727920666f72206e6f6e657860448201526b34b9ba32b73a103a37b5b2b760a11b60648201526084015b60405180910390fd5b506000908152600460205260409020546001600160a01b031690565b600061056f82610d96565b9050806001600160a01b0316836001600160a01b031614156105dd5760405162461bcd60e51b815260206004820152602160248201527f4552433732313a20617070726f76616c20746f2063757272656e74206f776e656044820152603960f91b606482015260840161053f565b336001600160a01b03821614806105f957506105f981336103a9565b61066b5760405162461bcd60e51b815260206004820152603860248201527f4552433732313a20617070726f76652063616c6c6572206973206e6f74206f7760448201527f6e6572206e6f7220617070726f76656420666f7220616c6c0000000000000000606482015260840161053f565b6106758383611244565b505050565b606060006106898360406107e0565b9050600d8160405160200161069f929190612087565b604051602081830303815290604052915050919050565b600c546001600160a01b03166106de5760405162461bcd60e51b815260040161053f906122d3565b600c546001600160a01b031633146107085760405162461bcd60e51b815260040161053f90612230565b6000818152600b6020526040902054819060ff16156107395760405162461bcd60e51b815260040161053f90612267565b6107448484846112b2565b50505050565b600061075583610ea6565b82106107b75760405162461bcd60e51b815260206004820152602b60248201527f455243373231456e756d657261626c653a206f776e657220696e646578206f7560448201526a74206f6620626f756e647360a81b606482015260840161053f565b506001600160a01b03919091166000908152600660209081526040808320938352929052205490565b60608261080557506040805180820190915260018152600360fc1b6020820152610432565b8260005b81156108285780610819816123c3565b915050600482901c9150610809565b849150600f60008267ffffffffffffffff81111561085657634e487b7160e01b600052604160045260246000fd5b6040519080825280601f01601f191660200182016040528015610880576020820181803683370190505b509050825b841561090757848316600981116108a9576108a1816030612302565b60f81b6108b8565b6108b4816037612302565b60f81b5b836108c284612371565b935083815181106108e357634e487b7160e01b600052603260045260246000fd5b60200101906001600160f81b031916908160001a905350600486901c955050610885565b815b8760ff168151101561093c5780604051602001610926919061212d565b6040516020818303038152906040529050610909565b98975050505050505050565b600c546001600160a01b03166109705760405162461bcd60e51b815260040161053f906122d3565b600c546001600160a01b0316331461099a5760405162461bcd60e51b815260040161053f90612230565b6109a48282611459565b5050565b600c546001600160a01b03166109d05760405162461bcd60e51b815260040161053f906122d3565b600c546001600160a01b031633146109fa5760405162461bcd60e51b815260040161053f90612230565b6000818152600b6020526040902054819060ff1615610a2b5760405162461bcd60e51b815260040161053f90612267565b61074484848460405180602001604052806000815250610f7d565b60606001600160a01b0383161580610a6557506001600160a01b038216155b610aa75760405162461bcd60e51b8152602060048201526013602482015272546f6b656e3a2077726f6e6720706172616d7360681b604482015260640161053f565b6000610ab260085490565b905060006001600160a01b03841615610ae457506001600160a01b0383166000908152600e6020526040902054610b0a565b6001600160a01b0385166000908152600e6020526040902054610b07908361232e565b90505b60008167ffffffffffffffff811115610b3357634e487b7160e01b600052604160045260246000fd5b604051908082528060200260200182016040528015610b5c578160200160208202803683370190505b50905081610b6e579250610432915050565b6000805b84811015610c7c576000610b8582610c88565b90506000610b9282610d96565b90506001600160a01b03891615801590610bbd5750886001600160a01b0316816001600160a01b0316145b15610bff57818585610bce816123c3565b965081518110610bee57634e487b7160e01b600052603260045260246000fd5b602002602001018181525050610c67565b6001600160a01b038a1615801590610c295750896001600160a01b0316816001600160a01b031614155b15610c6757818585610c3a816123c3565b965081518110610c5a57634e487b7160e01b600052603260045260246000fd5b6020026020010181815250505b50508080610c74906123c3565b915050610b72565b50909695505050505050565b6000610c9360085490565b8210610cf65760405162461bcd60e51b815260206004820152602c60248201527f455243373231456e756d657261626c653a20676c6f62616c20696e646578206f60448201526b7574206f6620626f756e647360a01b606482015260840161053f565b60088281548110610d1757634e487b7160e01b600052603260045260246000fd5b90600052602060002001549050919050565b600c546001600160a01b0316610d515760405162461bcd60e51b815260040161053f906122d3565b600c546001600160a01b03163314610d7b5760405162461bcd60e51b815260040161053f90612230565b6000908152600b60205260409020805460ff19169055565b50565b6000818152600260205260408120546001600160a01b0316806104325760405162461bcd60e51b815260206004820152602960248201527f4552433732313a206f776e657220717565727920666f72206e6f6e657869737460448201526832b73a103a37b5b2b760b91b606482015260840161053f565b600a546001600160a01b03163314610e375760405162461bcd60e51b815260040161053f9061229e565b6001600160a01b038116610e845760405162461bcd60e51b8152602060048201526014602482015273546f6b656e3a2057726f6e67206164647265737360601b604482015260640161053f565b600c80546001600160a01b0319166001600160a01b0392909216919091179055565b60006001600160a01b038216610f115760405162461bcd60e51b815260206004820152602a60248201527f4552433732313a2062616c616e636520717565727920666f7220746865207a65604482015269726f206164647265737360b01b606482015260840161053f565b506001600160a01b031660009081526003602052604090205490565b600a546001600160a01b03163314610f575760405162461bcd60e51b815260040161053f9061229e565b610f6160006115a7565b565b60606001805461044790612388565b6109a43383836115f9565b600c546001600160a01b0316610fa55760405162461bcd60e51b815260040161053f906122d3565b600c546001600160a01b03163314610fcf5760405162461bcd60e51b815260040161053f90612230565b6000828152600b6020526040902054829060ff16156110005760405162461bcd60e51b815260040161053f90612267565b61100c858585856116c8565b5050505050565b6000818152600260205260409020546060906001600160a01b03166110925760405162461bcd60e51b815260206004820152602f60248201527f4552433732314d657461646174613a2055524920717565727920666f72206e6f60448201526e3732bc34b9ba32b73a103a37b5b2b760891b606482015260840161053f565b60006110a960408051602081019091526000815290565b905060008151116110c957604051806020016040528060008152506110e4565b806110d384611744565b60405160200161069f929190612058565b9392505050565b600c546001600160a01b03166111135760405162461bcd60e51b815260040161053f906122d3565b600c546001600160a01b0316331461113d5760405162461bcd60e51b815260040161053f90612230565b610d93816000908152600b60205260409020805460ff19166001179055565b600a546001600160a01b031633146111865760405162461bcd60e51b815260040161053f9061229e565b6001600160a01b0381166111eb5760405162461bcd60e51b815260206004820152602660248201527f4f776e61626c653a206e6577206f776e657220697320746865207a65726f206160448201526564647265737360d01b606482015260840161053f565b610d93816115a7565b60006001600160e01b031982166380ac58cd60e01b148061122557506001600160e01b03198216635b5e139f60e01b145b8061043257506301ffc9a760e01b6001600160e01b0319831614610432565b600081815260046020526040902080546001600160a01b0319166001600160a01b038416908117909155819061127982610d96565b6001600160a01b03167f8c5be1e5ebec7d5bd14f71427d1e84f3dd0314c0f7b2291e5b200ac8c7c3b92560405160405180910390a45050565b826001600160a01b03166112c582610d96565b6001600160a01b0316146113295760405162461bcd60e51b815260206004820152602560248201527f4552433732313a207472616e736665722066726f6d20696e636f72726563742060448201526437bbb732b960d91b606482015260840161053f565b6001600160a01b03821661138b5760405162461bcd60e51b8152602060048201526024808201527f4552433732313a207472616e7366657220746f20746865207a65726f206164646044820152637265737360e01b606482015260840161053f565b611396838383611866565b6113a1600082611244565b6001600160a01b03831660009081526003602052604081208054600192906113ca90849061232e565b90915550506001600160a01b03821660009081526003602052604081208054600192906113f8908490612302565b909155505060008181526002602052604080822080546001600160a01b0319166001600160a01b0386811691821790925591518493918716917fddf252ad1be2c89b69c2b068fc378daa952ba7f163c4a11628f55a4df523b3ef91a4505050565b6001600160a01b0382166114af5760405162461bcd60e51b815260206004820181905260248201527f4552433732313a206d696e7420746f20746865207a65726f2061646472657373604482015260640161053f565b6000818152600260205260409020546001600160a01b0316156115145760405162461bcd60e51b815260206004820152601c60248201527f4552433732313a20746f6b656e20616c7265616479206d696e74656400000000604482015260640161053f565b61152060008383611866565b6001600160a01b0382166000908152600360205260408120805460019290611549908490612302565b909155505060008181526002602052604080822080546001600160a01b0319166001600160a01b03861690811790915590518392907fddf252ad1be2c89b69c2b068fc378daa952ba7f163c4a11628f55a4df523b3ef908290a45050565b600a80546001600160a01b038381166001600160a01b0319831681179093556040519116919082907f8be0079c531659141344cd1fd0a4f28419497f9722a3daafe3b4186f6b6457e090600090a35050565b816001600160a01b0316836001600160a01b0316141561165b5760405162461bcd60e51b815260206004820152601960248201527f4552433732313a20617070726f766520746f2063616c6c657200000000000000604482015260640161053f565b6001600160a01b03838116600081815260056020908152604080832094871680845294825291829020805460ff191686151590811790915591519182527f17307eab39ab6107e8899845ad3d59bd9653f200f220920489ca2b5937696c31910160405180910390a3505050565b6116d233836118c0565b6117385760405162461bcd60e51b815260206004820152603160248201527f4552433732313a207472616e736665722063616c6c6572206973206e6f74206f6044820152701ddb995c881b9bdc88185c1c1c9bdd9959607a1b606482015260840161053f565b610744848484846119b3565b6060816117685750506040805180820190915260018152600360fc1b602082015290565b8160005b8115611792578061177c816123c3565b915061178b9050600a8361231a565b915061176c565b60008167ffffffffffffffff8111156117bb57634e487b7160e01b600052604160045260246000fd5b6040519080825280601f01601f1916602001820160405280156117e5576020820181803683370190505b5090505b841561185e576117fa60018361232e565b9150611807600a866123de565b611812906030612302565b60f81b81838151811061183557634e487b7160e01b600052603260045260246000fd5b60200101906001600160f81b031916908160001a905350611857600a8661231a565b94506117e9565b949350505050565b6001600160a01b03831615611896576001600160a01b0383166000908152600e60205260409020611896906119e6565b6001600160a01b0382166000908152600e6020526040902080546001019055610675838383611a3d565b6000818152600260205260408120546001600160a01b03166119395760405162461bcd60e51b815260206004820152602c60248201527f4552433732313a206f70657261746f7220717565727920666f72206e6f6e657860448201526b34b9ba32b73a103a37b5b2b760a11b606482015260840161053f565b600061194483610d96565b9050806001600160a01b0316846001600160a01b0316148061197f5750836001600160a01b0316611974846104ca565b6001600160a01b0316145b8061185e57506001600160a01b0380821660009081526005602090815260408083209388168352929052205460ff1661185e565b6119be8484846112b2565b6119ca84848484611af5565b6107445760405162461bcd60e51b815260040161053f906121de565b805480611a355760405162461bcd60e51b815260206004820152601b60248201527f436f756e7465723a2064656372656d656e74206f766572666c6f770000000000604482015260640161053f565b600019019055565b6001600160a01b038316611a9857611a9381600880546000838152600960205260408120829055600182018355919091527ff3f7a9fe364faab93b216da50a3214154f22a0a2b415b23a84c8169e8b636ee30155565b611abb565b816001600160a01b0316836001600160a01b031614611abb57611abb8382611c02565b6001600160a01b038216611ad25761067581611c9f565b826001600160a01b0316826001600160a01b031614610675576106758282611d78565b60006001600160a01b0384163b15611bf757604051630a85bd0160e11b81526001600160a01b0385169063150b7a0290611b39903390899088908890600401612156565b602060405180830381600087803b158015611b5357600080fd5b505af1925050508015611b83575060408051601f3d908101601f19168201909252611b8091810190611fb3565b60015b611bdd573d808015611bb1576040519150601f19603f3d011682016040523d82523d6000602084013e611bb6565b606091505b508051611bd55760405162461bcd60e51b815260040161053f906121de565b805181602001fd5b6001600160e01b031916630a85bd0160e11b14905061185e565b506001949350505050565b60006001611c0f84610ea6565b611c19919061232e565b600083815260076020526040902054909150808214611c6c576001600160a01b03841660009081526006602090815260408083208584528252808320548484528184208190558352600790915290208190555b5060009182526007602090815260408084208490556001600160a01b039094168352600681528383209183525290812055565b600854600090611cb19060019061232e565b60008381526009602052604081205460088054939450909284908110611ce757634e487b7160e01b600052603260045260246000fd5b906000526020600020015490508060088381548110611d1657634e487b7160e01b600052603260045260246000fd5b6000918252602080832090910192909255828152600990915260408082208490558582528120556008805480611d5c57634e487b7160e01b600052603160045260246000fd5b6001900381819060005260206000200160009055905550505050565b6000611d8383610ea6565b6001600160a01b039093166000908152600660209081526040808320868452825280832085905593825260079052919091209190915550565b80356001600160a01b0381168114611dd357600080fd5b919050565b600060208284031215611de9578081fd5b6110e482611dbc565b60008060408385031215611e04578081fd5b611e0d83611dbc565b9150611e1b60208401611dbc565b90509250929050565b600080600060608486031215611e38578081fd5b611e4184611dbc565b9250611e4f60208501611dbc565b9150604084013590509250925092565b60008060008060808587031215611e74578081fd5b611e7d85611dbc565b9350611e8b60208601611dbc565b925060408501359150606085013567ffffffffffffffff80821115611eae578283fd5b818701915087601f830112611ec1578283fd5b813581811115611ed357611ed361241e565b604051601f8201601f19908116603f01168101908382118183101715611efb57611efb61241e565b816040528281528a6020848701011115611f13578586fd5b82602086016020830137918201602001949094529598949750929550505050565b60008060408385031215611f46578182fd5b611f4f83611dbc565b915060208301358015158114611f63578182fd5b809150509250929050565b60008060408385031215611f80578182fd5b611f8983611dbc565b946020939093013593505050565b600060208284031215611fa8578081fd5b81356110e481612434565b600060208284031215611fc4578081fd5b81516110e481612434565b600060208284031215611fe0578081fd5b5035919050565b60008060408385031215611ff9578182fd5b82359150602083013560ff81168114611f63578182fd5b60008151808452612028816020860160208601612345565b601f01601f19169290920160200192915050565b6000815161204e818560208601612345565b9290920192915050565b6000835161206a818460208801612345565b83519083019061207e818360208801612345565b01949350505050565b600080845482600182811c9150808316806120a357607f831692505b60208084108214156120c357634e487b7160e01b87526022600452602487fd5b8180156120d757600181146120e857612114565b60ff19861689528489019650612114565b60008b815260209020885b8681101561210c5781548b8201529085019083016120f3565b505084890196505b505050505050612124818561203c565b95945050505050565b600360fc1b815260008251612149816001850160208701612345565b9190910160010192915050565b6001600160a01b038581168252841660208201526040810183905260806060820181905260009061218990830184612010565b9695505050505050565b6020808252825182820181905260009190848201906040850190845b81811015610c7c578351835292840192918401916001016121af565b6020815260006110e46020830184612010565b60208082526032908201527f4552433732313a207472616e7366657220746f206e6f6e20455243373231526560408201527131b2b4bb32b91034b6b83632b6b2b73a32b960711b606082015260800190565b6020808252601f908201527f546f6b656e3a2063616c6c6572206973206e6f7420746865206d61726b657400604082015260600190565b6020808252601a908201527f546f6b656e3a2074686520746f6b656e206973206c6f636b6564000000000000604082015260600190565b6020808252818101527f4f776e61626c653a2063616c6c6572206973206e6f7420746865206f776e6572604082015260600190565b602080825260159082015274151bdad95b8e881b585c9ad95d081b9bdd081cd95d605a1b604082015260600190565b60008219821115612315576123156123f2565b500190565b60008261232957612329612408565b500490565b600082821015612340576123406123f2565b500390565b60005b83811015612360578181015183820152602001612348565b838111156107445750506000910152565b600081612380576123806123f2565b506000190190565b600181811c9082168061239c57607f821691505b602082108114156123bd57634e487b7160e01b600052602260045260246000fd5b50919050565b60006000198214156123d7576123d76123f2565b5060010190565b6000826123ed576123ed612408565b500690565b634e487b7160e01b600052601160045260246000fd5b634e487b7160e01b600052601260045260246000fd5b634e487b7160e01b600052604160045260246000fd5b6001600160e01b031981168114610d9357600080fdfea26469706673582212201171901047520b3f03d4ab6c54d1dca0280699456b46775eaad4347a92146ab864736f6c63430008040033",
  "linkReferences": {},
  "deployedLinkReferences": {}
}