{
  "_format": "hh-sol-artifact-1",
  "contractName": "NFTEnumerable",
  "sourceName": "contracts/NFTEnumerable.sol",
  "abi": [
    {
      "inputs": [
        {
          "internalType": "string",
          "name": "_baseTokenURI",
          "type": "string"
        }
      ],
      "stateMutability": "nonpayable",
      "type": "constructor"
    },
    {
      "anonymous": false,
      "inputs": [
        {
          "indexed": true,
          "internalType": "address",
          "name": "owner",
          "type": "address"
        },
        {
          "indexed": true,
          "internalType": "address",
          "name": "approved",
          "type": "address"
        },
        {
          "indexed": true,
          "internalType": "uint256",
          "name": "tokenId",
          "type": "uint256"
        }
      ],
      "name": "Approval",
      "type": "event"
    },
    {
      "anonymous": false,
      "inputs": [
        {
          "indexed": true,
          "internalType": "address",
          "name": "owner",
          "type": "address"
        },
        {
          "indexed": true,
          "internalType": "address",
          "name": "operator",
          "type": "address"
        },
        {
          "indexed": false,
          "internalType": "bool",
          "name": "approved",
          "type": "bool"
        }
      ],
      "name": "ApprovalForAll",
      "type": "event"
    },
    {
      "anonymous": false,
      "inputs": [
        {
          "indexed": true,
          "internalType": "address",
          "name": "previousOwner",
          "type": "address"
        },
        {
          "indexed": true,
          "internalType": "address",
          "name": "newOwner",
          "type": "address"
        }
      ],
      "name": "OwnershipTransferred",
      "type": "event"
    },
    {
      "anonymous": false,
      "inputs": [
        {
          "indexed": true,
          "internalType": "address",
          "name": "from",
          "type": "address"
        },
        {
          "indexed": true,
          "internalType": "address",
          "name": "to",
          "type": "address"
        },
        {
          "indexed": true,
          "internalType": "uint256",
          "name": "tokenId",
          "type": "uint256"
        }
      ],
      "name": "Transfer",
      "type": "event"
    },
    {
      "inputs": [
        {
          "internalType": "address",
          "name": "to",
          "type": "address"
        },
        {
          "internalType": "uint256",
          "name": "tokenId",
          "type": "uint256"
        }
      ],
      "name": "approve",
      "outputs": [],
      "stateMutability": "nonpayable",
      "type": "function"
    },
    {
      "inputs": [
        {
          "internalType": "address",
          "name": "owner",
          "type": "address"
        }
      ],
      "name": "balanceOf",
      "outputs": [
        {
          "internalType": "uint256",
          "name": "",
          "type": "uint256"
        }
      ],
      "stateMutability": "view",
      "type": "function"
    },
    {
      "inputs": [
        {
          "internalType": "address",
          "name": "_except",
          "type": "address"
        },
        {
          "internalType": "address",
          "name": "_only",
          "type": "address"
        }
      ],
      "name": "fetchTokensIdsBatch",
      "outputs": [
        {
          "internalType": "uint256[]",
          "name": "",
          "type": "uint256[]"
        }
      ],
      "stateMutability": "view",
      "type": "function"
    },
    {
      "inputs": [
        {
          "internalType": "uint256",
          "name": "tokenId",
          "type": "uint256"
        }
      ],
      "name": "getApproved",
      "outputs": [
        {
          "internalType": "address",
          "name": "",
          "type": "address"
        }
      ],
      "stateMutability": "view",
      "type": "function"
    },
    {
      "inputs": [
        {
          "internalType": "address",
          "name": "owner",
          "type": "address"
        },
        {
          "internalType": "address",
          "name": "operator",
          "type": "address"
        }
      ],
      "name": "isApprovedForAll",
      "outputs": [
        {
          "internalType": "bool",
          "name": "",
          "type": "bool"
        }
      ],
      "stateMutability": "view",
      "type": "function"
    },
    {
      "inputs": [
        {
          "internalType": "uint256",
          "name": "tokenId",
          "type": "uint256"
        }
      ],
      "name": "isLocked",
      "outputs": [
        {
          "internalType": "bool",
          "name": "",
          "type": "bool"
        }
      ],
      "stateMutability": "view",
      "type": "function"
    },
    {
      "inputs": [
        {
          "internalType": "uint256",
          "name": "tokenId",
          "type": "uint256"
        }
      ],
      "name": "lock",
      "outputs": [],
      "stateMutability": "nonpayable",
      "type": "function"
    },
    {
      "inputs": [],
      "name": "market",
      "outputs": [
        {
          "internalType": "address",
          "name": "",
          "type": "address"
        }
      ],
      "stateMutability": "view",
      "type": "function"
    },
    {
      "inputs": [
        {
          "internalType": "address",
          "name": "_to",
          "type": "address"
        },
        {
          "internalType": "uint256",
          "name": "_tokenId",
          "type": "uint256"
        }
      ],
      "name": "mint",
      "outputs": [],
      "stateMutability": "nonpayable",
      "type": "function"
    },
    {
      "inputs": [],
      "name": "name",
      "outputs": [
        {
          "internalType": "string",
          "name": "",
          "type": "string"
        }
      ],
      "stateMutability": "view",
      "type": "function"
    },
    {
      "inputs": [],
      "name": "owner",
      "outputs": [
        {
          "internalType": "address",
          "name": "",
          "type": "address"
        }
      ],
      "stateMutability": "view",
      "type": "function"
    },
    {
      "inputs": [
        {
          "internalType": "uint256",
          "name": "tokenId",
          "type": "uint256"
        }
      ],
      "name": "ownerOf",
      "outputs": [
        {
          "internalType": "address",
          "name": "",
          "type": "address"
        }
      ],
      "stateMutability": "view",
      "type": "function"
    },
    {
      "inputs": [],
      "name": "renounceOwnership",
      "outputs": [],
      "stateMutability": "nonpayable",
      "type": "function"
    },
    {
      "inputs": [
        {
          "internalType": "address",
          "name": "from",
          "type": "address"
        },
        {
          "internalType": "address",
          "name": "to",
          "type": "address"
        },
        {
          "internalType": "uint256",
          "name": "tokenId",
          "type": "uint256"
        }
      ],
      "name": "safeTransferFrom",
      "outputs": [],
      "stateMutability": "nonpayable",
      "type": "function"
    },
    {
      "inputs": [
        {
          "internalType": "address",
          "name": "from",
          "type": "address"
        },
        {
          "internalType": "address",
          "name": "to",
          "type": "address"
        },
        {
          "internalType": "uint256",
          "name": "tokenId",
          "type": "uint256"
        },
        {
          "internalType": "bytes",
          "name": "_data",
          "type": "bytes"
        }
      ],
      "name": "safeTransferFrom",
      "outputs": [],
      "stateMutability": "nonpayable",
      "type": "function"
    },
    {
      "inputs": [
        {
          "internalType": "address",
          "name": "operator",
          "type": "address"
        },
        {
          "internalType": "bool",
          "name": "approved",
          "type": "bool"
        }
      ],
      "name": "setApprovalForAll",
      "outputs": [],
      "stateMutability": "nonpayable",
      "type": "function"
    },
    {
      "inputs": [
        {
          "internalType": "address",
          "name": "_market",
          "type": "address"
        }
      ],
      "name": "setMarket",
      "outputs": [],
      "stateMutability": "nonpayable",
      "type": "function"
    },
    {
      "inputs": [
        {
          "internalType": "bytes4",
          "name": "interfaceId",
          "type": "bytes4"
        }
      ],
      "name": "supportsInterface",
      "outputs": [
        {
          "internalType": "bool",
          "name": "",
          "type": "bool"
        }
      ],
      "stateMutability": "view",
      "type": "function"
    },
    {
      "inputs": [],
      "name": "symbol",
      "outputs": [
        {
          "internalType": "string",
          "name": "",
          "type": "string"
        }
      ],
      "stateMutability": "view",
      "type": "function"
    },
    {
      "inputs": [
        {
          "internalType": "uint256",
          "name": "index",
          "type": "uint256"
        }
      ],
      "name": "tokenByIndex",
      "outputs": [
        {
          "internalType": "uint256",
          "name": "",
          "type": "uint256"
        }
      ],
      "stateMutability": "view",
      "type": "function"
    },
    {
      "inputs": [
        {
          "internalType": "address",
          "name": "owner",
          "type": "address"
        },
        {
          "internalType": "uint256",
          "name": "index",
          "type": "uint256"
        }
      ],
      "name": "tokenOfOwnerByIndex",
      "outputs": [
        {
          "internalType": "uint256",
          "name": "",
          "type": "uint256"
        }
      ],
      "stateMutability": "view",
      "type": "function"
    },
    {
      "inputs": [
        {
          "internalType": "uint256",
          "name": "tokenId",
          "type": "uint256"
        }
      ],
      "name": "tokenURI",
      "outputs": [
        {
          "internalType": "string",
          "name": "",
          "type": "string"
        }
      ],
      "stateMutability": "view",
      "type": "function"
    },
    {
      "inputs": [],
      "name": "totalSupply",
      "outputs": [
        {
          "internalType": "uint256",
          "name": "",
          "type": "uint256"
        }
      ],
      "stateMutability": "view",
      "type": "function"
    },
    {
      "inputs": [
        {
          "internalType": "address",
          "name": "from",
          "type": "address"
        },
        {
          "internalType": "address",
          "name": "to",
          "type": "address"
        },
        {
          "internalType": "uint256",
          "name": "tokenId",
          "type": "uint256"
        }
      ],
      "name": "transferFrom",
      "outputs": [],
      "stateMutability": "nonpayable",
      "type": "function"
    },
    {
      "inputs": [
        {
          "internalType": "address",
          "name": "newOwner",
          "type": "address"
        }
      ],
      "name": "transferOwnership",
      "outputs": [],
      "stateMutability": "nonpayable",
      "type": "function"
    },
    {
      "inputs": [
        {
          "internalType": "uint256",
          "name": "i",
          "type": "uint256"
        },
        {
          "internalType": "uint8",
          "name": "ml",
          "type": "uint8"
        }
      ],
      "name": "uint2hex64str",
      "outputs": [
        {
          "internalType": "string",
          "name": "",
          "type": "string"
        }
      ],
      "stateMutability": "pure",
      "type": "function"
    },
    {
      "inputs": [
        {
          "internalType": "uint256",
          "name": "tokenId",
          "type": "uint256"
        }
      ],
      "name": "unlock",
      "outputs": [],
      "stateMutability": "nonpayable",
      "type": "function"
    },
    {
      "inputs": [
        {
          "internalType": "uint256",
          "name": "_id",
          "type": "uint256"
        }
      ],
      "name": "uri",
      "outputs": [
        {
          "internalType": "string",
          "name": "",
          "type": "string"
        }
      ],
      "stateMutability": "view",
      "type": "function"
    }
  ],
  "bytecode": "0x60806040523480156200001157600080fd5b50604051620027a7380380620027a78339810160408190526200003491620001c0565b60408051808201825260038082526213919560ea1b6020808401828152855180870190965292855284015281518493916200007391600091906200011a565b508051620000899060019060208401906200011a565b505050620000a6620000a0620000c460201b60201c565b620000c8565b8051620000bb90600d9060208401906200011a565b505050620002e9565b3390565b600a80546001600160a01b038381166001600160a01b0319831681179093556040519116919082907f8be0079c531659141344cd1fd0a4f28419497f9722a3daafe3b4186f6b6457e090600090a35050565b828054620001289062000296565b90600052602060002090601f0160209004810192826200014c576000855562000197565b82601f106200016757805160ff191683800117855562000197565b8280016001018555821562000197579182015b82811115620001975782518255916020019190600101906200017a565b50620001a5929150620001a9565b5090565b5b80821115620001a55760008155600101620001aa565b60006020808385031215620001d3578182fd5b82516001600160401b0380821115620001ea578384fd5b818501915085601f830112620001fe578384fd5b815181811115620002135762000213620002d3565b604051601f8201601f19908116603f011681019083821181831017156200023e576200023e620002d3565b81604052828152888684870101111562000256578687fd5b8693505b828410156200027957848401860151818501870152928501926200025a565b828411156200028a57868684830101525b98975050505050505050565b600181811c90821680620002ab57607f821691505b60208210811415620002cd57634e487b7160e01b600052602260045260246000fd5b50919050565b634e487b7160e01b600052604160045260246000fd5b6124ae80620002f96000396000f3fe608060405234801561001057600080fd5b50600436106101c45760003560e01c80636352211e116100f9578063a22cb46511610097578063dd46706411610071578063dd467064146103b6578063e985e9c5146103c9578063f2fde38b14610405578063f6aacfb11461041857600080fd5b8063a22cb4651461037d578063b88d4fde14610390578063c87b56dd146103a357600080fd5b8063715018a6116100d3578063715018a61461034957806380f55605146103515780638da5cb5b1461036457806395d89b411461037557600080fd5b80636352211e146103105780636dcea85f1461032357806370a082311461033657600080fd5b80632f745c591161016657806342842e0e1161014057806342842e0e146102b75780634d6a0c4d146102ca5780634f6ccce7146102ea5780636198e339146102fd57600080fd5b80632f745c591461027e5780633ff947a01461029157806340c10f19146102a457600080fd5b8063095ea7b3116101a2578063095ea7b3146102315780630e89341c1461024657806318160ddd1461025957806323b872dd1461026b57600080fd5b806301ffc9a7146101c957806306fdde03146101f1578063081812fc14610206575b600080fd5b6101dc6101d7366004611fc5565b61043b565b60405190151581526020015b60405180910390f35b6101f9610466565b6040516101e891906121f9565b610219610214366004611ffd565b6104f8565b6040516001600160a01b0390911681526020016101e8565b61024461023f366004611f9c565b610592565b005b6101f9610254366004611ffd565b6106a8565b6008545b6040519081526020016101e8565b610244610279366004611e52565b6106e4565b61025d61028c366004611f9c565b610778565b6101f961029f366004612015565b61080e565b6102446102b2366004611f9c565b610976565b6102446102c5366004611e52565b6109d6565b6102dd6102d8366004611e20565b610a74565b6040516101e891906121c1565b61025d6102f8366004611ffd565b610cb6565b61024461030b366004611ffd565b610d57565b61021961031e366004611ffd565b610dc4565b610244610331366004611e06565b610e3b565b61025d610344366004611e06565b610ed4565b610244610f5b565b600c54610219906001600160a01b031681565b600a546001600160a01b0316610219565b6101f9610f91565b61024461038b366004611f62565b610fa0565b61024461039e366004611e8d565b610fab565b6101f96103b1366004611ffd565b611041565b6102446103c4366004611ffd565b611119565b6101dc6103d7366004611e20565b6001600160a01b03918216600090815260056020908152604080832093909416825291909152205460ff1690565b610244610413366004611e06565b61118a565b6101dc610426366004611ffd565b6000908152600b602052604090205460ff1690565b60006001600160e01b0319821663780e9d6360e01b1480610460575061046082611222565b92915050565b606060008054610475906123b6565b80601f01602080910402602001604051908101604052809291908181526020018280546104a1906123b6565b80156104ee5780601f106104c3576101008083540402835291602001916104ee565b820191906000526020600020905b8154815290600101906020018083116104d157829003601f168201915b5050505050905090565b6000818152600260205260408120546001600160a01b03166105765760405162461bcd60e51b815260206004820152602c60248201527f4552433732313a20617070726f76656420717565727920666f72206e6f6e657860448201526b34b9ba32b73a103a37b5b2b760a11b60648201526084015b60405180910390fd5b506000908152600460205260409020546001600160a01b031690565b600061059d82610dc4565b9050806001600160a01b0316836001600160a01b0316141561060b5760405162461bcd60e51b815260206004820152602160248201527f4552433732313a20617070726f76616c20746f2063757272656e74206f776e656044820152603960f91b606482015260840161056d565b336001600160a01b0382161480610627575061062781336103d7565b6106995760405162461bcd60e51b815260206004820152603860248201527f4552433732313a20617070726f76652063616c6c6572206973206e6f74206f7760448201527f6e6572206e6f7220617070726f76656420666f7220616c6c0000000000000000606482015260840161056d565b6106a38383611272565b505050565b606060006106b783604061080e565b9050600d816040516020016106cd9291906120b5565b604051602081830303815290604052915050919050565b600c546001600160a01b031661070c5760405162461bcd60e51b815260040161056d90612301565b600c546001600160a01b031633146107365760405162461bcd60e51b815260040161056d9061225e565b6000818152600b6020526040902054819060ff16156107675760405162461bcd60e51b815260040161056d90612295565b6107728484846112e0565b50505050565b600061078383610ed4565b82106107e55760405162461bcd60e51b815260206004820152602b60248201527f455243373231456e756d657261626c653a206f776e657220696e646578206f7560448201526a74206f6620626f756e647360a81b606482015260840161056d565b506001600160a01b03919091166000908152600660209081526040808320938352929052205490565b60608261083357506040805180820190915260018152600360fc1b6020820152610460565b8260005b81156108565780610847816123f1565b915050600482901c9150610837565b849150600f60008267ffffffffffffffff81111561088457634e487b7160e01b600052604160045260246000fd5b6040519080825280601f01601f1916602001820160405280156108ae576020820181803683370190505b509050825b841561093557848316600981116108d7576108cf816030612330565b60f81b6108e6565b6108e2816037612330565b60f81b5b836108f08461239f565b9350838151811061091157634e487b7160e01b600052603260045260246000fd5b60200101906001600160f81b031916908160001a905350600486901c9550506108b3565b815b8760ff168151101561096a5780604051602001610954919061215b565b6040516020818303038152906040529050610937565b98975050505050505050565b600c546001600160a01b031661099e5760405162461bcd60e51b815260040161056d90612301565b600c546001600160a01b031633146109c85760405162461bcd60e51b815260040161056d9061225e565b6109d28282611487565b5050565b600c546001600160a01b03166109fe5760405162461bcd60e51b815260040161056d90612301565b600c546001600160a01b03163314610a285760405162461bcd60e51b815260040161056d9061225e565b6000818152600b6020526040902054819060ff1615610a595760405162461bcd60e51b815260040161056d90612295565b61077284848460405180602001604052806000815250610fab565b60606001600160a01b0383161580610a9357506001600160a01b038216155b610ad55760405162461bcd60e51b8152602060048201526013602482015272546f6b656e3a2077726f6e6720706172616d7360681b604482015260640161056d565b6000610ae060085490565b905060006001600160a01b03841615610b1257506001600160a01b0383166000908152600e6020526040902054610b38565b6001600160a01b0385166000908152600e6020526040902054610b35908361235c565b90505b60008167ffffffffffffffff811115610b6157634e487b7160e01b600052604160045260246000fd5b604051908082528060200260200182016040528015610b8a578160200160208202803683370190505b50905081610b9c579250610460915050565b6000805b84811015610caa576000610bb382610cb6565b90506000610bc082610dc4565b90506001600160a01b03891615801590610beb5750886001600160a01b0316816001600160a01b0316145b15610c2d57818585610bfc816123f1565b965081518110610c1c57634e487b7160e01b600052603260045260246000fd5b602002602001018181525050610c95565b6001600160a01b038a1615801590610c575750896001600160a01b0316816001600160a01b031614155b15610c9557818585610c68816123f1565b965081518110610c8857634e487b7160e01b600052603260045260246000fd5b6020026020010181815250505b50508080610ca2906123f1565b915050610ba0565b50909695505050505050565b6000610cc160085490565b8210610d245760405162461bcd60e51b815260206004820152602c60248201527f455243373231456e756d657261626c653a20676c6f62616c20696e646578206f60448201526b7574206f6620626f756e647360a01b606482015260840161056d565b60088281548110610d4557634e487b7160e01b600052603260045260246000fd5b90600052602060002001549050919050565b600c546001600160a01b0316610d7f5760405162461bcd60e51b815260040161056d90612301565b600c546001600160a01b03163314610da95760405162461bcd60e51b815260040161056d9061225e565b6000908152600b60205260409020805460ff19169055565b50565b6000818152600260205260408120546001600160a01b0316806104605760405162461bcd60e51b815260206004820152602960248201527f4552433732313a206f776e657220717565727920666f72206e6f6e657869737460448201526832b73a103a37b5b2b760b91b606482015260840161056d565b600a546001600160a01b03163314610e655760405162461bcd60e51b815260040161056d906122cc565b6001600160a01b038116610eb25760405162461bcd60e51b8152602060048201526014602482015273546f6b656e3a2057726f6e67206164647265737360601b604482015260640161056d565b600c80546001600160a01b0319166001600160a01b0392909216919091179055565b60006001600160a01b038216610f3f5760405162461bcd60e51b815260206004820152602a60248201527f4552433732313a2062616c616e636520717565727920666f7220746865207a65604482015269726f206164647265737360b01b606482015260840161056d565b506001600160a01b031660009081526003602052604090205490565b600a546001600160a01b03163314610f855760405162461bcd60e51b815260040161056d906122cc565b610f8f60006115d5565b565b606060018054610475906123b6565b6109d2338383611627565b600c546001600160a01b0316610fd35760405162461bcd60e51b815260040161056d90612301565b600c546001600160a01b03163314610ffd5760405162461bcd60e51b815260040161056d9061225e565b6000828152600b6020526040902054829060ff161561102e5760405162461bcd60e51b815260040161056d90612295565b61103a858585856116f6565b5050505050565b6000818152600260205260409020546060906001600160a01b03166110c05760405162461bcd60e51b815260206004820152602f60248201527f4552433732314d657461646174613a2055524920717565727920666f72206e6f60448201526e3732bc34b9ba32b73a103a37b5b2b760891b606482015260840161056d565b60006110d760408051602081019091526000815290565b905060008151116110f75760405180602001604052806000815250611112565b8061110184611772565b6040516020016106cd929190612086565b9392505050565b600c546001600160a01b03166111415760405162461bcd60e51b815260040161056d90612301565b600c546001600160a01b0316331461116b5760405162461bcd60e51b815260040161056d9061225e565b610dc1816000908152600b60205260409020805460ff19166001179055565b600a546001600160a01b031633146111b45760405162461bcd60e51b815260040161056d906122cc565b6001600160a01b0381166112195760405162461bcd60e51b815260206004820152602660248201527f4f776e61626c653a206e6577206f776e657220697320746865207a65726f206160448201526564647265737360d01b606482015260840161056d565b610dc1816115d5565b60006001600160e01b031982166380ac58cd60e01b148061125357506001600160e01b03198216635b5e139f60e01b145b8061046057506301ffc9a760e01b6001600160e01b0319831614610460565b600081815260046020526040902080546001600160a01b0319166001600160a01b03841690811790915581906112a782610dc4565b6001600160a01b03167f8c5be1e5ebec7d5bd14f71427d1e84f3dd0314c0f7b2291e5b200ac8c7c3b92560405160405180910390a45050565b826001600160a01b03166112f382610dc4565b6001600160a01b0316146113575760405162461bcd60e51b815260206004820152602560248201527f4552433732313a207472616e736665722066726f6d20696e636f72726563742060448201526437bbb732b960d91b606482015260840161056d565b6001600160a01b0382166113b95760405162461bcd60e51b8152602060048201526024808201527f4552433732313a207472616e7366657220746f20746865207a65726f206164646044820152637265737360e01b606482015260840161056d565b6113c4838383611894565b6113cf600082611272565b6001600160a01b03831660009081526003602052604081208054600192906113f890849061235c565b90915550506001600160a01b0382166000908152600360205260408120805460019290611426908490612330565b909155505060008181526002602052604080822080546001600160a01b0319166001600160a01b0386811691821790925591518493918716917fddf252ad1be2c89b69c2b068fc378daa952ba7f163c4a11628f55a4df523b3ef91a4505050565b6001600160a01b0382166114dd5760405162461bcd60e51b815260206004820181905260248201527f4552433732313a206d696e7420746f20746865207a65726f2061646472657373604482015260640161056d565b6000818152600260205260409020546001600160a01b0316156115425760405162461bcd60e51b815260206004820152601c60248201527f4552433732313a20746f6b656e20616c7265616479206d696e74656400000000604482015260640161056d565b61154e60008383611894565b6001600160a01b0382166000908152600360205260408120805460019290611577908490612330565b909155505060008181526002602052604080822080546001600160a01b0319166001600160a01b03861690811790915590518392907fddf252ad1be2c89b69c2b068fc378daa952ba7f163c4a11628f55a4df523b3ef908290a45050565b600a80546001600160a01b038381166001600160a01b0319831681179093556040519116919082907f8be0079c531659141344cd1fd0a4f28419497f9722a3daafe3b4186f6b6457e090600090a35050565b816001600160a01b0316836001600160a01b031614156116895760405162461bcd60e51b815260206004820152601960248201527f4552433732313a20617070726f766520746f2063616c6c657200000000000000604482015260640161056d565b6001600160a01b03838116600081815260056020908152604080832094871680845294825291829020805460ff191686151590811790915591519182527f17307eab39ab6107e8899845ad3d59bd9653f200f220920489ca2b5937696c31910160405180910390a3505050565b61170033836118ee565b6117665760405162461bcd60e51b815260206004820152603160248201527f4552433732313a207472616e736665722063616c6c6572206973206e6f74206f6044820152701ddb995c881b9bdc88185c1c1c9bdd9959607a1b606482015260840161056d565b610772848484846119e1565b6060816117965750506040805180820190915260018152600360fc1b602082015290565b8160005b81156117c057806117aa816123f1565b91506117b99050600a83612348565b915061179a565b60008167ffffffffffffffff8111156117e957634e487b7160e01b600052604160045260246000fd5b6040519080825280601f01601f191660200182016040528015611813576020820181803683370190505b5090505b841561188c5761182860018361235c565b9150611835600a8661240c565b611840906030612330565b60f81b81838151811061186357634e487b7160e01b600052603260045260246000fd5b60200101906001600160f81b031916908160001a905350611885600a86612348565b9450611817565b949350505050565b6001600160a01b038316156118c4576001600160a01b0383166000908152600e602052604090206118c490611a14565b6001600160a01b0382166000908152600e60205260409020805460010190556106a3838383611a6b565b6000818152600260205260408120546001600160a01b03166119675760405162461bcd60e51b815260206004820152602c60248201527f4552433732313a206f70657261746f7220717565727920666f72206e6f6e657860448201526b34b9ba32b73a103a37b5b2b760a11b606482015260840161056d565b600061197283610dc4565b9050806001600160a01b0316846001600160a01b031614806119ad5750836001600160a01b03166119a2846104f8565b6001600160a01b0316145b8061188c57506001600160a01b0380821660009081526005602090815260408083209388168352929052205460ff1661188c565b6119ec8484846112e0565b6119f884848484611b23565b6107725760405162461bcd60e51b815260040161056d9061220c565b805480611a635760405162461bcd60e51b815260206004820152601b60248201527f436f756e7465723a2064656372656d656e74206f766572666c6f770000000000604482015260640161056d565b600019019055565b6001600160a01b038316611ac657611ac181600880546000838152600960205260408120829055600182018355919091527ff3f7a9fe364faab93b216da50a3214154f22a0a2b415b23a84c8169e8b636ee30155565b611ae9565b816001600160a01b0316836001600160a01b031614611ae957611ae98382611c30565b6001600160a01b038216611b00576106a381611ccd565b826001600160a01b0316826001600160a01b0316146106a3576106a38282611da6565b60006001600160a01b0384163b15611c2557604051630a85bd0160e11b81526001600160a01b0385169063150b7a0290611b67903390899088908890600401612184565b602060405180830381600087803b158015611b8157600080fd5b505af1925050508015611bb1575060408051601f3d908101601f19168201909252611bae91810190611fe1565b60015b611c0b573d808015611bdf576040519150601f19603f3d011682016040523d82523d6000602084013e611be4565b606091505b508051611c035760405162461bcd60e51b815260040161056d9061220c565b805181602001fd5b6001600160e01b031916630a85bd0160e11b14905061188c565b506001949350505050565b60006001611c3d84610ed4565b611c47919061235c565b600083815260076020526040902054909150808214611c9a576001600160a01b03841660009081526006602090815260408083208584528252808320548484528184208190558352600790915290208190555b5060009182526007602090815260408084208490556001600160a01b039094168352600681528383209183525290812055565b600854600090611cdf9060019061235c565b60008381526009602052604081205460088054939450909284908110611d1557634e487b7160e01b600052603260045260246000fd5b906000526020600020015490508060088381548110611d4457634e487b7160e01b600052603260045260246000fd5b6000918252602080832090910192909255828152600990915260408082208490558582528120556008805480611d8a57634e487b7160e01b600052603160045260246000fd5b6001900381819060005260206000200160009055905550505050565b6000611db183610ed4565b6001600160a01b039093166000908152600660209081526040808320868452825280832085905593825260079052919091209190915550565b80356001600160a01b0381168114611e0157600080fd5b919050565b600060208284031215611e17578081fd5b61111282611dea565b60008060408385031215611e32578081fd5b611e3b83611dea565b9150611e4960208401611dea565b90509250929050565b600080600060608486031215611e66578081fd5b611e6f84611dea565b9250611e7d60208501611dea565b9150604084013590509250925092565b60008060008060808587031215611ea2578081fd5b611eab85611dea565b9350611eb960208601611dea565b925060408501359150606085013567ffffffffffffffff80821115611edc578283fd5b818701915087601f830112611eef578283fd5b813581811115611f0157611f0161244c565b604051601f8201601f19908116603f01168101908382118183101715611f2957611f2961244c565b816040528281528a6020848701011115611f41578586fd5b82602086016020830137918201602001949094529598949750929550505050565b60008060408385031215611f74578182fd5b611f7d83611dea565b915060208301358015158114611f91578182fd5b809150509250929050565b60008060408385031215611fae578182fd5b611fb783611dea565b946020939093013593505050565b600060208284031215611fd6578081fd5b813561111281612462565b600060208284031215611ff2578081fd5b815161111281612462565b60006020828403121561200e578081fd5b5035919050565b60008060408385031215612027578182fd5b82359150602083013560ff81168114611f91578182fd5b60008151808452612056816020860160208601612373565b601f01601f19169290920160200192915050565b6000815161207c818560208601612373565b9290920192915050565b60008351612098818460208801612373565b8351908301906120ac818360208801612373565b01949350505050565b600080845482600182811c9150808316806120d157607f831692505b60208084108214156120f157634e487b7160e01b87526022600452602487fd5b818015612105576001811461211657612142565b60ff19861689528489019650612142565b60008b815260209020885b8681101561213a5781548b820152908501908301612121565b505084890196505b505050505050612152818561206a565b95945050505050565b600360fc1b815260008251612177816001850160208701612373565b9190910160010192915050565b6001600160a01b03858116825284166020820152604081018390526080606082018190526000906121b79083018461203e565b9695505050505050565b6020808252825182820181905260009190848201906040850190845b81811015610caa578351835292840192918401916001016121dd565b602081526000611112602083018461203e565b60208082526032908201527f4552433732313a207472616e7366657220746f206e6f6e20455243373231526560408201527131b2b4bb32b91034b6b83632b6b2b73a32b960711b606082015260800190565b6020808252601f908201527f546f6b656e3a2063616c6c6572206973206e6f7420746865206d61726b657400604082015260600190565b6020808252601a908201527f546f6b656e3a2074686520746f6b656e206973206c6f636b6564000000000000604082015260600190565b6020808252818101527f4f776e61626c653a2063616c6c6572206973206e6f7420746865206f776e6572604082015260600190565b602080825260159082015274151bdad95b8e881b585c9ad95d081b9bdd081cd95d605a1b604082015260600190565b6000821982111561234357612343612420565b500190565b60008261235757612357612436565b500490565b60008282101561236e5761236e612420565b500390565b60005b8381101561238e578181015183820152602001612376565b838111156107725750506000910152565b6000816123ae576123ae612420565b506000190190565b600181811c908216806123ca57607f821691505b602082108114156123eb57634e487b7160e01b600052602260045260246000fd5b50919050565b600060001982141561240557612405612420565b5060010190565b60008261241b5761241b612436565b500690565b634e487b7160e01b600052601160045260246000fd5b634e487b7160e01b600052601260045260246000fd5b634e487b7160e01b600052604160045260246000fd5b6001600160e01b031981168114610dc157600080fdfea26469706673582212209acd373c34f0a732b65b559ec41a20c92810a1ece4fc02c0f44f21bcd4ce645c64736f6c63430008040033",
  "linkReferences": {},
  "deployedLinkReferences": {}
}